{
	"Contracts/fundMe.sol": {
		"fundMe": {
			"abi": [
				{
					"inputs": [],
					"stateMutability": "nonpayable",
					"type": "constructor"
				},
				{
					"inputs": [],
					"name": "MINIMUM_USD",
					"outputs": [
						{
							"internalType": "uint256",
							"name": "",
							"type": "uint256"
						}
					],
					"stateMutability": "view",
					"type": "function"
				},
				{
					"inputs": [
						{
							"internalType": "address",
							"name": "fundersAddress",
							"type": "address"
						}
					],
					"name": "addressToAmountFunded",
					"outputs": [
						{
							"internalType": "uint256",
							"name": "amountFunded",
							"type": "uint256"
						}
					],
					"stateMutability": "view",
					"type": "function"
				},
				{
					"inputs": [],
					"name": "fund",
					"outputs": [],
					"stateMutability": "payable",
					"type": "function"
				},
				{
					"inputs": [
						{
							"internalType": "uint256",
							"name": "",
							"type": "uint256"
						}
					],
					"name": "fundersAddress",
					"outputs": [
						{
							"internalType": "address",
							"name": "",
							"type": "address"
						}
					],
					"stateMutability": "view",
					"type": "function"
				},
				{
					"inputs": [],
					"name": "owner",
					"outputs": [
						{
							"internalType": "address",
							"name": "",
							"type": "address"
						}
					],
					"stateMutability": "view",
					"type": "function"
				},
				{
					"inputs": [],
					"name": "withdraw",
					"outputs": [],
					"stateMutability": "nonpayable",
					"type": "function"
				}
			],
			"devdoc": {
				"kind": "dev",
				"methods": {},
				"version": 1
			},
			"evm": {
				"assembly": "    /* \"Contracts/fundMe.sol\":119:1636  contract fundMe {... */\n  mstore(0x40, 0x80)\n    /* \"Contracts/fundMe.sol\":400:480  constructor () {... */\n  callvalue\n  dup1\n  iszero\n  tag_1\n  jumpi\n  0x00\n  dup1\n  revert\ntag_1:\n  pop\n    /* \"Contracts/fundMe.sol\":434:444  msg.sender */\n  caller\n    /* \"Contracts/fundMe.sol\":426:431  owner */\n  0x02\n  0x00\n    /* \"Contracts/fundMe.sol\":426:444  owner = msg.sender */\n  0x0100\n  exp\n  dup2\n  sload\n  dup2\n  0xffffffffffffffffffffffffffffffffffffffff\n  mul\n  not\n  and\n  swap1\n  dup4\n  0xffffffffffffffffffffffffffffffffffffffff\n  and\n  mul\n  or\n  swap1\n  sstore\n  pop\n    /* \"Contracts/fundMe.sol\":119:1636  contract fundMe {... */\n  dataSize(sub_0)\n  dup1\n  dataOffset(sub_0)\n  0x00\n  codecopy\n  0x00\n  return\nstop\n\nsub_0: assembly {\n        /* \"Contracts/fundMe.sol\":119:1636  contract fundMe {... */\n      mstore(0x40, 0x80)\n      jumpi(tag_1, lt(calldatasize, 0x04))\n      shr(0xe0, calldataload(0x00))\n      dup1\n      0x3ccfd60b\n      eq\n      tag_2\n      jumpi\n      dup1\n      0x3e47d6f3\n      eq\n      tag_3\n      jumpi\n      dup1\n      0x6b69a592\n      eq\n      tag_4\n      jumpi\n      dup1\n      0x8da5cb5b\n      eq\n      tag_5\n      jumpi\n      dup1\n      0xacb0049c\n      eq\n      tag_6\n      jumpi\n      dup1\n      0xb60d4288\n      eq\n      tag_7\n      jumpi\n    tag_1:\n      0x00\n      dup1\n      revert\n        /* \"Contracts/fundMe.sol\":722:1516  function withdraw() public onlyOwner {... */\n    tag_2:\n      callvalue\n      dup1\n      iszero\n      tag_8\n      jumpi\n      0x00\n      dup1\n      revert\n    tag_8:\n      pop\n      tag_9\n      tag_10\n      jump\t// in\n    tag_9:\n      stop\n        /* \"Contracts/fundMe.sol\":278:362  mapping(address fundersAddress => uint256 amountFunded) public addressToAmountFunded */\n    tag_3:\n      callvalue\n      dup1\n      iszero\n      tag_11\n      jumpi\n      0x00\n      dup1\n      revert\n    tag_11:\n      pop\n      tag_12\n      0x04\n      dup1\n      calldatasize\n      sub\n      dup2\n      add\n      swap1\n      tag_13\n      swap2\n      swap1\n      tag_14\n      jump\t// in\n    tag_13:\n      tag_15\n      jump\t// in\n    tag_12:\n      mload(0x40)\n      tag_16\n      swap2\n      swap1\n      tag_17\n      jump\t// in\n    tag_16:\n      mload(0x40)\n      dup1\n      swap2\n      sub\n      swap1\n      return\n        /* \"Contracts/fundMe.sol\":186:228  uint256 public constant MINIMUM_USD = 5e18 */\n    tag_4:\n      callvalue\n      dup1\n      iszero\n      tag_18\n      jumpi\n      0x00\n      dup1\n      revert\n    tag_18:\n      pop\n      tag_19\n      tag_20\n      jump\t// in\n    tag_19:\n      mload(0x40)\n      tag_21\n      swap2\n      swap1\n      tag_17\n      jump\t// in\n    tag_21:\n      mload(0x40)\n      dup1\n      swap2\n      sub\n      swap1\n      return\n        /* \"Contracts/fundMe.sol\":371:391  address public owner */\n    tag_5:\n      callvalue\n      dup1\n      iszero\n      tag_22\n      jumpi\n      0x00\n      dup1\n      revert\n    tag_22:\n      pop\n      tag_23\n      tag_24\n      jump\t// in\n    tag_23:\n      mload(0x40)\n      tag_25\n      swap2\n      swap1\n      tag_26\n      jump\t// in\n    tag_25:\n      mload(0x40)\n      dup1\n      swap2\n      sub\n      swap1\n      return\n        /* \"Contracts/fundMe.sol\":237:269  address[] public  fundersAddress */\n    tag_6:\n      callvalue\n      dup1\n      iszero\n      tag_27\n      jumpi\n      0x00\n      dup1\n      revert\n    tag_27:\n      pop\n      tag_28\n      0x04\n      dup1\n      calldatasize\n      sub\n      dup2\n      add\n      swap1\n      tag_29\n      swap2\n      swap1\n      tag_30\n      jump\t// in\n    tag_29:\n      tag_31\n      jump\t// in\n    tag_28:\n      mload(0x40)\n      tag_32\n      swap2\n      swap1\n      tag_26\n      jump\t// in\n    tag_32:\n      mload(0x40)\n      dup1\n      swap2\n      sub\n      swap1\n      return\n        /* \"Contracts/fundMe.sol\":488:714  function fund() public payable {... */\n    tag_7:\n      tag_33\n      tag_34\n      jump\t// in\n    tag_33:\n      stop\n        /* \"Contracts/fundMe.sol\":722:1516  function withdraw() public onlyOwner {... */\n    tag_10:\n        /* \"Contracts/fundMe.sol\":1579:1584  owner */\n      0x02\n      0x00\n      swap1\n      sload\n      swap1\n      0x0100\n      exp\n      swap1\n      div\n      0xffffffffffffffffffffffffffffffffffffffff\n      and\n        /* \"Contracts/fundMe.sol\":1565:1584  msg.sender == owner */\n      0xffffffffffffffffffffffffffffffffffffffff\n      and\n        /* \"Contracts/fundMe.sol\":1565:1575  msg.sender */\n      caller\n        /* \"Contracts/fundMe.sol\":1565:1584  msg.sender == owner */\n      0xffffffffffffffffffffffffffffffffffffffff\n      and\n      eq\n        /* \"Contracts/fundMe.sol\":1557:1605  require(msg.sender == owner, \"mst be the owner\") */\n      tag_36\n      jumpi\n      mload(0x40)\n      0x08c379a000000000000000000000000000000000000000000000000000000000\n      dup2\n      mstore\n      0x04\n      add\n      tag_37\n      swap1\n      tag_38\n      jump\t// in\n    tag_37:\n      mload(0x40)\n      dup1\n      swap2\n      sub\n      swap1\n      revert\n    tag_36:\n        /* \"Contracts/fundMe.sol\":774:793  uint256 funderIndex */\n      0x00\n        /* \"Contracts/fundMe.sol\":770:971  for(uint256 funderIndex = 0; funderIndex < fundersAddress.length; funderIndex++) {... */\n    tag_40:\n        /* \"Contracts/fundMe.sol\":813:827  fundersAddress */\n      0x00\n        /* \"Contracts/fundMe.sol\":813:834  fundersAddress.length */\n      dup1\n      sload\n      swap1\n      pop\n        /* \"Contracts/fundMe.sol\":799:810  funderIndex */\n      dup2\n        /* \"Contracts/fundMe.sol\":799:834  funderIndex < fundersAddress.length */\n      lt\n        /* \"Contracts/fundMe.sol\":770:971  for(uint256 funderIndex = 0; funderIndex < fundersAddress.length; funderIndex++) {... */\n      iszero\n      tag_41\n      jumpi\n        /* \"Contracts/fundMe.sol\":866:880  address funder */\n      0x00\n        /* \"Contracts/fundMe.sol\":884:898  fundersAddress */\n      dup1\n        /* \"Contracts/fundMe.sol\":899:910  funderIndex */\n      dup3\n        /* \"Contracts/fundMe.sol\":884:911  fundersAddress[funderIndex] */\n      dup2\n      sload\n      dup2\n      lt\n      tag_43\n      jumpi\n      tag_44\n      tag_45\n      jump\t// in\n    tag_44:\n    tag_43:\n      swap1\n      0x00\n      mstore\n      keccak256(0x00, 0x20)\n      add\n      0x00\n      swap1\n      sload\n      swap1\n      0x0100\n      exp\n      swap1\n      div\n      0xffffffffffffffffffffffffffffffffffffffff\n      and\n        /* \"Contracts/fundMe.sol\":866:911  address funder =  fundersAddress[funderIndex] */\n      swap1\n      pop\n        /* \"Contracts/fundMe.sol\":958:959  0 */\n      0x00\n        /* \"Contracts/fundMe.sol\":926:947  addressToAmountFunded */\n      0x01\n        /* \"Contracts/fundMe.sol\":926:955  addressToAmountFunded[funder] */\n      0x00\n        /* \"Contracts/fundMe.sol\":948:954  funder */\n      dup4\n        /* \"Contracts/fundMe.sol\":926:955  addressToAmountFunded[funder] */\n      0xffffffffffffffffffffffffffffffffffffffff\n      and\n      0xffffffffffffffffffffffffffffffffffffffff\n      and\n      dup2\n      mstore\n      0x20\n      add\n      swap1\n      dup2\n      mstore\n      0x20\n      add\n      0x00\n      keccak256\n        /* \"Contracts/fundMe.sol\":926:959  addressToAmountFunded[funder] = 0 */\n      dup2\n      swap1\n      sstore\n      pop\n        /* \"Contracts/fundMe.sol\":851:971  {... */\n      pop\n        /* \"Contracts/fundMe.sol\":836:849  funderIndex++ */\n      dup1\n      dup1\n      0x01\n      add\n      swap2\n      pop\n      pop\n        /* \"Contracts/fundMe.sol\":770:971  for(uint256 funderIndex = 0; funderIndex < fundersAddress.length; funderIndex++) {... */\n      jump(tag_40)\n    tag_41:\n      pop\n        /* \"Contracts/fundMe.sol\":1383:1399  bool callSuccess */\n      0x00\n        /* \"Contracts/fundMe.sol\":1412:1422  msg.sender */\n      caller\n        /* \"Contracts/fundMe.sol\":1404:1428  payable(msg.sender).call */\n      0xffffffffffffffffffffffffffffffffffffffff\n      and\n        /* \"Contracts/fundMe.sol\":1436:1457  address(this).balance */\n      selfbalance\n        /* \"Contracts/fundMe.sol\":1404:1462  payable(msg.sender).call{value: address(this).balance}(\"\") */\n      mload(0x40)\n      tag_47\n      swap1\n      tag_48\n      jump\t// in\n    tag_47:\n      0x00\n      mload(0x40)\n      dup1\n      dup4\n      sub\n      dup2\n      dup6\n      dup8\n      gas\n      call\n      swap3\n      pop\n      pop\n      pop\n      returndatasize\n      dup1\n      0x00\n      dup2\n      eq\n      tag_51\n      jumpi\n      mload(0x40)\n      swap2\n      pop\n      and(add(returndatasize, 0x3f), not(0x1f))\n      dup3\n      add\n      0x40\n      mstore\n      returndatasize\n      dup3\n      mstore\n      returndatasize\n      0x00\n      0x20\n      dup5\n      add\n      returndatacopy\n      jump(tag_50)\n    tag_51:\n      0x60\n      swap2\n      pop\n    tag_50:\n      pop\n        /* \"Contracts/fundMe.sol\":1382:1462  (bool callSuccess, )= payable(msg.sender).call{value: address(this).balance}(\"\") */\n      pop\n      swap1\n      pop\n        /* \"Contracts/fundMe.sol\":1481:1492  callSuccess */\n      dup1\n        /* \"Contracts/fundMe.sol\":1473:1508  require(callSuccess, \"Call failed\") */\n      tag_52\n      jumpi\n      mload(0x40)\n      0x08c379a000000000000000000000000000000000000000000000000000000000\n      dup2\n      mstore\n      0x04\n      add\n      tag_53\n      swap1\n      tag_54\n      jump\t// in\n    tag_53:\n      mload(0x40)\n      dup1\n      swap2\n      sub\n      swap1\n      revert\n    tag_52:\n        /* \"Contracts/fundMe.sol\":759:1516  {... */\n      pop\n        /* \"Contracts/fundMe.sol\":722:1516  function withdraw() public onlyOwner {... */\n      jump\t// out\n        /* \"Contracts/fundMe.sol\":278:362  mapping(address fundersAddress => uint256 amountFunded) public addressToAmountFunded */\n    tag_15:\n      mstore(0x20, 0x01)\n      dup1\n      0x00\n      mstore\n      keccak256(0x00, 0x40)\n      0x00\n      swap2\n      pop\n      swap1\n      pop\n      sload\n      dup2\n      jump\t// out\n        /* \"Contracts/fundMe.sol\":186:228  uint256 public constant MINIMUM_USD = 5e18 */\n    tag_20:\n        /* \"Contracts/fundMe.sol\":224:228  5e18 */\n      0x4563918244f40000\n        /* \"Contracts/fundMe.sol\":186:228  uint256 public constant MINIMUM_USD = 5e18 */\n      dup2\n      jump\t// out\n        /* \"Contracts/fundMe.sol\":371:391  address public owner */\n    tag_24:\n      0x02\n      0x00\n      swap1\n      sload\n      swap1\n      0x0100\n      exp\n      swap1\n      div\n      0xffffffffffffffffffffffffffffffffffffffff\n      and\n      dup2\n      jump\t// out\n        /* \"Contracts/fundMe.sol\":237:269  address[] public  fundersAddress */\n    tag_31:\n      0x00\n      dup2\n      dup2\n      sload\n      dup2\n      lt\n      tag_55\n      jumpi\n      0x00\n      dup1\n      revert\n    tag_55:\n      swap1\n      0x00\n      mstore\n      keccak256(0x00, 0x20)\n      add\n      0x00\n      swap2\n      pop\n      sload\n      swap1\n      0x0100\n      exp\n      swap1\n      div\n      0xffffffffffffffffffffffffffffffffffffffff\n      and\n      dup2\n      jump\t// out\n        /* \"Contracts/fundMe.sol\":488:714  function fund() public payable {... */\n    tag_34:\n        /* \"Contracts/fundMe.sol\":224:228  5e18 */\n      0x4563918244f40000\n        /* \"Contracts/fundMe.sol\":540:549  msg.value */\n      callvalue\n        /* \"Contracts/fundMe.sol\":540:563  msg.value.getConversion */\n      linkerSymbol(\"75b7f28e519dd66808435e7d21c2426a0a7322d926f50a292e3c8895242d6a40\")\n      0x047abed7\n      swap1\n      swap2\n        /* \"Contracts/fundMe.sol\":540:565  msg.value.getConversion() */\n      mload(0x40)\n      dup3\n      0xffffffff\n      and\n      0xe0\n      shl\n      dup2\n      mstore\n      0x04\n      add\n      tag_58\n      swap2\n      swap1\n      tag_59\n      jump\t// in\n    tag_58:\n      0x20\n      mload(0x40)\n      dup1\n      dup4\n      sub\n      dup2\n      dup7\n      gas\n      delegatecall\n      iszero\n      dup1\n      iszero\n      tag_61\n      jumpi\n      returndatasize\n      0x00\n      dup1\n      returndatacopy\n      revert(0x00, returndatasize)\n    tag_61:\n      pop\n      pop\n      pop\n      pop\n      mload(0x40)\n      returndatasize\n      not(0x1f)\n      0x1f\n      dup3\n      add\n      and\n      dup3\n      add\n      dup1\n      0x40\n      mstore\n      pop\n      dup2\n      add\n      swap1\n      tag_62\n      swap2\n      swap1\n      tag_63\n      jump\t// in\n    tag_62:\n        /* \"Contracts/fundMe.sol\":540:580  msg.value.getConversion() >= MINIMUM_USD */\n      lt\n      iszero\n        /* \"Contracts/fundMe.sol\":532:607  require(msg.value.getConversion() >= MINIMUM_USD, \"Didn't send enough ETH\") */\n      tag_64\n      jumpi\n      mload(0x40)\n      0x08c379a000000000000000000000000000000000000000000000000000000000\n      dup2\n      mstore\n      0x04\n      add\n      tag_65\n      swap1\n      tag_66\n      jump\t// in\n    tag_65:\n      mload(0x40)\n      dup1\n      swap2\n      sub\n      swap1\n      revert\n    tag_64:\n        /* \"Contracts/fundMe.sol\":618:632  fundersAddress */\n      0x00\n        /* \"Contracts/fundMe.sol\":638:648  msg.sender */\n      caller\n        /* \"Contracts/fundMe.sol\":618:649  fundersAddress.push(msg.sender) */\n      swap1\n      dup1\n      0x01\n      dup2\n      sload\n      add\n      dup1\n      dup3\n      sstore\n      dup1\n      swap2\n      pop\n      pop\n      0x01\n      swap1\n      sub\n      swap1\n      0x00\n      mstore\n      keccak256(0x00, 0x20)\n      add\n      0x00\n      swap1\n      swap2\n      swap1\n      swap2\n      swap1\n      swap2\n      0x0100\n      exp\n      dup2\n      sload\n      dup2\n      0xffffffffffffffffffffffffffffffffffffffff\n      mul\n      not\n      and\n      swap1\n      dup4\n      0xffffffffffffffffffffffffffffffffffffffff\n      and\n      mul\n      or\n      swap1\n      sstore\n      pop\n        /* \"Contracts/fundMe.sol\":697:706  msg.value */\n      callvalue\n        /* \"Contracts/fundMe.sol\":660:681  addressToAmountFunded */\n      0x01\n        /* \"Contracts/fundMe.sol\":660:693  addressToAmountFunded[msg.sender] */\n      0x00\n        /* \"Contracts/fundMe.sol\":682:692  msg.sender */\n      caller\n        /* \"Contracts/fundMe.sol\":660:693  addressToAmountFunded[msg.sender] */\n      0xffffffffffffffffffffffffffffffffffffffff\n      and\n      0xffffffffffffffffffffffffffffffffffffffff\n      and\n      dup2\n      mstore\n      0x20\n      add\n      swap1\n      dup2\n      mstore\n      0x20\n      add\n      0x00\n      keccak256\n      0x00\n        /* \"Contracts/fundMe.sol\":660:706  addressToAmountFunded[msg.sender] += msg.value */\n      dup3\n      dup3\n      sload\n      tag_68\n      swap2\n      swap1\n      tag_69\n      jump\t// in\n    tag_68:\n      swap3\n      pop\n      pop\n      dup2\n      swap1\n      sstore\n      pop\n        /* \"Contracts/fundMe.sol\":488:714  function fund() public payable {... */\n      jump\t// out\n        /* \"#utility.yul\":88:205   */\n    tag_71:\n        /* \"#utility.yul\":197:198   */\n      0x00\n        /* \"#utility.yul\":194:195   */\n      dup1\n        /* \"#utility.yul\":187:199   */\n      revert\n        /* \"#utility.yul\":334:460   */\n    tag_73:\n        /* \"#utility.yul\":371:378   */\n      0x00\n        /* \"#utility.yul\":411:453   */\n      0xffffffffffffffffffffffffffffffffffffffff\n        /* \"#utility.yul\":404:409   */\n      dup3\n        /* \"#utility.yul\":400:454   */\n      and\n        /* \"#utility.yul\":389:454   */\n      swap1\n      pop\n        /* \"#utility.yul\":334:460   */\n      swap2\n      swap1\n      pop\n      jump\t// out\n        /* \"#utility.yul\":466:562   */\n    tag_74:\n        /* \"#utility.yul\":503:510   */\n      0x00\n        /* \"#utility.yul\":532:556   */\n      tag_101\n        /* \"#utility.yul\":550:555   */\n      dup3\n        /* \"#utility.yul\":532:556   */\n      tag_73\n      jump\t// in\n    tag_101:\n        /* \"#utility.yul\":521:556   */\n      swap1\n      pop\n        /* \"#utility.yul\":466:562   */\n      swap2\n      swap1\n      pop\n      jump\t// out\n        /* \"#utility.yul\":568:690   */\n    tag_75:\n        /* \"#utility.yul\":641:665   */\n      tag_103\n        /* \"#utility.yul\":659:664   */\n      dup2\n        /* \"#utility.yul\":641:665   */\n      tag_74\n      jump\t// in\n    tag_103:\n        /* \"#utility.yul\":634:639   */\n      dup2\n        /* \"#utility.yul\":631:666   */\n      eq\n        /* \"#utility.yul\":621:684   */\n      tag_104\n      jumpi\n        /* \"#utility.yul\":680:681   */\n      0x00\n        /* \"#utility.yul\":677:678   */\n      dup1\n        /* \"#utility.yul\":670:682   */\n      revert\n        /* \"#utility.yul\":621:684   */\n    tag_104:\n        /* \"#utility.yul\":568:690   */\n      pop\n      jump\t// out\n        /* \"#utility.yul\":696:835   */\n    tag_76:\n        /* \"#utility.yul\":742:747   */\n      0x00\n        /* \"#utility.yul\":780:786   */\n      dup2\n        /* \"#utility.yul\":767:787   */\n      calldataload\n        /* \"#utility.yul\":758:787   */\n      swap1\n      pop\n        /* \"#utility.yul\":796:829   */\n      tag_106\n        /* \"#utility.yul\":823:828   */\n      dup2\n        /* \"#utility.yul\":796:829   */\n      tag_75\n      jump\t// in\n    tag_106:\n        /* \"#utility.yul\":696:835   */\n      swap3\n      swap2\n      pop\n      pop\n      jump\t// out\n        /* \"#utility.yul\":841:1170   */\n    tag_14:\n        /* \"#utility.yul\":900:906   */\n      0x00\n        /* \"#utility.yul\":949:951   */\n      0x20\n        /* \"#utility.yul\":937:946   */\n      dup3\n        /* \"#utility.yul\":928:935   */\n      dup5\n        /* \"#utility.yul\":924:947   */\n      sub\n        /* \"#utility.yul\":920:952   */\n      slt\n        /* \"#utility.yul\":917:1036   */\n      iszero\n      tag_108\n      jumpi\n        /* \"#utility.yul\":955:1034   */\n      tag_109\n      tag_71\n      jump\t// in\n    tag_109:\n        /* \"#utility.yul\":917:1036   */\n    tag_108:\n        /* \"#utility.yul\":1075:1076   */\n      0x00\n        /* \"#utility.yul\":1100:1153   */\n      tag_110\n        /* \"#utility.yul\":1145:1152   */\n      dup5\n        /* \"#utility.yul\":1136:1142   */\n      dup3\n        /* \"#utility.yul\":1125:1134   */\n      dup6\n        /* \"#utility.yul\":1121:1143   */\n      add\n        /* \"#utility.yul\":1100:1153   */\n      tag_76\n      jump\t// in\n    tag_110:\n        /* \"#utility.yul\":1090:1153   */\n      swap2\n      pop\n        /* \"#utility.yul\":1046:1163   */\n      pop\n        /* \"#utility.yul\":841:1170   */\n      swap3\n      swap2\n      pop\n      pop\n      jump\t// out\n        /* \"#utility.yul\":1176:1253   */\n    tag_77:\n        /* \"#utility.yul\":1213:1220   */\n      0x00\n        /* \"#utility.yul\":1242:1247   */\n      dup2\n        /* \"#utility.yul\":1231:1247   */\n      swap1\n      pop\n        /* \"#utility.yul\":1176:1253   */\n      swap2\n      swap1\n      pop\n      jump\t// out\n        /* \"#utility.yul\":1259:1377   */\n    tag_78:\n        /* \"#utility.yul\":1346:1370   */\n      tag_113\n        /* \"#utility.yul\":1364:1369   */\n      dup2\n        /* \"#utility.yul\":1346:1370   */\n      tag_77\n      jump\t// in\n    tag_113:\n        /* \"#utility.yul\":1341:1344   */\n      dup3\n        /* \"#utility.yul\":1334:1371   */\n      mstore\n        /* \"#utility.yul\":1259:1377   */\n      pop\n      pop\n      jump\t// out\n        /* \"#utility.yul\":1383:1605   */\n    tag_17:\n        /* \"#utility.yul\":1476:1480   */\n      0x00\n        /* \"#utility.yul\":1514:1516   */\n      0x20\n        /* \"#utility.yul\":1503:1512   */\n      dup3\n        /* \"#utility.yul\":1499:1517   */\n      add\n        /* \"#utility.yul\":1491:1517   */\n      swap1\n      pop\n        /* \"#utility.yul\":1527:1598   */\n      tag_115\n        /* \"#utility.yul\":1595:1596   */\n      0x00\n        /* \"#utility.yul\":1584:1593   */\n      dup4\n        /* \"#utility.yul\":1580:1597   */\n      add\n        /* \"#utility.yul\":1571:1577   */\n      dup5\n        /* \"#utility.yul\":1527:1598   */\n      tag_78\n      jump\t// in\n    tag_115:\n        /* \"#utility.yul\":1383:1605   */\n      swap3\n      swap2\n      pop\n      pop\n      jump\t// out\n        /* \"#utility.yul\":1611:1729   */\n    tag_79:\n        /* \"#utility.yul\":1698:1722   */\n      tag_117\n        /* \"#utility.yul\":1716:1721   */\n      dup2\n        /* \"#utility.yul\":1698:1722   */\n      tag_74\n      jump\t// in\n    tag_117:\n        /* \"#utility.yul\":1693:1696   */\n      dup3\n        /* \"#utility.yul\":1686:1723   */\n      mstore\n        /* \"#utility.yul\":1611:1729   */\n      pop\n      pop\n      jump\t// out\n        /* \"#utility.yul\":1735:1957   */\n    tag_26:\n        /* \"#utility.yul\":1828:1832   */\n      0x00\n        /* \"#utility.yul\":1866:1868   */\n      0x20\n        /* \"#utility.yul\":1855:1864   */\n      dup3\n        /* \"#utility.yul\":1851:1869   */\n      add\n        /* \"#utility.yul\":1843:1869   */\n      swap1\n      pop\n        /* \"#utility.yul\":1879:1950   */\n      tag_119\n        /* \"#utility.yul\":1947:1948   */\n      0x00\n        /* \"#utility.yul\":1936:1945   */\n      dup4\n        /* \"#utility.yul\":1932:1949   */\n      add\n        /* \"#utility.yul\":1923:1929   */\n      dup5\n        /* \"#utility.yul\":1879:1950   */\n      tag_79\n      jump\t// in\n    tag_119:\n        /* \"#utility.yul\":1735:1957   */\n      swap3\n      swap2\n      pop\n      pop\n      jump\t// out\n        /* \"#utility.yul\":1963:2085   */\n    tag_80:\n        /* \"#utility.yul\":2036:2060   */\n      tag_121\n        /* \"#utility.yul\":2054:2059   */\n      dup2\n        /* \"#utility.yul\":2036:2060   */\n      tag_77\n      jump\t// in\n    tag_121:\n        /* \"#utility.yul\":2029:2034   */\n      dup2\n        /* \"#utility.yul\":2026:2061   */\n      eq\n        /* \"#utility.yul\":2016:2079   */\n      tag_122\n      jumpi\n        /* \"#utility.yul\":2075:2076   */\n      0x00\n        /* \"#utility.yul\":2072:2073   */\n      dup1\n        /* \"#utility.yul\":2065:2077   */\n      revert\n        /* \"#utility.yul\":2016:2079   */\n    tag_122:\n        /* \"#utility.yul\":1963:2085   */\n      pop\n      jump\t// out\n        /* \"#utility.yul\":2091:2230   */\n    tag_81:\n        /* \"#utility.yul\":2137:2142   */\n      0x00\n        /* \"#utility.yul\":2175:2181   */\n      dup2\n        /* \"#utility.yul\":2162:2182   */\n      calldataload\n        /* \"#utility.yul\":2153:2182   */\n      swap1\n      pop\n        /* \"#utility.yul\":2191:2224   */\n      tag_124\n        /* \"#utility.yul\":2218:2223   */\n      dup2\n        /* \"#utility.yul\":2191:2224   */\n      tag_80\n      jump\t// in\n    tag_124:\n        /* \"#utility.yul\":2091:2230   */\n      swap3\n      swap2\n      pop\n      pop\n      jump\t// out\n        /* \"#utility.yul\":2236:2565   */\n    tag_30:\n        /* \"#utility.yul\":2295:2301   */\n      0x00\n        /* \"#utility.yul\":2344:2346   */\n      0x20\n        /* \"#utility.yul\":2332:2341   */\n      dup3\n        /* \"#utility.yul\":2323:2330   */\n      dup5\n        /* \"#utility.yul\":2319:2342   */\n      sub\n        /* \"#utility.yul\":2315:2347   */\n      slt\n        /* \"#utility.yul\":2312:2431   */\n      iszero\n      tag_126\n      jumpi\n        /* \"#utility.yul\":2350:2429   */\n      tag_127\n      tag_71\n      jump\t// in\n    tag_127:\n        /* \"#utility.yul\":2312:2431   */\n    tag_126:\n        /* \"#utility.yul\":2470:2471   */\n      0x00\n        /* \"#utility.yul\":2495:2548   */\n      tag_128\n        /* \"#utility.yul\":2540:2547   */\n      dup5\n        /* \"#utility.yul\":2531:2537   */\n      dup3\n        /* \"#utility.yul\":2520:2529   */\n      dup6\n        /* \"#utility.yul\":2516:2538   */\n      add\n        /* \"#utility.yul\":2495:2548   */\n      tag_81\n      jump\t// in\n    tag_128:\n        /* \"#utility.yul\":2485:2548   */\n      swap2\n      pop\n        /* \"#utility.yul\":2441:2558   */\n      pop\n        /* \"#utility.yul\":2236:2565   */\n      swap3\n      swap2\n      pop\n      pop\n      jump\t// out\n        /* \"#utility.yul\":2571:2740   */\n    tag_82:\n        /* \"#utility.yul\":2655:2666   */\n      0x00\n        /* \"#utility.yul\":2689:2695   */\n      dup3\n        /* \"#utility.yul\":2684:2687   */\n      dup3\n        /* \"#utility.yul\":2677:2696   */\n      mstore\n        /* \"#utility.yul\":2729:2733   */\n      0x20\n        /* \"#utility.yul\":2724:2727   */\n      dup3\n        /* \"#utility.yul\":2720:2734   */\n      add\n        /* \"#utility.yul\":2705:2734   */\n      swap1\n      pop\n        /* \"#utility.yul\":2571:2740   */\n      swap3\n      swap2\n      pop\n      pop\n      jump\t// out\n        /* \"#utility.yul\":2746:2912   */\n    tag_83:\n        /* \"#utility.yul\":2886:2904   */\n      0x6d737420626520746865206f776e657200000000000000000000000000000000\n        /* \"#utility.yul\":2882:2883   */\n      0x00\n        /* \"#utility.yul\":2874:2880   */\n      dup3\n        /* \"#utility.yul\":2870:2884   */\n      add\n        /* \"#utility.yul\":2863:2905   */\n      mstore\n        /* \"#utility.yul\":2746:2912   */\n      pop\n      jump\t// out\n        /* \"#utility.yul\":2918:3284   */\n    tag_84:\n        /* \"#utility.yul\":3060:3063   */\n      0x00\n        /* \"#utility.yul\":3081:3148   */\n      tag_132\n        /* \"#utility.yul\":3145:3147   */\n      0x10\n        /* \"#utility.yul\":3140:3143   */\n      dup4\n        /* \"#utility.yul\":3081:3148   */\n      tag_82\n      jump\t// in\n    tag_132:\n        /* \"#utility.yul\":3074:3148   */\n      swap2\n      pop\n        /* \"#utility.yul\":3157:3250   */\n      tag_133\n        /* \"#utility.yul\":3246:3249   */\n      dup3\n        /* \"#utility.yul\":3157:3250   */\n      tag_83\n      jump\t// in\n    tag_133:\n        /* \"#utility.yul\":3275:3277   */\n      0x20\n        /* \"#utility.yul\":3270:3273   */\n      dup3\n        /* \"#utility.yul\":3266:3278   */\n      add\n        /* \"#utility.yul\":3259:3278   */\n      swap1\n      pop\n        /* \"#utility.yul\":2918:3284   */\n      swap2\n      swap1\n      pop\n      jump\t// out\n        /* \"#utility.yul\":3290:3709   */\n    tag_38:\n        /* \"#utility.yul\":3456:3460   */\n      0x00\n        /* \"#utility.yul\":3494:3496   */\n      0x20\n        /* \"#utility.yul\":3483:3492   */\n      dup3\n        /* \"#utility.yul\":3479:3497   */\n      add\n        /* \"#utility.yul\":3471:3497   */\n      swap1\n      pop\n        /* \"#utility.yul\":3543:3552   */\n      dup2\n        /* \"#utility.yul\":3537:3541   */\n      dup2\n        /* \"#utility.yul\":3533:3553   */\n      sub\n        /* \"#utility.yul\":3529:3530   */\n      0x00\n        /* \"#utility.yul\":3518:3527   */\n      dup4\n        /* \"#utility.yul\":3514:3531   */\n      add\n        /* \"#utility.yul\":3507:3554   */\n      mstore\n        /* \"#utility.yul\":3571:3702   */\n      tag_135\n        /* \"#utility.yul\":3697:3701   */\n      dup2\n        /* \"#utility.yul\":3571:3702   */\n      tag_84\n      jump\t// in\n    tag_135:\n        /* \"#utility.yul\":3563:3702   */\n      swap1\n      pop\n        /* \"#utility.yul\":3290:3709   */\n      swap2\n      swap1\n      pop\n      jump\t// out\n        /* \"#utility.yul\":3715:3895   */\n    tag_45:\n        /* \"#utility.yul\":3763:3840   */\n      0x4e487b7100000000000000000000000000000000000000000000000000000000\n        /* \"#utility.yul\":3760:3761   */\n      0x00\n        /* \"#utility.yul\":3753:3841   */\n      mstore\n        /* \"#utility.yul\":3860:3864   */\n      0x32\n        /* \"#utility.yul\":3857:3858   */\n      0x04\n        /* \"#utility.yul\":3850:3865   */\n      mstore\n        /* \"#utility.yul\":3884:3888   */\n      0x24\n        /* \"#utility.yul\":3881:3882   */\n      0x00\n        /* \"#utility.yul\":3874:3889   */\n      revert\n        /* \"#utility.yul\":3901:4048   */\n    tag_85:\n        /* \"#utility.yul\":4002:4013   */\n      0x00\n        /* \"#utility.yul\":4039:4042   */\n      dup2\n        /* \"#utility.yul\":4024:4042   */\n      swap1\n      pop\n        /* \"#utility.yul\":3901:4048   */\n      swap3\n      swap2\n      pop\n      pop\n      jump\t// out\n        /* \"#utility.yul\":4054:4168   */\n    tag_86:\n      pop\n      jump\t// out\n        /* \"#utility.yul\":4174:4572   */\n    tag_87:\n        /* \"#utility.yul\":4333:4336   */\n      0x00\n        /* \"#utility.yul\":4354:4437   */\n      tag_140\n        /* \"#utility.yul\":4435:4436   */\n      0x00\n        /* \"#utility.yul\":4430:4433   */\n      dup4\n        /* \"#utility.yul\":4354:4437   */\n      tag_85\n      jump\t// in\n    tag_140:\n        /* \"#utility.yul\":4347:4437   */\n      swap2\n      pop\n        /* \"#utility.yul\":4446:4539   */\n      tag_141\n        /* \"#utility.yul\":4535:4538   */\n      dup3\n        /* \"#utility.yul\":4446:4539   */\n      tag_86\n      jump\t// in\n    tag_141:\n        /* \"#utility.yul\":4564:4565   */\n      0x00\n        /* \"#utility.yul\":4559:4562   */\n      dup3\n        /* \"#utility.yul\":4555:4566   */\n      add\n        /* \"#utility.yul\":4548:4566   */\n      swap1\n      pop\n        /* \"#utility.yul\":4174:4572   */\n      swap2\n      swap1\n      pop\n      jump\t// out\n        /* \"#utility.yul\":4578:4957   */\n    tag_48:\n        /* \"#utility.yul\":4762:4765   */\n      0x00\n        /* \"#utility.yul\":4784:4931   */\n      tag_143\n        /* \"#utility.yul\":4927:4930   */\n      dup3\n        /* \"#utility.yul\":4784:4931   */\n      tag_87\n      jump\t// in\n    tag_143:\n        /* \"#utility.yul\":4777:4931   */\n      swap2\n      pop\n        /* \"#utility.yul\":4948:4951   */\n      dup2\n        /* \"#utility.yul\":4941:4951   */\n      swap1\n      pop\n        /* \"#utility.yul\":4578:4957   */\n      swap2\n      swap1\n      pop\n      jump\t// out\n        /* \"#utility.yul\":4963:5124   */\n    tag_88:\n        /* \"#utility.yul\":5103:5116   */\n      0x43616c6c206661696c6564000000000000000000000000000000000000000000\n        /* \"#utility.yul\":5099:5100   */\n      0x00\n        /* \"#utility.yul\":5091:5097   */\n      dup3\n        /* \"#utility.yul\":5087:5101   */\n      add\n        /* \"#utility.yul\":5080:5117   */\n      mstore\n        /* \"#utility.yul\":4963:5124   */\n      pop\n      jump\t// out\n        /* \"#utility.yul\":5130:5496   */\n    tag_89:\n        /* \"#utility.yul\":5272:5275   */\n      0x00\n        /* \"#utility.yul\":5293:5360   */\n      tag_146\n        /* \"#utility.yul\":5357:5359   */\n      0x0b\n        /* \"#utility.yul\":5352:5355   */\n      dup4\n        /* \"#utility.yul\":5293:5360   */\n      tag_82\n      jump\t// in\n    tag_146:\n        /* \"#utility.yul\":5286:5360   */\n      swap2\n      pop\n        /* \"#utility.yul\":5369:5462   */\n      tag_147\n        /* \"#utility.yul\":5458:5461   */\n      dup3\n        /* \"#utility.yul\":5369:5462   */\n      tag_88\n      jump\t// in\n    tag_147:\n        /* \"#utility.yul\":5487:5489   */\n      0x20\n        /* \"#utility.yul\":5482:5485   */\n      dup3\n        /* \"#utility.yul\":5478:5490   */\n      add\n        /* \"#utility.yul\":5471:5490   */\n      swap1\n      pop\n        /* \"#utility.yul\":5130:5496   */\n      swap2\n      swap1\n      pop\n      jump\t// out\n        /* \"#utility.yul\":5502:5921   */\n    tag_54:\n        /* \"#utility.yul\":5668:5672   */\n      0x00\n        /* \"#utility.yul\":5706:5708   */\n      0x20\n        /* \"#utility.yul\":5695:5704   */\n      dup3\n        /* \"#utility.yul\":5691:5709   */\n      add\n        /* \"#utility.yul\":5683:5709   */\n      swap1\n      pop\n        /* \"#utility.yul\":5755:5764   */\n      dup2\n        /* \"#utility.yul\":5749:5753   */\n      dup2\n        /* \"#utility.yul\":5745:5765   */\n      sub\n        /* \"#utility.yul\":5741:5742   */\n      0x00\n        /* \"#utility.yul\":5730:5739   */\n      dup4\n        /* \"#utility.yul\":5726:5743   */\n      add\n        /* \"#utility.yul\":5719:5766   */\n      mstore\n        /* \"#utility.yul\":5783:5914   */\n      tag_149\n        /* \"#utility.yul\":5909:5913   */\n      dup2\n        /* \"#utility.yul\":5783:5914   */\n      tag_89\n      jump\t// in\n    tag_149:\n        /* \"#utility.yul\":5775:5914   */\n      swap1\n      pop\n        /* \"#utility.yul\":5502:5921   */\n      swap2\n      swap1\n      pop\n      jump\t// out\n        /* \"#utility.yul\":5927:6053   */\n    tag_90:\n        /* \"#utility.yul\":6022:6046   */\n      tag_151\n        /* \"#utility.yul\":6040:6045   */\n      dup2\n        /* \"#utility.yul\":6022:6046   */\n      tag_77\n      jump\t// in\n    tag_151:\n        /* \"#utility.yul\":6017:6020   */\n      dup3\n        /* \"#utility.yul\":6010:6047   */\n      mstore\n        /* \"#utility.yul\":5927:6053   */\n      pop\n      pop\n      jump\t// out\n        /* \"#utility.yul\":6059:6297   */\n    tag_59:\n        /* \"#utility.yul\":6160:6164   */\n      0x00\n        /* \"#utility.yul\":6198:6200   */\n      0x20\n        /* \"#utility.yul\":6187:6196   */\n      dup3\n        /* \"#utility.yul\":6183:6201   */\n      add\n        /* \"#utility.yul\":6175:6201   */\n      swap1\n      pop\n        /* \"#utility.yul\":6211:6290   */\n      tag_153\n        /* \"#utility.yul\":6287:6288   */\n      0x00\n        /* \"#utility.yul\":6276:6285   */\n      dup4\n        /* \"#utility.yul\":6272:6289   */\n      add\n        /* \"#utility.yul\":6263:6269   */\n      dup5\n        /* \"#utility.yul\":6211:6290   */\n      tag_90\n      jump\t// in\n    tag_153:\n        /* \"#utility.yul\":6059:6297   */\n      swap3\n      swap2\n      pop\n      pop\n      jump\t// out\n        /* \"#utility.yul\":6303:6446   */\n    tag_91:\n        /* \"#utility.yul\":6360:6365   */\n      0x00\n        /* \"#utility.yul\":6391:6397   */\n      dup2\n        /* \"#utility.yul\":6385:6398   */\n      mload\n        /* \"#utility.yul\":6376:6398   */\n      swap1\n      pop\n        /* \"#utility.yul\":6407:6440   */\n      tag_155\n        /* \"#utility.yul\":6434:6439   */\n      dup2\n        /* \"#utility.yul\":6407:6440   */\n      tag_80\n      jump\t// in\n    tag_155:\n        /* \"#utility.yul\":6303:6446   */\n      swap3\n      swap2\n      pop\n      pop\n      jump\t// out\n        /* \"#utility.yul\":6452:6803   */\n    tag_63:\n        /* \"#utility.yul\":6522:6528   */\n      0x00\n        /* \"#utility.yul\":6571:6573   */\n      0x20\n        /* \"#utility.yul\":6559:6568   */\n      dup3\n        /* \"#utility.yul\":6550:6557   */\n      dup5\n        /* \"#utility.yul\":6546:6569   */\n      sub\n        /* \"#utility.yul\":6542:6574   */\n      slt\n        /* \"#utility.yul\":6539:6658   */\n      iszero\n      tag_157\n      jumpi\n        /* \"#utility.yul\":6577:6656   */\n      tag_158\n      tag_71\n      jump\t// in\n    tag_158:\n        /* \"#utility.yul\":6539:6658   */\n    tag_157:\n        /* \"#utility.yul\":6697:6698   */\n      0x00\n        /* \"#utility.yul\":6722:6786   */\n      tag_159\n        /* \"#utility.yul\":6778:6785   */\n      dup5\n        /* \"#utility.yul\":6769:6775   */\n      dup3\n        /* \"#utility.yul\":6758:6767   */\n      dup6\n        /* \"#utility.yul\":6754:6776   */\n      add\n        /* \"#utility.yul\":6722:6786   */\n      tag_91\n      jump\t// in\n    tag_159:\n        /* \"#utility.yul\":6712:6786   */\n      swap2\n      pop\n        /* \"#utility.yul\":6668:6796   */\n      pop\n        /* \"#utility.yul\":6452:6803   */\n      swap3\n      swap2\n      pop\n      pop\n      jump\t// out\n        /* \"#utility.yul\":6809:6981   */\n    tag_92:\n        /* \"#utility.yul\":6949:6973   */\n      0x4469646e27742073656e6420656e6f7567682045544800000000000000000000\n        /* \"#utility.yul\":6945:6946   */\n      0x00\n        /* \"#utility.yul\":6937:6943   */\n      dup3\n        /* \"#utility.yul\":6933:6947   */\n      add\n        /* \"#utility.yul\":6926:6974   */\n      mstore\n        /* \"#utility.yul\":6809:6981   */\n      pop\n      jump\t// out\n        /* \"#utility.yul\":6987:7353   */\n    tag_93:\n        /* \"#utility.yul\":7129:7132   */\n      0x00\n        /* \"#utility.yul\":7150:7217   */\n      tag_162\n        /* \"#utility.yul\":7214:7216   */\n      0x16\n        /* \"#utility.yul\":7209:7212   */\n      dup4\n        /* \"#utility.yul\":7150:7217   */\n      tag_82\n      jump\t// in\n    tag_162:\n        /* \"#utility.yul\":7143:7217   */\n      swap2\n      pop\n        /* \"#utility.yul\":7226:7319   */\n      tag_163\n        /* \"#utility.yul\":7315:7318   */\n      dup3\n        /* \"#utility.yul\":7226:7319   */\n      tag_92\n      jump\t// in\n    tag_163:\n        /* \"#utility.yul\":7344:7346   */\n      0x20\n        /* \"#utility.yul\":7339:7342   */\n      dup3\n        /* \"#utility.yul\":7335:7347   */\n      add\n        /* \"#utility.yul\":7328:7347   */\n      swap1\n      pop\n        /* \"#utility.yul\":6987:7353   */\n      swap2\n      swap1\n      pop\n      jump\t// out\n        /* \"#utility.yul\":7359:7778   */\n    tag_66:\n        /* \"#utility.yul\":7525:7529   */\n      0x00\n        /* \"#utility.yul\":7563:7565   */\n      0x20\n        /* \"#utility.yul\":7552:7561   */\n      dup3\n        /* \"#utility.yul\":7548:7566   */\n      add\n        /* \"#utility.yul\":7540:7566   */\n      swap1\n      pop\n        /* \"#utility.yul\":7612:7621   */\n      dup2\n        /* \"#utility.yul\":7606:7610   */\n      dup2\n        /* \"#utility.yul\":7602:7622   */\n      sub\n        /* \"#utility.yul\":7598:7599   */\n      0x00\n        /* \"#utility.yul\":7587:7596   */\n      dup4\n        /* \"#utility.yul\":7583:7600   */\n      add\n        /* \"#utility.yul\":7576:7623   */\n      mstore\n        /* \"#utility.yul\":7640:7771   */\n      tag_165\n        /* \"#utility.yul\":7766:7770   */\n      dup2\n        /* \"#utility.yul\":7640:7771   */\n      tag_93\n      jump\t// in\n    tag_165:\n        /* \"#utility.yul\":7632:7771   */\n      swap1\n      pop\n        /* \"#utility.yul\":7359:7778   */\n      swap2\n      swap1\n      pop\n      jump\t// out\n        /* \"#utility.yul\":7784:7964   */\n    tag_94:\n        /* \"#utility.yul\":7832:7909   */\n      0x4e487b7100000000000000000000000000000000000000000000000000000000\n        /* \"#utility.yul\":7829:7830   */\n      0x00\n        /* \"#utility.yul\":7822:7910   */\n      mstore\n        /* \"#utility.yul\":7929:7933   */\n      0x11\n        /* \"#utility.yul\":7926:7927   */\n      0x04\n        /* \"#utility.yul\":7919:7934   */\n      mstore\n        /* \"#utility.yul\":7953:7957   */\n      0x24\n        /* \"#utility.yul\":7950:7951   */\n      0x00\n        /* \"#utility.yul\":7943:7958   */\n      revert\n        /* \"#utility.yul\":7970:8161   */\n    tag_69:\n        /* \"#utility.yul\":8010:8013   */\n      0x00\n        /* \"#utility.yul\":8029:8049   */\n      tag_168\n        /* \"#utility.yul\":8047:8048   */\n      dup3\n        /* \"#utility.yul\":8029:8049   */\n      tag_77\n      jump\t// in\n    tag_168:\n        /* \"#utility.yul\":8024:8049   */\n      swap2\n      pop\n        /* \"#utility.yul\":8063:8083   */\n      tag_169\n        /* \"#utility.yul\":8081:8082   */\n      dup4\n        /* \"#utility.yul\":8063:8083   */\n      tag_77\n      jump\t// in\n    tag_169:\n        /* \"#utility.yul\":8058:8083   */\n      swap3\n      pop\n        /* \"#utility.yul\":8106:8107   */\n      dup3\n        /* \"#utility.yul\":8103:8104   */\n      dup3\n        /* \"#utility.yul\":8099:8108   */\n      add\n        /* \"#utility.yul\":8092:8108   */\n      swap1\n      pop\n        /* \"#utility.yul\":8127:8130   */\n      dup1\n        /* \"#utility.yul\":8124:8125   */\n      dup3\n        /* \"#utility.yul\":8121:8131   */\n      gt\n        /* \"#utility.yul\":8118:8154   */\n      iszero\n      tag_170\n      jumpi\n        /* \"#utility.yul\":8134:8152   */\n      tag_171\n      tag_94\n      jump\t// in\n    tag_171:\n        /* \"#utility.yul\":8118:8154   */\n    tag_170:\n        /* \"#utility.yul\":7970:8161   */\n      swap3\n      swap2\n      pop\n      pop\n      jump\t// out\n\n    auxdata: 0xa2646970667358221220f7c0ba8d50dab20fb1c17fa6edc482053e7a71d0f0a7d4d5ce085af7a15f923d64736f6c634300081a0033\n}\n",
				"bytecode": {
					"linkReferences": {
						"Contracts/PriceConverter.sol": {
							"PriceConverter": [
								{
									"length": 20,
									"start": 1027
								}
							]
						}
					},
					"object": "6080604052348015600e575f80fd5b503360025f6101000a81548173ffffffffffffffffffffffffffffffffffffffff021916908373ffffffffffffffffffffffffffffffffffffffff1602179055506108fb8061005c5f395ff3fe608060405260043610610054575f3560e01c80633ccfd60b146100585780633e47d6f31461006e5780636b69a592146100aa5780638da5cb5b146100d4578063acb0049c146100fe578063b60d42881461013a575b5f80fd5b348015610063575f80fd5b5061006c610144565b005b348015610079575f80fd5b50610094600480360381019061008f919061056f565b61031b565b6040516100a191906105b2565b60405180910390f35b3480156100b5575f80fd5b506100be610330565b6040516100cb91906105b2565b60405180910390f35b3480156100df575f80fd5b506100e861033c565b6040516100f591906105da565b60405180910390f35b348015610109575f80fd5b50610124600480360381019061011f919061061d565b610361565b60405161013191906105da565b60405180910390f35b61014261039b565b005b60025f9054906101000a900473ffffffffffffffffffffffffffffffffffffffff1673ffffffffffffffffffffffffffffffffffffffff163373ffffffffffffffffffffffffffffffffffffffff16146101d3576040517f08c379a00000000000000000000000000000000000000000000000000000000081526004016101ca906106a2565b60405180910390fd5b5f5b5f8054905081101561026f575f8082815481106101f5576101f46106c0565b5b905f5260205f20015f9054906101000a900473ffffffffffffffffffffffffffffffffffffffff1690505f60015f8373ffffffffffffffffffffffffffffffffffffffff1673ffffffffffffffffffffffffffffffffffffffff1681526020019081526020015f20819055505080806001019150506101d5565b505f3373ffffffffffffffffffffffffffffffffffffffff16476040516102959061071a565b5f6040518083038185875af1925050503d805f81146102cf576040519150601f19603f3d011682016040523d82523d5f602084013e6102d4565b606091505b5050905080610318576040517f08c379a000000000000000000000000000000000000000000000000000000000815260040161030f90610778565b60405180910390fd5b50565b6001602052805f5260405f205f915090505481565b674563918244f4000081565b60025f9054906101000a900473ffffffffffffffffffffffffffffffffffffffff1681565b5f818154811061036f575f80fd5b905f5260205f20015f915054906101000a900473ffffffffffffffffffffffffffffffffffffffff1681565b674563918244f400003473__$75b7f28e519dd66808435e7d21c2426a0a$__63047abed790916040518263ffffffff1660e01b81526004016103dd91906107a5565b602060405180830381865af41580156103f8573d5f803e3d5ffd5b505050506040513d601f19601f8201168201806040525081019061041c91906107d2565b101561045d576040517f08c379a000000000000000000000000000000000000000000000000000000000815260040161045490610847565b60405180910390fd5b5f33908060018154018082558091505060019003905f5260205f20015f9091909190916101000a81548173ffffffffffffffffffffffffffffffffffffffff021916908373ffffffffffffffffffffffffffffffffffffffff1602179055503460015f3373ffffffffffffffffffffffffffffffffffffffff1673ffffffffffffffffffffffffffffffffffffffff1681526020019081526020015f205f8282546105089190610892565b92505081905550565b5f80fd5b5f73ffffffffffffffffffffffffffffffffffffffff82169050919050565b5f61053e82610515565b9050919050565b61054e81610534565b8114610558575f80fd5b50565b5f8135905061056981610545565b92915050565b5f6020828403121561058457610583610511565b5b5f6105918482850161055b565b91505092915050565b5f819050919050565b6105ac8161059a565b82525050565b5f6020820190506105c55f8301846105a3565b92915050565b6105d481610534565b82525050565b5f6020820190506105ed5f8301846105cb565b92915050565b6105fc8161059a565b8114610606575f80fd5b50565b5f81359050610617816105f3565b92915050565b5f6020828403121561063257610631610511565b5b5f61063f84828501610609565b91505092915050565b5f82825260208201905092915050565b7f6d737420626520746865206f776e6572000000000000000000000000000000005f82015250565b5f61068c601083610648565b915061069782610658565b602082019050919050565b5f6020820190508181035f8301526106b981610680565b9050919050565b7f4e487b71000000000000000000000000000000000000000000000000000000005f52603260045260245ffd5b5f81905092915050565b50565b5f6107055f836106ed565b9150610710826106f7565b5f82019050919050565b5f610724826106fa565b9150819050919050565b7f43616c6c206661696c65640000000000000000000000000000000000000000005f82015250565b5f610762600b83610648565b915061076d8261072e565b602082019050919050565b5f6020820190508181035f83015261078f81610756565b9050919050565b61079f8161059a565b82525050565b5f6020820190506107b85f830184610796565b92915050565b5f815190506107cc816105f3565b92915050565b5f602082840312156107e7576107e6610511565b5b5f6107f4848285016107be565b91505092915050565b7f4469646e27742073656e6420656e6f75676820455448000000000000000000005f82015250565b5f610831601683610648565b915061083c826107fd565b602082019050919050565b5f6020820190508181035f83015261085e81610825565b9050919050565b7f4e487b71000000000000000000000000000000000000000000000000000000005f52601160045260245ffd5b5f61089c8261059a565b91506108a78361059a565b92508282019050808211156108bf576108be610865565b5b9291505056fea2646970667358221220f7c0ba8d50dab20fb1c17fa6edc482053e7a71d0f0a7d4d5ce085af7a15f923d64736f6c634300081a0033",
					"opcodes": "PUSH1 0x80 PUSH1 0x40 MSTORE CALLVALUE DUP1 ISZERO PUSH1 0xE JUMPI PUSH0 DUP1 REVERT JUMPDEST POP CALLER PUSH1 0x2 PUSH0 PUSH2 0x100 EXP DUP2 SLOAD DUP2 PUSH20 0xFFFFFFFFFFFFFFFFFFFFFFFFFFFFFFFFFFFFFFFF MUL NOT AND SWAP1 DUP4 PUSH20 0xFFFFFFFFFFFFFFFFFFFFFFFFFFFFFFFFFFFFFFFF AND MUL OR SWAP1 SSTORE POP PUSH2 0x8FB DUP1 PUSH2 0x5C PUSH0 CODECOPY PUSH0 RETURN INVALID PUSH1 0x80 PUSH1 0x40 MSTORE PUSH1 0x4 CALLDATASIZE LT PUSH2 0x54 JUMPI PUSH0 CALLDATALOAD PUSH1 0xE0 SHR DUP1 PUSH4 0x3CCFD60B EQ PUSH2 0x58 JUMPI DUP1 PUSH4 0x3E47D6F3 EQ PUSH2 0x6E JUMPI DUP1 PUSH4 0x6B69A592 EQ PUSH2 0xAA JUMPI DUP1 PUSH4 0x8DA5CB5B EQ PUSH2 0xD4 JUMPI DUP1 PUSH4 0xACB0049C EQ PUSH2 0xFE JUMPI DUP1 PUSH4 0xB60D4288 EQ PUSH2 0x13A JUMPI JUMPDEST PUSH0 DUP1 REVERT JUMPDEST CALLVALUE DUP1 ISZERO PUSH2 0x63 JUMPI PUSH0 DUP1 REVERT JUMPDEST POP PUSH2 0x6C PUSH2 0x144 JUMP JUMPDEST STOP JUMPDEST CALLVALUE DUP1 ISZERO PUSH2 0x79 JUMPI PUSH0 DUP1 REVERT JUMPDEST POP PUSH2 0x94 PUSH1 0x4 DUP1 CALLDATASIZE SUB DUP2 ADD SWAP1 PUSH2 0x8F SWAP2 SWAP1 PUSH2 0x56F JUMP JUMPDEST PUSH2 0x31B JUMP JUMPDEST PUSH1 0x40 MLOAD PUSH2 0xA1 SWAP2 SWAP1 PUSH2 0x5B2 JUMP JUMPDEST PUSH1 0x40 MLOAD DUP1 SWAP2 SUB SWAP1 RETURN JUMPDEST CALLVALUE DUP1 ISZERO PUSH2 0xB5 JUMPI PUSH0 DUP1 REVERT JUMPDEST POP PUSH2 0xBE PUSH2 0x330 JUMP JUMPDEST PUSH1 0x40 MLOAD PUSH2 0xCB SWAP2 SWAP1 PUSH2 0x5B2 JUMP JUMPDEST PUSH1 0x40 MLOAD DUP1 SWAP2 SUB SWAP1 RETURN JUMPDEST CALLVALUE DUP1 ISZERO PUSH2 0xDF JUMPI PUSH0 DUP1 REVERT JUMPDEST POP PUSH2 0xE8 PUSH2 0x33C JUMP JUMPDEST PUSH1 0x40 MLOAD PUSH2 0xF5 SWAP2 SWAP1 PUSH2 0x5DA JUMP JUMPDEST PUSH1 0x40 MLOAD DUP1 SWAP2 SUB SWAP1 RETURN JUMPDEST CALLVALUE DUP1 ISZERO PUSH2 0x109 JUMPI PUSH0 DUP1 REVERT JUMPDEST POP PUSH2 0x124 PUSH1 0x4 DUP1 CALLDATASIZE SUB DUP2 ADD SWAP1 PUSH2 0x11F SWAP2 SWAP1 PUSH2 0x61D JUMP JUMPDEST PUSH2 0x361 JUMP JUMPDEST PUSH1 0x40 MLOAD PUSH2 0x131 SWAP2 SWAP1 PUSH2 0x5DA JUMP JUMPDEST PUSH1 0x40 MLOAD DUP1 SWAP2 SUB SWAP1 RETURN JUMPDEST PUSH2 0x142 PUSH2 0x39B JUMP JUMPDEST STOP JUMPDEST PUSH1 0x2 PUSH0 SWAP1 SLOAD SWAP1 PUSH2 0x100 EXP SWAP1 DIV PUSH20 0xFFFFFFFFFFFFFFFFFFFFFFFFFFFFFFFFFFFFFFFF AND PUSH20 0xFFFFFFFFFFFFFFFFFFFFFFFFFFFFFFFFFFFFFFFF AND CALLER PUSH20 0xFFFFFFFFFFFFFFFFFFFFFFFFFFFFFFFFFFFFFFFF AND EQ PUSH2 0x1D3 JUMPI PUSH1 0x40 MLOAD PUSH32 0x8C379A000000000000000000000000000000000000000000000000000000000 DUP2 MSTORE PUSH1 0x4 ADD PUSH2 0x1CA SWAP1 PUSH2 0x6A2 JUMP JUMPDEST PUSH1 0x40 MLOAD DUP1 SWAP2 SUB SWAP1 REVERT JUMPDEST PUSH0 JUMPDEST PUSH0 DUP1 SLOAD SWAP1 POP DUP2 LT ISZERO PUSH2 0x26F JUMPI PUSH0 DUP1 DUP3 DUP2 SLOAD DUP2 LT PUSH2 0x1F5 JUMPI PUSH2 0x1F4 PUSH2 0x6C0 JUMP JUMPDEST JUMPDEST SWAP1 PUSH0 MSTORE PUSH1 0x20 PUSH0 KECCAK256 ADD PUSH0 SWAP1 SLOAD SWAP1 PUSH2 0x100 EXP SWAP1 DIV PUSH20 0xFFFFFFFFFFFFFFFFFFFFFFFFFFFFFFFFFFFFFFFF AND SWAP1 POP PUSH0 PUSH1 0x1 PUSH0 DUP4 PUSH20 0xFFFFFFFFFFFFFFFFFFFFFFFFFFFFFFFFFFFFFFFF AND PUSH20 0xFFFFFFFFFFFFFFFFFFFFFFFFFFFFFFFFFFFFFFFF AND DUP2 MSTORE PUSH1 0x20 ADD SWAP1 DUP2 MSTORE PUSH1 0x20 ADD PUSH0 KECCAK256 DUP2 SWAP1 SSTORE POP POP DUP1 DUP1 PUSH1 0x1 ADD SWAP2 POP POP PUSH2 0x1D5 JUMP JUMPDEST POP PUSH0 CALLER PUSH20 0xFFFFFFFFFFFFFFFFFFFFFFFFFFFFFFFFFFFFFFFF AND SELFBALANCE PUSH1 0x40 MLOAD PUSH2 0x295 SWAP1 PUSH2 0x71A JUMP JUMPDEST PUSH0 PUSH1 0x40 MLOAD DUP1 DUP4 SUB DUP2 DUP6 DUP8 GAS CALL SWAP3 POP POP POP RETURNDATASIZE DUP1 PUSH0 DUP2 EQ PUSH2 0x2CF JUMPI PUSH1 0x40 MLOAD SWAP2 POP PUSH1 0x1F NOT PUSH1 0x3F RETURNDATASIZE ADD AND DUP3 ADD PUSH1 0x40 MSTORE RETURNDATASIZE DUP3 MSTORE RETURNDATASIZE PUSH0 PUSH1 0x20 DUP5 ADD RETURNDATACOPY PUSH2 0x2D4 JUMP JUMPDEST PUSH1 0x60 SWAP2 POP JUMPDEST POP POP SWAP1 POP DUP1 PUSH2 0x318 JUMPI PUSH1 0x40 MLOAD PUSH32 0x8C379A000000000000000000000000000000000000000000000000000000000 DUP2 MSTORE PUSH1 0x4 ADD PUSH2 0x30F SWAP1 PUSH2 0x778 JUMP JUMPDEST PUSH1 0x40 MLOAD DUP1 SWAP2 SUB SWAP1 REVERT JUMPDEST POP JUMP JUMPDEST PUSH1 0x1 PUSH1 0x20 MSTORE DUP1 PUSH0 MSTORE PUSH1 0x40 PUSH0 KECCAK256 PUSH0 SWAP2 POP SWAP1 POP SLOAD DUP2 JUMP JUMPDEST PUSH8 0x4563918244F40000 DUP2 JUMP JUMPDEST PUSH1 0x2 PUSH0 SWAP1 SLOAD SWAP1 PUSH2 0x100 EXP SWAP1 DIV PUSH20 0xFFFFFFFFFFFFFFFFFFFFFFFFFFFFFFFFFFFFFFFF AND DUP2 JUMP JUMPDEST PUSH0 DUP2 DUP2 SLOAD DUP2 LT PUSH2 0x36F JUMPI PUSH0 DUP1 REVERT JUMPDEST SWAP1 PUSH0 MSTORE PUSH1 0x20 PUSH0 KECCAK256 ADD PUSH0 SWAP2 POP SLOAD SWAP1 PUSH2 0x100 EXP SWAP1 DIV PUSH20 0xFFFFFFFFFFFFFFFFFFFFFFFFFFFFFFFFFFFFFFFF AND DUP2 JUMP JUMPDEST PUSH8 0x4563918244F40000 CALLVALUE PUSH20 0x0 PUSH4 0x47ABED7 SWAP1 SWAP2 PUSH1 0x40 MLOAD DUP3 PUSH4 0xFFFFFFFF AND PUSH1 0xE0 SHL DUP2 MSTORE PUSH1 0x4 ADD PUSH2 0x3DD SWAP2 SWAP1 PUSH2 0x7A5 JUMP JUMPDEST PUSH1 0x20 PUSH1 0x40 MLOAD DUP1 DUP4 SUB DUP2 DUP7 GAS DELEGATECALL ISZERO DUP1 ISZERO PUSH2 0x3F8 JUMPI RETURNDATASIZE PUSH0 DUP1 RETURNDATACOPY RETURNDATASIZE PUSH0 REVERT JUMPDEST POP POP POP POP PUSH1 0x40 MLOAD RETURNDATASIZE PUSH1 0x1F NOT PUSH1 0x1F DUP3 ADD AND DUP3 ADD DUP1 PUSH1 0x40 MSTORE POP DUP2 ADD SWAP1 PUSH2 0x41C SWAP2 SWAP1 PUSH2 0x7D2 JUMP JUMPDEST LT ISZERO PUSH2 0x45D JUMPI PUSH1 0x40 MLOAD PUSH32 0x8C379A000000000000000000000000000000000000000000000000000000000 DUP2 MSTORE PUSH1 0x4 ADD PUSH2 0x454 SWAP1 PUSH2 0x847 JUMP JUMPDEST PUSH1 0x40 MLOAD DUP1 SWAP2 SUB SWAP1 REVERT JUMPDEST PUSH0 CALLER SWAP1 DUP1 PUSH1 0x1 DUP2 SLOAD ADD DUP1 DUP3 SSTORE DUP1 SWAP2 POP POP PUSH1 0x1 SWAP1 SUB SWAP1 PUSH0 MSTORE PUSH1 0x20 PUSH0 KECCAK256 ADD PUSH0 SWAP1 SWAP2 SWAP1 SWAP2 SWAP1 SWAP2 PUSH2 0x100 EXP DUP2 SLOAD DUP2 PUSH20 0xFFFFFFFFFFFFFFFFFFFFFFFFFFFFFFFFFFFFFFFF MUL NOT AND SWAP1 DUP4 PUSH20 0xFFFFFFFFFFFFFFFFFFFFFFFFFFFFFFFFFFFFFFFF AND MUL OR SWAP1 SSTORE POP CALLVALUE PUSH1 0x1 PUSH0 CALLER PUSH20 0xFFFFFFFFFFFFFFFFFFFFFFFFFFFFFFFFFFFFFFFF AND PUSH20 0xFFFFFFFFFFFFFFFFFFFFFFFFFFFFFFFFFFFFFFFF AND DUP2 MSTORE PUSH1 0x20 ADD SWAP1 DUP2 MSTORE PUSH1 0x20 ADD PUSH0 KECCAK256 PUSH0 DUP3 DUP3 SLOAD PUSH2 0x508 SWAP2 SWAP1 PUSH2 0x892 JUMP JUMPDEST SWAP3 POP POP DUP2 SWAP1 SSTORE POP JUMP JUMPDEST PUSH0 DUP1 REVERT JUMPDEST PUSH0 PUSH20 0xFFFFFFFFFFFFFFFFFFFFFFFFFFFFFFFFFFFFFFFF DUP3 AND SWAP1 POP SWAP2 SWAP1 POP JUMP JUMPDEST PUSH0 PUSH2 0x53E DUP3 PUSH2 0x515 JUMP JUMPDEST SWAP1 POP SWAP2 SWAP1 POP JUMP JUMPDEST PUSH2 0x54E DUP2 PUSH2 0x534 JUMP JUMPDEST DUP2 EQ PUSH2 0x558 JUMPI PUSH0 DUP1 REVERT JUMPDEST POP JUMP JUMPDEST PUSH0 DUP2 CALLDATALOAD SWAP1 POP PUSH2 0x569 DUP2 PUSH2 0x545 JUMP JUMPDEST SWAP3 SWAP2 POP POP JUMP JUMPDEST PUSH0 PUSH1 0x20 DUP3 DUP5 SUB SLT ISZERO PUSH2 0x584 JUMPI PUSH2 0x583 PUSH2 0x511 JUMP JUMPDEST JUMPDEST PUSH0 PUSH2 0x591 DUP5 DUP3 DUP6 ADD PUSH2 0x55B JUMP JUMPDEST SWAP2 POP POP SWAP3 SWAP2 POP POP JUMP JUMPDEST PUSH0 DUP2 SWAP1 POP SWAP2 SWAP1 POP JUMP JUMPDEST PUSH2 0x5AC DUP2 PUSH2 0x59A JUMP JUMPDEST DUP3 MSTORE POP POP JUMP JUMPDEST PUSH0 PUSH1 0x20 DUP3 ADD SWAP1 POP PUSH2 0x5C5 PUSH0 DUP4 ADD DUP5 PUSH2 0x5A3 JUMP JUMPDEST SWAP3 SWAP2 POP POP JUMP JUMPDEST PUSH2 0x5D4 DUP2 PUSH2 0x534 JUMP JUMPDEST DUP3 MSTORE POP POP JUMP JUMPDEST PUSH0 PUSH1 0x20 DUP3 ADD SWAP1 POP PUSH2 0x5ED PUSH0 DUP4 ADD DUP5 PUSH2 0x5CB JUMP JUMPDEST SWAP3 SWAP2 POP POP JUMP JUMPDEST PUSH2 0x5FC DUP2 PUSH2 0x59A JUMP JUMPDEST DUP2 EQ PUSH2 0x606 JUMPI PUSH0 DUP1 REVERT JUMPDEST POP JUMP JUMPDEST PUSH0 DUP2 CALLDATALOAD SWAP1 POP PUSH2 0x617 DUP2 PUSH2 0x5F3 JUMP JUMPDEST SWAP3 SWAP2 POP POP JUMP JUMPDEST PUSH0 PUSH1 0x20 DUP3 DUP5 SUB SLT ISZERO PUSH2 0x632 JUMPI PUSH2 0x631 PUSH2 0x511 JUMP JUMPDEST JUMPDEST PUSH0 PUSH2 0x63F DUP5 DUP3 DUP6 ADD PUSH2 0x609 JUMP JUMPDEST SWAP2 POP POP SWAP3 SWAP2 POP POP JUMP JUMPDEST PUSH0 DUP3 DUP3 MSTORE PUSH1 0x20 DUP3 ADD SWAP1 POP SWAP3 SWAP2 POP POP JUMP JUMPDEST PUSH32 0x6D737420626520746865206F776E657200000000000000000000000000000000 PUSH0 DUP3 ADD MSTORE POP JUMP JUMPDEST PUSH0 PUSH2 0x68C PUSH1 0x10 DUP4 PUSH2 0x648 JUMP JUMPDEST SWAP2 POP PUSH2 0x697 DUP3 PUSH2 0x658 JUMP JUMPDEST PUSH1 0x20 DUP3 ADD SWAP1 POP SWAP2 SWAP1 POP JUMP JUMPDEST PUSH0 PUSH1 0x20 DUP3 ADD SWAP1 POP DUP2 DUP2 SUB PUSH0 DUP4 ADD MSTORE PUSH2 0x6B9 DUP2 PUSH2 0x680 JUMP JUMPDEST SWAP1 POP SWAP2 SWAP1 POP JUMP JUMPDEST PUSH32 0x4E487B7100000000000000000000000000000000000000000000000000000000 PUSH0 MSTORE PUSH1 0x32 PUSH1 0x4 MSTORE PUSH1 0x24 PUSH0 REVERT JUMPDEST PUSH0 DUP2 SWAP1 POP SWAP3 SWAP2 POP POP JUMP JUMPDEST POP JUMP JUMPDEST PUSH0 PUSH2 0x705 PUSH0 DUP4 PUSH2 0x6ED JUMP JUMPDEST SWAP2 POP PUSH2 0x710 DUP3 PUSH2 0x6F7 JUMP JUMPDEST PUSH0 DUP3 ADD SWAP1 POP SWAP2 SWAP1 POP JUMP JUMPDEST PUSH0 PUSH2 0x724 DUP3 PUSH2 0x6FA JUMP JUMPDEST SWAP2 POP DUP2 SWAP1 POP SWAP2 SWAP1 POP JUMP JUMPDEST PUSH32 0x43616C6C206661696C6564000000000000000000000000000000000000000000 PUSH0 DUP3 ADD MSTORE POP JUMP JUMPDEST PUSH0 PUSH2 0x762 PUSH1 0xB DUP4 PUSH2 0x648 JUMP JUMPDEST SWAP2 POP PUSH2 0x76D DUP3 PUSH2 0x72E JUMP JUMPDEST PUSH1 0x20 DUP3 ADD SWAP1 POP SWAP2 SWAP1 POP JUMP JUMPDEST PUSH0 PUSH1 0x20 DUP3 ADD SWAP1 POP DUP2 DUP2 SUB PUSH0 DUP4 ADD MSTORE PUSH2 0x78F DUP2 PUSH2 0x756 JUMP JUMPDEST SWAP1 POP SWAP2 SWAP1 POP JUMP JUMPDEST PUSH2 0x79F DUP2 PUSH2 0x59A JUMP JUMPDEST DUP3 MSTORE POP POP JUMP JUMPDEST PUSH0 PUSH1 0x20 DUP3 ADD SWAP1 POP PUSH2 0x7B8 PUSH0 DUP4 ADD DUP5 PUSH2 0x796 JUMP JUMPDEST SWAP3 SWAP2 POP POP JUMP JUMPDEST PUSH0 DUP2 MLOAD SWAP1 POP PUSH2 0x7CC DUP2 PUSH2 0x5F3 JUMP JUMPDEST SWAP3 SWAP2 POP POP JUMP JUMPDEST PUSH0 PUSH1 0x20 DUP3 DUP5 SUB SLT ISZERO PUSH2 0x7E7 JUMPI PUSH2 0x7E6 PUSH2 0x511 JUMP JUMPDEST JUMPDEST PUSH0 PUSH2 0x7F4 DUP5 DUP3 DUP6 ADD PUSH2 0x7BE JUMP JUMPDEST SWAP2 POP POP SWAP3 SWAP2 POP POP JUMP JUMPDEST PUSH32 0x4469646E27742073656E6420656E6F7567682045544800000000000000000000 PUSH0 DUP3 ADD MSTORE POP JUMP JUMPDEST PUSH0 PUSH2 0x831 PUSH1 0x16 DUP4 PUSH2 0x648 JUMP JUMPDEST SWAP2 POP PUSH2 0x83C DUP3 PUSH2 0x7FD JUMP JUMPDEST PUSH1 0x20 DUP3 ADD SWAP1 POP SWAP2 SWAP1 POP JUMP JUMPDEST PUSH0 PUSH1 0x20 DUP3 ADD SWAP1 POP DUP2 DUP2 SUB PUSH0 DUP4 ADD MSTORE PUSH2 0x85E DUP2 PUSH2 0x825 JUMP JUMPDEST SWAP1 POP SWAP2 SWAP1 POP JUMP JUMPDEST PUSH32 0x4E487B7100000000000000000000000000000000000000000000000000000000 PUSH0 MSTORE PUSH1 0x11 PUSH1 0x4 MSTORE PUSH1 0x24 PUSH0 REVERT JUMPDEST PUSH0 PUSH2 0x89C DUP3 PUSH2 0x59A JUMP JUMPDEST SWAP2 POP PUSH2 0x8A7 DUP4 PUSH2 0x59A JUMP JUMPDEST SWAP3 POP DUP3 DUP3 ADD SWAP1 POP DUP1 DUP3 GT ISZERO PUSH2 0x8BF JUMPI PUSH2 0x8BE PUSH2 0x865 JUMP JUMPDEST JUMPDEST SWAP3 SWAP2 POP POP JUMP INVALID LOG2 PUSH5 0x6970667358 0x22 SLT KECCAK256 0xF7 0xC0 0xBA DUP14 POP 0xDA 0xB2 0xF 0xB1 0xC1 PUSH32 0xA6EDC482053E7A71D0F0A7D4D5CE085AF7A15F923D64736F6C634300081A0033 "
				},
				"gasEstimates": {
					"creation": {
						"codeDepositCost": "459800",
						"executionCost": "24756",
						"totalCost": "484556"
					},
					"external": {
						"MINIMUM_USD()": "347",
						"addressToAmountFunded(address)": "2802",
						"fund()": "infinite",
						"fundersAddress(uint256)": "5009",
						"owner()": "2552",
						"withdraw()": "infinite"
					}
				},
				"methodIdentifiers": {
					"MINIMUM_USD()": "6b69a592",
					"addressToAmountFunded(address)": "3e47d6f3",
					"fund()": "b60d4288",
					"fundersAddress(uint256)": "acb0049c",
					"owner()": "8da5cb5b",
					"withdraw()": "3ccfd60b"
				}
			},
			"storageLayout": {
				"storage": [
					{
						"astId": 113,
						"contract": "Contracts/fundMe.sol:fundMe",
						"label": "fundersAddress",
						"offset": 0,
						"slot": "0",
						"type": "t_array(t_address)dyn_storage"
					},
					{
						"astId": 117,
						"contract": "Contracts/fundMe.sol:fundMe",
						"label": "addressToAmountFunded",
						"offset": 0,
						"slot": "1",
						"type": "t_mapping(t_address,t_uint256)"
					},
					{
						"astId": 119,
						"contract": "Contracts/fundMe.sol:fundMe",
						"label": "owner",
						"offset": 0,
						"slot": "2",
						"type": "t_address"
					}
				],
				"types": {
					"t_address": {
						"encoding": "inplace",
						"label": "address",
						"numberOfBytes": "20"
					},
					"t_array(t_address)dyn_storage": {
						"base": "t_address",
						"encoding": "dynamic_array",
						"label": "address[]",
						"numberOfBytes": "32"
					},
					"t_mapping(t_address,t_uint256)": {
						"encoding": "mapping",
						"key": "t_address",
						"label": "mapping(address => uint256)",
						"numberOfBytes": "32",
						"value": "t_uint256"
					},
					"t_uint256": {
						"encoding": "inplace",
						"label": "uint256",
						"numberOfBytes": "32"
					}
				}
			},
			"userdoc": {
				"kind": "user",
				"methods": {},
				"version": 1
			}
		}
	}
}