{
	"Contracts/fundMe.sol": {
		"fundMe": {
			"abi": [
				{
					"inputs": [
						{
							"internalType": "address",
							"name": "funderAddress",
							"type": "address"
						}
					],
					"name": "addressToAmountFunded",
					"outputs": [
						{
							"internalType": "uint256",
							"name": "amountFunded",
							"type": "uint256"
						}
					],
					"stateMutability": "view",
					"type": "function"
				},
				{
					"inputs": [],
					"name": "fund",
					"outputs": [],
					"stateMutability": "payable",
					"type": "function"
				},
				{
					"inputs": [
						{
							"internalType": "uint256",
							"name": "",
							"type": "uint256"
						}
					],
					"name": "funderAddress",
					"outputs": [
						{
							"internalType": "address",
							"name": "",
							"type": "address"
						}
					],
					"stateMutability": "view",
					"type": "function"
				},
				{
					"inputs": [
						{
							"internalType": "uint256",
							"name": "ethAmount",
							"type": "uint256"
						}
					],
					"name": "getConversion",
					"outputs": [
						{
							"internalType": "uint256",
							"name": "",
							"type": "uint256"
						}
					],
					"stateMutability": "view",
					"type": "function"
				},
				{
					"inputs": [],
					"name": "getPriceOfEth",
					"outputs": [
						{
							"internalType": "uint256",
							"name": "",
							"type": "uint256"
						}
					],
					"stateMutability": "view",
					"type": "function"
				},
				{
					"inputs": [],
					"name": "miniUSD",
					"outputs": [
						{
							"internalType": "uint256",
							"name": "",
							"type": "uint256"
						}
					],
					"stateMutability": "view",
					"type": "function"
				}
			],
			"devdoc": {
				"kind": "dev",
				"methods": {},
				"version": 1
			},
			"evm": {
				"assembly": "    /* \"Contracts/fundMe.sol\":179:1110  contract fundMe {... */\n  mstore(0x40, 0x80)\n    /* \"Contracts/fundMe.sol\":229:233  5e18 */\n  0x4563918244f40000\n    /* \"Contracts/fundMe.sol\":204:233  uint256 public miniUSD = 5e18 */\n  0x00\n  sstore\n    /* \"Contracts/fundMe.sol\":179:1110  contract fundMe {... */\n  callvalue\n  dup1\n  iszero\n  tag_1\n  jumpi\n  0x00\n  dup1\n  revert\ntag_1:\n  pop\n  dataSize(sub_0)\n  dup1\n  dataOffset(sub_0)\n  0x00\n  codecopy\n  0x00\n  return\nstop\n\nsub_0: assembly {\n        /* \"Contracts/fundMe.sol\":179:1110  contract fundMe {... */\n      mstore(0x40, 0x80)\n      jumpi(tag_1, lt(calldatasize, 0x04))\n      shr(0xe0, calldataload(0x00))\n      dup1\n      0x047abed7\n      eq\n      tag_2\n      jumpi\n      dup1\n      0x3e47d6f3\n      eq\n      tag_3\n      jumpi\n      dup1\n      0x45ba6997\n      eq\n      tag_4\n      jumpi\n      dup1\n      0x5bbe8ef1\n      eq\n      tag_5\n      jumpi\n      dup1\n      0x73cef391\n      eq\n      tag_6\n      jumpi\n      dup1\n      0xb60d4288\n      eq\n      tag_7\n      jumpi\n    tag_1:\n      0x00\n      dup1\n      revert\n        /* \"Contracts/fundMe.sol\":882:1105  function getConversion (uint256 ethAmount) public view returns(uint256) {... */\n    tag_2:\n      callvalue\n      dup1\n      iszero\n      tag_8\n      jumpi\n      0x00\n      dup1\n      revert\n    tag_8:\n      pop\n      tag_9\n      0x04\n      dup1\n      calldatasize\n      sub\n      dup2\n      add\n      swap1\n      tag_10\n      swap2\n      swap1\n      tag_11\n      jump\t// in\n    tag_10:\n      tag_12\n      jump\t// in\n    tag_9:\n      mload(0x40)\n      tag_13\n      swap2\n      swap1\n      tag_14\n      jump\t// in\n    tag_13:\n      mload(0x40)\n      dup1\n      swap2\n      sub\n      swap1\n      return\n        /* \"Contracts/fundMe.sol\":282:365  mapping(address funderAddress => uint256 amountFunded) public addressToAmountFunded */\n    tag_3:\n      callvalue\n      dup1\n      iszero\n      tag_15\n      jumpi\n      0x00\n      dup1\n      revert\n    tag_15:\n      pop\n      tag_16\n      0x04\n      dup1\n      calldatasize\n      sub\n      dup2\n      add\n      swap1\n      tag_17\n      swap2\n      swap1\n      tag_18\n      jump\t// in\n    tag_17:\n      tag_19\n      jump\t// in\n    tag_16:\n      mload(0x40)\n      tag_20\n      swap2\n      swap1\n      tag_14\n      jump\t// in\n    tag_20:\n      mload(0x40)\n      dup1\n      swap2\n      sub\n      swap1\n      return\n        /* \"Contracts/fundMe.sol\":242:273  address[] public  funderAddress */\n    tag_4:\n      callvalue\n      dup1\n      iszero\n      tag_21\n      jumpi\n      0x00\n      dup1\n      revert\n    tag_21:\n      pop\n      tag_22\n      0x04\n      dup1\n      calldatasize\n      sub\n      dup2\n      add\n      swap1\n      tag_23\n      swap2\n      swap1\n      tag_11\n      jump\t// in\n    tag_23:\n      tag_24\n      jump\t// in\n    tag_22:\n      mload(0x40)\n      tag_25\n      swap2\n      swap1\n      tag_26\n      jump\t// in\n    tag_25:\n      mload(0x40)\n      dup1\n      swap2\n      sub\n      swap1\n      return\n        /* \"Contracts/fundMe.sol\":602:874  function getPriceOfEth () public view returns(uint256) {... */\n    tag_5:\n      callvalue\n      dup1\n      iszero\n      tag_27\n      jumpi\n      0x00\n      dup1\n      revert\n    tag_27:\n      pop\n      tag_28\n      tag_29\n      jump\t// in\n    tag_28:\n      mload(0x40)\n      tag_30\n      swap2\n      swap1\n      tag_14\n      jump\t// in\n    tag_30:\n      mload(0x40)\n      dup1\n      swap2\n      sub\n      swap1\n      return\n        /* \"Contracts/fundMe.sol\":204:233  uint256 public miniUSD = 5e18 */\n    tag_6:\n      callvalue\n      dup1\n      iszero\n      tag_31\n      jumpi\n      0x00\n      dup1\n      revert\n    tag_31:\n      pop\n      tag_32\n      tag_33\n      jump\t// in\n    tag_32:\n      mload(0x40)\n      tag_34\n      swap2\n      swap1\n      tag_14\n      jump\t// in\n    tag_34:\n      mload(0x40)\n      dup1\n      swap2\n      sub\n      swap1\n      return\n        /* \"Contracts/fundMe.sol\":374:594  function fund() public payable {... */\n    tag_7:\n      tag_35\n      tag_36\n      jump\t// in\n    tag_35:\n      stop\n        /* \"Contracts/fundMe.sol\":882:1105  function getConversion (uint256 ethAmount) public view returns(uint256) {... */\n    tag_12:\n        /* \"Contracts/fundMe.sol\":945:952  uint256 */\n      0x00\n        /* \"Contracts/fundMe.sol\":965:981  uint256 ethPrice */\n      dup1\n        /* \"Contracts/fundMe.sol\":984:999  getPriceOfEth() */\n      tag_38\n        /* \"Contracts/fundMe.sol\":984:997  getPriceOfEth */\n      tag_29\n        /* \"Contracts/fundMe.sol\":984:999  getPriceOfEth() */\n      jump\t// in\n    tag_38:\n        /* \"Contracts/fundMe.sol\":965:999  uint256 ethPrice = getPriceOfEth() */\n      swap1\n      pop\n        /* \"Contracts/fundMe.sol\":1010:1032  uint256 ethAmountInUSD */\n      0x00\n        /* \"Contracts/fundMe.sol\":1060:1064  1e18 */\n      0x0de0b6b3a7640000\n        /* \"Contracts/fundMe.sol\":1048:1056  ethPrice */\n      dup3\n        /* \"Contracts/fundMe.sol\":1036:1045  ethAmount */\n      dup6\n        /* \"Contracts/fundMe.sol\":1036:1056  ethAmount * ethPrice */\n      tag_39\n      swap2\n      swap1\n      tag_40\n      jump\t// in\n    tag_39:\n        /* \"Contracts/fundMe.sol\":1035:1064  (ethAmount * ethPrice) / 1e18 */\n      tag_41\n      swap2\n      swap1\n      tag_42\n      jump\t// in\n    tag_41:\n        /* \"Contracts/fundMe.sol\":1010:1064  uint256 ethAmountInUSD = (ethAmount * ethPrice) / 1e18 */\n      swap1\n      pop\n        /* \"Contracts/fundMe.sol\":1083:1097  ethAmountInUSD */\n      dup1\n        /* \"Contracts/fundMe.sol\":1075:1097  return  ethAmountInUSD */\n      swap3\n      pop\n      pop\n      pop\n        /* \"Contracts/fundMe.sol\":882:1105  function getConversion (uint256 ethAmount) public view returns(uint256) {... */\n      swap2\n      swap1\n      pop\n      jump\t// out\n        /* \"Contracts/fundMe.sol\":282:365  mapping(address funderAddress => uint256 amountFunded) public addressToAmountFunded */\n    tag_19:\n      mstore(0x20, 0x02)\n      dup1\n      0x00\n      mstore\n      keccak256(0x00, 0x40)\n      0x00\n      swap2\n      pop\n      swap1\n      pop\n      sload\n      dup2\n      jump\t// out\n        /* \"Contracts/fundMe.sol\":242:273  address[] public  funderAddress */\n    tag_24:\n      0x01\n      dup2\n      dup2\n      sload\n      dup2\n      lt\n      tag_43\n      jumpi\n      0x00\n      dup1\n      revert\n    tag_43:\n      swap1\n      0x00\n      mstore\n      keccak256(0x00, 0x20)\n      add\n      0x00\n      swap2\n      pop\n      sload\n      swap1\n      0x0100\n      exp\n      swap1\n      div\n      0xffffffffffffffffffffffffffffffffffffffff\n      and\n      dup2\n      jump\t// out\n        /* \"Contracts/fundMe.sol\":602:874  function getPriceOfEth () public view returns(uint256) {... */\n    tag_29:\n        /* \"Contracts/fundMe.sol\":648:655  uint256 */\n      0x00\n        /* \"Contracts/fundMe.sol\":667:698  AggregatorV3Interface priceFeed */\n      dup1\n        /* \"Contracts/fundMe.sol\":723:765  0x694AA1769357215DE4FAC081bf1f309aDC325306 */\n      0x694aa1769357215de4fac081bf1f309adc325306\n        /* \"Contracts/fundMe.sol\":667:766  AggregatorV3Interface priceFeed = AggregatorV3Interface(0x694AA1769357215DE4FAC081bf1f309aDC325306) */\n      swap1\n      pop\n        /* \"Contracts/fundMe.sol\":779:791  int256 price */\n      0x00\n        /* \"Contracts/fundMe.sol\":798:807  priceFeed */\n      dup2\n        /* \"Contracts/fundMe.sol\":798:823  priceFeed.latestRoundData */\n      0xffffffffffffffffffffffffffffffffffffffff\n      and\n      0xfeaf968c\n        /* \"Contracts/fundMe.sol\":798:825  priceFeed.latestRoundData() */\n      mload(0x40)\n      dup2\n      0xffffffff\n      and\n      0xe0\n      shl\n      dup2\n      mstore\n      0x04\n      add\n      0xa0\n      mload(0x40)\n      dup1\n      dup4\n      sub\n      dup2\n      dup7\n      gas\n      staticcall\n      iszero\n      dup1\n      iszero\n      tag_47\n      jumpi\n      returndatasize\n      0x00\n      dup1\n      returndatacopy\n      revert(0x00, returndatasize)\n    tag_47:\n      pop\n      pop\n      pop\n      pop\n      mload(0x40)\n      returndatasize\n      not(0x1f)\n      0x1f\n      dup3\n      add\n      and\n      dup3\n      add\n      dup1\n      0x40\n      mstore\n      pop\n      dup2\n      add\n      swap1\n      tag_48\n      swap2\n      swap1\n      tag_49\n      jump\t// in\n    tag_48:\n        /* \"Contracts/fundMe.sol\":777:825  (,int256 price,,,) = priceFeed.latestRoundData() */\n      pop\n      pop\n      pop\n      swap2\n      pop\n      pop\n        /* \"Contracts/fundMe.sol\":861:865  1e10 */\n      0x02540be400\n        /* \"Contracts/fundMe.sol\":853:858  price */\n      dup2\n        /* \"Contracts/fundMe.sol\":853:865  price * 1e10 */\n      tag_50\n      swap2\n      swap1\n      tag_51\n      jump\t// in\n    tag_50:\n        /* \"Contracts/fundMe.sol\":838:866  return uint256(price * 1e10) */\n      swap3\n      pop\n      pop\n      pop\n        /* \"Contracts/fundMe.sol\":602:874  function getPriceOfEth () public view returns(uint256) {... */\n      swap1\n      jump\t// out\n        /* \"Contracts/fundMe.sol\":204:233  uint256 public miniUSD = 5e18 */\n    tag_33:\n      sload(0x00)\n      dup2\n      jump\t// out\n        /* \"Contracts/fundMe.sol\":374:594  function fund() public payable {... */\n    tag_36:\n        /* \"Contracts/fundMe.sol\":454:461  miniUSD */\n      sload(0x00)\n        /* \"Contracts/fundMe.sol\":426:450  getConversion(msg.value) */\n      tag_53\n        /* \"Contracts/fundMe.sol\":440:449  msg.value */\n      callvalue\n        /* \"Contracts/fundMe.sol\":426:439  getConversion */\n      tag_12\n        /* \"Contracts/fundMe.sol\":426:450  getConversion(msg.value) */\n      jump\t// in\n    tag_53:\n        /* \"Contracts/fundMe.sol\":426:461  getConversion(msg.value) >= miniUSD */\n      lt\n      iszero\n        /* \"Contracts/fundMe.sol\":418:488  require(getConversion(msg.value) >= miniUSD, \"Didn't send enough ETH\") */\n      tag_54\n      jumpi\n      mload(0x40)\n      0x08c379a000000000000000000000000000000000000000000000000000000000\n      dup2\n      mstore\n      0x04\n      add\n      tag_55\n      swap1\n      tag_56\n      jump\t// in\n    tag_55:\n      mload(0x40)\n      dup1\n      swap2\n      sub\n      swap1\n      revert\n    tag_54:\n        /* \"Contracts/fundMe.sol\":499:512  funderAddress */\n      0x01\n        /* \"Contracts/fundMe.sol\":518:528  msg.sender */\n      caller\n        /* \"Contracts/fundMe.sol\":499:529  funderAddress.push(msg.sender) */\n      swap1\n      dup1\n      0x01\n      dup2\n      sload\n      add\n      dup1\n      dup3\n      sstore\n      dup1\n      swap2\n      pop\n      pop\n      0x01\n      swap1\n      sub\n      swap1\n      0x00\n      mstore\n      keccak256(0x00, 0x20)\n      add\n      0x00\n      swap1\n      swap2\n      swap1\n      swap2\n      swap1\n      swap2\n      0x0100\n      exp\n      dup2\n      sload\n      dup2\n      0xffffffffffffffffffffffffffffffffffffffff\n      mul\n      not\n      and\n      swap1\n      dup4\n      0xffffffffffffffffffffffffffffffffffffffff\n      and\n      mul\n      or\n      swap1\n      sstore\n      pop\n        /* \"Contracts/fundMe.sol\":577:586  msg.value */\n      callvalue\n        /* \"Contracts/fundMe.sol\":540:561  addressToAmountFunded */\n      0x02\n        /* \"Contracts/fundMe.sol\":540:573  addressToAmountFunded[msg.sender] */\n      0x00\n        /* \"Contracts/fundMe.sol\":562:572  msg.sender */\n      caller\n        /* \"Contracts/fundMe.sol\":540:573  addressToAmountFunded[msg.sender] */\n      0xffffffffffffffffffffffffffffffffffffffff\n      and\n      0xffffffffffffffffffffffffffffffffffffffff\n      and\n      dup2\n      mstore\n      0x20\n      add\n      swap1\n      dup2\n      mstore\n      0x20\n      add\n      0x00\n      keccak256\n      0x00\n        /* \"Contracts/fundMe.sol\":540:586  addressToAmountFunded[msg.sender] += msg.value */\n      dup3\n      dup3\n      sload\n      tag_58\n      swap2\n      swap1\n      tag_59\n      jump\t// in\n    tag_58:\n      swap3\n      pop\n      pop\n      dup2\n      swap1\n      sstore\n      pop\n        /* \"Contracts/fundMe.sol\":374:594  function fund() public payable {... */\n      jump\t// out\n        /* \"#utility.yul\":88:205   */\n    tag_61:\n        /* \"#utility.yul\":197:198   */\n      0x00\n        /* \"#utility.yul\":194:195   */\n      dup1\n        /* \"#utility.yul\":187:199   */\n      revert\n        /* \"#utility.yul\":334:411   */\n    tag_63:\n        /* \"#utility.yul\":371:378   */\n      0x00\n        /* \"#utility.yul\":400:405   */\n      dup2\n        /* \"#utility.yul\":389:405   */\n      swap1\n      pop\n        /* \"#utility.yul\":334:411   */\n      swap2\n      swap1\n      pop\n      jump\t// out\n        /* \"#utility.yul\":417:539   */\n    tag_64:\n        /* \"#utility.yul\":490:514   */\n      tag_90\n        /* \"#utility.yul\":508:513   */\n      dup2\n        /* \"#utility.yul\":490:514   */\n      tag_63\n      jump\t// in\n    tag_90:\n        /* \"#utility.yul\":483:488   */\n      dup2\n        /* \"#utility.yul\":480:515   */\n      eq\n        /* \"#utility.yul\":470:533   */\n      tag_91\n      jumpi\n        /* \"#utility.yul\":529:530   */\n      0x00\n        /* \"#utility.yul\":526:527   */\n      dup1\n        /* \"#utility.yul\":519:531   */\n      revert\n        /* \"#utility.yul\":470:533   */\n    tag_91:\n        /* \"#utility.yul\":417:539   */\n      pop\n      jump\t// out\n        /* \"#utility.yul\":545:684   */\n    tag_65:\n        /* \"#utility.yul\":591:596   */\n      0x00\n        /* \"#utility.yul\":629:635   */\n      dup2\n        /* \"#utility.yul\":616:636   */\n      calldataload\n        /* \"#utility.yul\":607:636   */\n      swap1\n      pop\n        /* \"#utility.yul\":645:678   */\n      tag_93\n        /* \"#utility.yul\":672:677   */\n      dup2\n        /* \"#utility.yul\":645:678   */\n      tag_64\n      jump\t// in\n    tag_93:\n        /* \"#utility.yul\":545:684   */\n      swap3\n      swap2\n      pop\n      pop\n      jump\t// out\n        /* \"#utility.yul\":690:1019   */\n    tag_11:\n        /* \"#utility.yul\":749:755   */\n      0x00\n        /* \"#utility.yul\":798:800   */\n      0x20\n        /* \"#utility.yul\":786:795   */\n      dup3\n        /* \"#utility.yul\":777:784   */\n      dup5\n        /* \"#utility.yul\":773:796   */\n      sub\n        /* \"#utility.yul\":769:801   */\n      slt\n        /* \"#utility.yul\":766:885   */\n      iszero\n      tag_95\n      jumpi\n        /* \"#utility.yul\":804:883   */\n      tag_96\n      tag_61\n      jump\t// in\n    tag_96:\n        /* \"#utility.yul\":766:885   */\n    tag_95:\n        /* \"#utility.yul\":924:925   */\n      0x00\n        /* \"#utility.yul\":949:1002   */\n      tag_97\n        /* \"#utility.yul\":994:1001   */\n      dup5\n        /* \"#utility.yul\":985:991   */\n      dup3\n        /* \"#utility.yul\":974:983   */\n      dup6\n        /* \"#utility.yul\":970:992   */\n      add\n        /* \"#utility.yul\":949:1002   */\n      tag_65\n      jump\t// in\n    tag_97:\n        /* \"#utility.yul\":939:1002   */\n      swap2\n      pop\n        /* \"#utility.yul\":895:1012   */\n      pop\n        /* \"#utility.yul\":690:1019   */\n      swap3\n      swap2\n      pop\n      pop\n      jump\t// out\n        /* \"#utility.yul\":1025:1143   */\n    tag_66:\n        /* \"#utility.yul\":1112:1136   */\n      tag_99\n        /* \"#utility.yul\":1130:1135   */\n      dup2\n        /* \"#utility.yul\":1112:1136   */\n      tag_63\n      jump\t// in\n    tag_99:\n        /* \"#utility.yul\":1107:1110   */\n      dup3\n        /* \"#utility.yul\":1100:1137   */\n      mstore\n        /* \"#utility.yul\":1025:1143   */\n      pop\n      pop\n      jump\t// out\n        /* \"#utility.yul\":1149:1371   */\n    tag_14:\n        /* \"#utility.yul\":1242:1246   */\n      0x00\n        /* \"#utility.yul\":1280:1282   */\n      0x20\n        /* \"#utility.yul\":1269:1278   */\n      dup3\n        /* \"#utility.yul\":1265:1283   */\n      add\n        /* \"#utility.yul\":1257:1283   */\n      swap1\n      pop\n        /* \"#utility.yul\":1293:1364   */\n      tag_101\n        /* \"#utility.yul\":1361:1362   */\n      0x00\n        /* \"#utility.yul\":1350:1359   */\n      dup4\n        /* \"#utility.yul\":1346:1363   */\n      add\n        /* \"#utility.yul\":1337:1343   */\n      dup5\n        /* \"#utility.yul\":1293:1364   */\n      tag_66\n      jump\t// in\n    tag_101:\n        /* \"#utility.yul\":1149:1371   */\n      swap3\n      swap2\n      pop\n      pop\n      jump\t// out\n        /* \"#utility.yul\":1377:1503   */\n    tag_67:\n        /* \"#utility.yul\":1414:1421   */\n      0x00\n        /* \"#utility.yul\":1454:1496   */\n      0xffffffffffffffffffffffffffffffffffffffff\n        /* \"#utility.yul\":1447:1452   */\n      dup3\n        /* \"#utility.yul\":1443:1497   */\n      and\n        /* \"#utility.yul\":1432:1497   */\n      swap1\n      pop\n        /* \"#utility.yul\":1377:1503   */\n      swap2\n      swap1\n      pop\n      jump\t// out\n        /* \"#utility.yul\":1509:1605   */\n    tag_68:\n        /* \"#utility.yul\":1546:1553   */\n      0x00\n        /* \"#utility.yul\":1575:1599   */\n      tag_104\n        /* \"#utility.yul\":1593:1598   */\n      dup3\n        /* \"#utility.yul\":1575:1599   */\n      tag_67\n      jump\t// in\n    tag_104:\n        /* \"#utility.yul\":1564:1599   */\n      swap1\n      pop\n        /* \"#utility.yul\":1509:1605   */\n      swap2\n      swap1\n      pop\n      jump\t// out\n        /* \"#utility.yul\":1611:1733   */\n    tag_69:\n        /* \"#utility.yul\":1684:1708   */\n      tag_106\n        /* \"#utility.yul\":1702:1707   */\n      dup2\n        /* \"#utility.yul\":1684:1708   */\n      tag_68\n      jump\t// in\n    tag_106:\n        /* \"#utility.yul\":1677:1682   */\n      dup2\n        /* \"#utility.yul\":1674:1709   */\n      eq\n        /* \"#utility.yul\":1664:1727   */\n      tag_107\n      jumpi\n        /* \"#utility.yul\":1723:1724   */\n      0x00\n        /* \"#utility.yul\":1720:1721   */\n      dup1\n        /* \"#utility.yul\":1713:1725   */\n      revert\n        /* \"#utility.yul\":1664:1727   */\n    tag_107:\n        /* \"#utility.yul\":1611:1733   */\n      pop\n      jump\t// out\n        /* \"#utility.yul\":1739:1878   */\n    tag_70:\n        /* \"#utility.yul\":1785:1790   */\n      0x00\n        /* \"#utility.yul\":1823:1829   */\n      dup2\n        /* \"#utility.yul\":1810:1830   */\n      calldataload\n        /* \"#utility.yul\":1801:1830   */\n      swap1\n      pop\n        /* \"#utility.yul\":1839:1872   */\n      tag_109\n        /* \"#utility.yul\":1866:1871   */\n      dup2\n        /* \"#utility.yul\":1839:1872   */\n      tag_69\n      jump\t// in\n    tag_109:\n        /* \"#utility.yul\":1739:1878   */\n      swap3\n      swap2\n      pop\n      pop\n      jump\t// out\n        /* \"#utility.yul\":1884:2213   */\n    tag_18:\n        /* \"#utility.yul\":1943:1949   */\n      0x00\n        /* \"#utility.yul\":1992:1994   */\n      0x20\n        /* \"#utility.yul\":1980:1989   */\n      dup3\n        /* \"#utility.yul\":1971:1978   */\n      dup5\n        /* \"#utility.yul\":1967:1990   */\n      sub\n        /* \"#utility.yul\":1963:1995   */\n      slt\n        /* \"#utility.yul\":1960:2079   */\n      iszero\n      tag_111\n      jumpi\n        /* \"#utility.yul\":1998:2077   */\n      tag_112\n      tag_61\n      jump\t// in\n    tag_112:\n        /* \"#utility.yul\":1960:2079   */\n    tag_111:\n        /* \"#utility.yul\":2118:2119   */\n      0x00\n        /* \"#utility.yul\":2143:2196   */\n      tag_113\n        /* \"#utility.yul\":2188:2195   */\n      dup5\n        /* \"#utility.yul\":2179:2185   */\n      dup3\n        /* \"#utility.yul\":2168:2177   */\n      dup6\n        /* \"#utility.yul\":2164:2186   */\n      add\n        /* \"#utility.yul\":2143:2196   */\n      tag_70\n      jump\t// in\n    tag_113:\n        /* \"#utility.yul\":2133:2196   */\n      swap2\n      pop\n        /* \"#utility.yul\":2089:2206   */\n      pop\n        /* \"#utility.yul\":1884:2213   */\n      swap3\n      swap2\n      pop\n      pop\n      jump\t// out\n        /* \"#utility.yul\":2219:2337   */\n    tag_71:\n        /* \"#utility.yul\":2306:2330   */\n      tag_115\n        /* \"#utility.yul\":2324:2329   */\n      dup2\n        /* \"#utility.yul\":2306:2330   */\n      tag_68\n      jump\t// in\n    tag_115:\n        /* \"#utility.yul\":2301:2304   */\n      dup3\n        /* \"#utility.yul\":2294:2331   */\n      mstore\n        /* \"#utility.yul\":2219:2337   */\n      pop\n      pop\n      jump\t// out\n        /* \"#utility.yul\":2343:2565   */\n    tag_26:\n        /* \"#utility.yul\":2436:2440   */\n      0x00\n        /* \"#utility.yul\":2474:2476   */\n      0x20\n        /* \"#utility.yul\":2463:2472   */\n      dup3\n        /* \"#utility.yul\":2459:2477   */\n      add\n        /* \"#utility.yul\":2451:2477   */\n      swap1\n      pop\n        /* \"#utility.yul\":2487:2558   */\n      tag_117\n        /* \"#utility.yul\":2555:2556   */\n      0x00\n        /* \"#utility.yul\":2544:2553   */\n      dup4\n        /* \"#utility.yul\":2540:2557   */\n      add\n        /* \"#utility.yul\":2531:2537   */\n      dup5\n        /* \"#utility.yul\":2487:2558   */\n      tag_71\n      jump\t// in\n    tag_117:\n        /* \"#utility.yul\":2343:2565   */\n      swap3\n      swap2\n      pop\n      pop\n      jump\t// out\n        /* \"#utility.yul\":2571:2751   */\n    tag_72:\n        /* \"#utility.yul\":2619:2696   */\n      0x4e487b7100000000000000000000000000000000000000000000000000000000\n        /* \"#utility.yul\":2616:2617   */\n      0x00\n        /* \"#utility.yul\":2609:2697   */\n      mstore\n        /* \"#utility.yul\":2716:2720   */\n      0x11\n        /* \"#utility.yul\":2713:2714   */\n      0x04\n        /* \"#utility.yul\":2706:2721   */\n      mstore\n        /* \"#utility.yul\":2740:2744   */\n      0x24\n        /* \"#utility.yul\":2737:2738   */\n      0x00\n        /* \"#utility.yul\":2730:2745   */\n      revert\n        /* \"#utility.yul\":2757:3167   */\n    tag_40:\n        /* \"#utility.yul\":2797:2804   */\n      0x00\n        /* \"#utility.yul\":2820:2840   */\n      tag_120\n        /* \"#utility.yul\":2838:2839   */\n      dup3\n        /* \"#utility.yul\":2820:2840   */\n      tag_63\n      jump\t// in\n    tag_120:\n        /* \"#utility.yul\":2815:2840   */\n      swap2\n      pop\n        /* \"#utility.yul\":2854:2874   */\n      tag_121\n        /* \"#utility.yul\":2872:2873   */\n      dup4\n        /* \"#utility.yul\":2854:2874   */\n      tag_63\n      jump\t// in\n    tag_121:\n        /* \"#utility.yul\":2849:2874   */\n      swap3\n      pop\n        /* \"#utility.yul\":2909:2910   */\n      dup3\n        /* \"#utility.yul\":2906:2907   */\n      dup3\n        /* \"#utility.yul\":2902:2911   */\n      mul\n        /* \"#utility.yul\":2931:2961   */\n      tag_122\n        /* \"#utility.yul\":2949:2960   */\n      dup2\n        /* \"#utility.yul\":2931:2961   */\n      tag_63\n      jump\t// in\n    tag_122:\n        /* \"#utility.yul\":2920:2961   */\n      swap2\n      pop\n        /* \"#utility.yul\":3110:3111   */\n      dup3\n        /* \"#utility.yul\":3101:3108   */\n      dup3\n        /* \"#utility.yul\":3097:3112   */\n      div\n        /* \"#utility.yul\":3094:3095   */\n      dup5\n        /* \"#utility.yul\":3091:3113   */\n      eq\n        /* \"#utility.yul\":3071:3072   */\n      dup4\n        /* \"#utility.yul\":3064:3073   */\n      iszero\n        /* \"#utility.yul\":3044:3127   */\n      or\n        /* \"#utility.yul\":3021:3160   */\n      tag_123\n      jumpi\n        /* \"#utility.yul\":3140:3158   */\n      tag_124\n      tag_72\n      jump\t// in\n    tag_124:\n        /* \"#utility.yul\":3021:3160   */\n    tag_123:\n        /* \"#utility.yul\":2805:3167   */\n      pop\n        /* \"#utility.yul\":2757:3167   */\n      swap3\n      swap2\n      pop\n      pop\n      jump\t// out\n        /* \"#utility.yul\":3173:3353   */\n    tag_73:\n        /* \"#utility.yul\":3221:3298   */\n      0x4e487b7100000000000000000000000000000000000000000000000000000000\n        /* \"#utility.yul\":3218:3219   */\n      0x00\n        /* \"#utility.yul\":3211:3299   */\n      mstore\n        /* \"#utility.yul\":3318:3322   */\n      0x12\n        /* \"#utility.yul\":3315:3316   */\n      0x04\n        /* \"#utility.yul\":3308:3323   */\n      mstore\n        /* \"#utility.yul\":3342:3346   */\n      0x24\n        /* \"#utility.yul\":3339:3340   */\n      0x00\n        /* \"#utility.yul\":3332:3347   */\n      revert\n        /* \"#utility.yul\":3359:3544   */\n    tag_42:\n        /* \"#utility.yul\":3399:3400   */\n      0x00\n        /* \"#utility.yul\":3416:3436   */\n      tag_127\n        /* \"#utility.yul\":3434:3435   */\n      dup3\n        /* \"#utility.yul\":3416:3436   */\n      tag_63\n      jump\t// in\n    tag_127:\n        /* \"#utility.yul\":3411:3436   */\n      swap2\n      pop\n        /* \"#utility.yul\":3450:3470   */\n      tag_128\n        /* \"#utility.yul\":3468:3469   */\n      dup4\n        /* \"#utility.yul\":3450:3470   */\n      tag_63\n      jump\t// in\n    tag_128:\n        /* \"#utility.yul\":3445:3470   */\n      swap3\n      pop\n        /* \"#utility.yul\":3489:3490   */\n      dup3\n        /* \"#utility.yul\":3479:3514   */\n      tag_129\n      jumpi\n        /* \"#utility.yul\":3494:3512   */\n      tag_130\n      tag_73\n      jump\t// in\n    tag_130:\n        /* \"#utility.yul\":3479:3514   */\n    tag_129:\n        /* \"#utility.yul\":3536:3537   */\n      dup3\n        /* \"#utility.yul\":3533:3534   */\n      dup3\n        /* \"#utility.yul\":3529:3538   */\n      div\n        /* \"#utility.yul\":3524:3538   */\n      swap1\n      pop\n        /* \"#utility.yul\":3359:3544   */\n      swap3\n      swap2\n      pop\n      pop\n      jump\t// out\n        /* \"#utility.yul\":3550:3655   */\n    tag_74:\n        /* \"#utility.yul\":3586:3593   */\n      0x00\n        /* \"#utility.yul\":3626:3648   */\n      0xffffffffffffffffffff\n        /* \"#utility.yul\":3619:3624   */\n      dup3\n        /* \"#utility.yul\":3615:3649   */\n      and\n        /* \"#utility.yul\":3604:3649   */\n      swap1\n      pop\n        /* \"#utility.yul\":3550:3655   */\n      swap2\n      swap1\n      pop\n      jump\t// out\n        /* \"#utility.yul\":3661:3781   */\n    tag_75:\n        /* \"#utility.yul\":3733:3756   */\n      tag_133\n        /* \"#utility.yul\":3750:3755   */\n      dup2\n        /* \"#utility.yul\":3733:3756   */\n      tag_74\n      jump\t// in\n    tag_133:\n        /* \"#utility.yul\":3726:3731   */\n      dup2\n        /* \"#utility.yul\":3723:3757   */\n      eq\n        /* \"#utility.yul\":3713:3775   */\n      tag_134\n      jumpi\n        /* \"#utility.yul\":3771:3772   */\n      0x00\n        /* \"#utility.yul\":3768:3769   */\n      dup1\n        /* \"#utility.yul\":3761:3773   */\n      revert\n        /* \"#utility.yul\":3713:3775   */\n    tag_134:\n        /* \"#utility.yul\":3661:3781   */\n      pop\n      jump\t// out\n        /* \"#utility.yul\":3787:3928   */\n    tag_76:\n        /* \"#utility.yul\":3843:3848   */\n      0x00\n        /* \"#utility.yul\":3874:3880   */\n      dup2\n        /* \"#utility.yul\":3868:3881   */\n      mload\n        /* \"#utility.yul\":3859:3881   */\n      swap1\n      pop\n        /* \"#utility.yul\":3890:3922   */\n      tag_136\n        /* \"#utility.yul\":3916:3921   */\n      dup2\n        /* \"#utility.yul\":3890:3922   */\n      tag_75\n      jump\t// in\n    tag_136:\n        /* \"#utility.yul\":3787:3928   */\n      swap3\n      swap2\n      pop\n      pop\n      jump\t// out\n        /* \"#utility.yul\":3934:4010   */\n    tag_77:\n        /* \"#utility.yul\":3970:3977   */\n      0x00\n        /* \"#utility.yul\":3999:4004   */\n      dup2\n        /* \"#utility.yul\":3988:4004   */\n      swap1\n      pop\n        /* \"#utility.yul\":3934:4010   */\n      swap2\n      swap1\n      pop\n      jump\t// out\n        /* \"#utility.yul\":4016:4136   */\n    tag_78:\n        /* \"#utility.yul\":4088:4111   */\n      tag_139\n        /* \"#utility.yul\":4105:4110   */\n      dup2\n        /* \"#utility.yul\":4088:4111   */\n      tag_77\n      jump\t// in\n    tag_139:\n        /* \"#utility.yul\":4081:4086   */\n      dup2\n        /* \"#utility.yul\":4078:4112   */\n      eq\n        /* \"#utility.yul\":4068:4130   */\n      tag_140\n      jumpi\n        /* \"#utility.yul\":4126:4127   */\n      0x00\n        /* \"#utility.yul\":4123:4124   */\n      dup1\n        /* \"#utility.yul\":4116:4128   */\n      revert\n        /* \"#utility.yul\":4068:4130   */\n    tag_140:\n        /* \"#utility.yul\":4016:4136   */\n      pop\n      jump\t// out\n        /* \"#utility.yul\":4142:4283   */\n    tag_79:\n        /* \"#utility.yul\":4198:4203   */\n      0x00\n        /* \"#utility.yul\":4229:4235   */\n      dup2\n        /* \"#utility.yul\":4223:4236   */\n      mload\n        /* \"#utility.yul\":4214:4236   */\n      swap1\n      pop\n        /* \"#utility.yul\":4245:4277   */\n      tag_142\n        /* \"#utility.yul\":4271:4276   */\n      dup2\n        /* \"#utility.yul\":4245:4277   */\n      tag_78\n      jump\t// in\n    tag_142:\n        /* \"#utility.yul\":4142:4283   */\n      swap3\n      swap2\n      pop\n      pop\n      jump\t// out\n        /* \"#utility.yul\":4289:4432   */\n    tag_80:\n        /* \"#utility.yul\":4346:4351   */\n      0x00\n        /* \"#utility.yul\":4377:4383   */\n      dup2\n        /* \"#utility.yul\":4371:4384   */\n      mload\n        /* \"#utility.yul\":4362:4384   */\n      swap1\n      pop\n        /* \"#utility.yul\":4393:4426   */\n      tag_144\n        /* \"#utility.yul\":4420:4425   */\n      dup2\n        /* \"#utility.yul\":4393:4426   */\n      tag_64\n      jump\t// in\n    tag_144:\n        /* \"#utility.yul\":4289:4432   */\n      swap3\n      swap2\n      pop\n      pop\n      jump\t// out\n        /* \"#utility.yul\":4438:5409   */\n    tag_49:\n        /* \"#utility.yul\":4541:4547   */\n      0x00\n        /* \"#utility.yul\":4549:4555   */\n      dup1\n        /* \"#utility.yul\":4557:4563   */\n      0x00\n        /* \"#utility.yul\":4565:4571   */\n      dup1\n        /* \"#utility.yul\":4573:4579   */\n      0x00\n        /* \"#utility.yul\":4622:4625   */\n      0xa0\n        /* \"#utility.yul\":4610:4619   */\n      dup7\n        /* \"#utility.yul\":4601:4608   */\n      dup9\n        /* \"#utility.yul\":4597:4620   */\n      sub\n        /* \"#utility.yul\":4593:4626   */\n      slt\n        /* \"#utility.yul\":4590:4710   */\n      iszero\n      tag_146\n      jumpi\n        /* \"#utility.yul\":4629:4708   */\n      tag_147\n      tag_61\n      jump\t// in\n    tag_147:\n        /* \"#utility.yul\":4590:4710   */\n    tag_146:\n        /* \"#utility.yul\":4749:4750   */\n      0x00\n        /* \"#utility.yul\":4774:4837   */\n      tag_148\n        /* \"#utility.yul\":4829:4836   */\n      dup9\n        /* \"#utility.yul\":4820:4826   */\n      dup3\n        /* \"#utility.yul\":4809:4818   */\n      dup10\n        /* \"#utility.yul\":4805:4827   */\n      add\n        /* \"#utility.yul\":4774:4837   */\n      tag_76\n      jump\t// in\n    tag_148:\n        /* \"#utility.yul\":4764:4837   */\n      swap6\n      pop\n        /* \"#utility.yul\":4720:4847   */\n      pop\n        /* \"#utility.yul\":4886:4888   */\n      0x20\n        /* \"#utility.yul\":4912:4975   */\n      tag_149\n        /* \"#utility.yul\":4967:4974   */\n      dup9\n        /* \"#utility.yul\":4958:4964   */\n      dup3\n        /* \"#utility.yul\":4947:4956   */\n      dup10\n        /* \"#utility.yul\":4943:4965   */\n      add\n        /* \"#utility.yul\":4912:4975   */\n      tag_79\n      jump\t// in\n    tag_149:\n        /* \"#utility.yul\":4902:4975   */\n      swap5\n      pop\n        /* \"#utility.yul\":4857:4985   */\n      pop\n        /* \"#utility.yul\":5024:5026   */\n      0x40\n        /* \"#utility.yul\":5050:5114   */\n      tag_150\n        /* \"#utility.yul\":5106:5113   */\n      dup9\n        /* \"#utility.yul\":5097:5103   */\n      dup3\n        /* \"#utility.yul\":5086:5095   */\n      dup10\n        /* \"#utility.yul\":5082:5104   */\n      add\n        /* \"#utility.yul\":5050:5114   */\n      tag_80\n      jump\t// in\n    tag_150:\n        /* \"#utility.yul\":5040:5114   */\n      swap4\n      pop\n        /* \"#utility.yul\":4995:5124   */\n      pop\n        /* \"#utility.yul\":5163:5165   */\n      0x60\n        /* \"#utility.yul\":5189:5253   */\n      tag_151\n        /* \"#utility.yul\":5245:5252   */\n      dup9\n        /* \"#utility.yul\":5236:5242   */\n      dup3\n        /* \"#utility.yul\":5225:5234   */\n      dup10\n        /* \"#utility.yul\":5221:5243   */\n      add\n        /* \"#utility.yul\":5189:5253   */\n      tag_80\n      jump\t// in\n    tag_151:\n        /* \"#utility.yul\":5179:5253   */\n      swap3\n      pop\n        /* \"#utility.yul\":5134:5263   */\n      pop\n        /* \"#utility.yul\":5302:5305   */\n      0x80\n        /* \"#utility.yul\":5329:5392   */\n      tag_152\n        /* \"#utility.yul\":5384:5391   */\n      dup9\n        /* \"#utility.yul\":5375:5381   */\n      dup3\n        /* \"#utility.yul\":5364:5373   */\n      dup10\n        /* \"#utility.yul\":5360:5382   */\n      add\n        /* \"#utility.yul\":5329:5392   */\n      tag_76\n      jump\t// in\n    tag_152:\n        /* \"#utility.yul\":5319:5392   */\n      swap2\n      pop\n        /* \"#utility.yul\":5273:5402   */\n      pop\n        /* \"#utility.yul\":4438:5409   */\n      swap3\n      swap6\n      pop\n      swap3\n      swap6\n      swap1\n      swap4\n      pop\n      jump\t// out\n        /* \"#utility.yul\":5415:5971   */\n    tag_51:\n        /* \"#utility.yul\":5454:5461   */\n      0x00\n        /* \"#utility.yul\":5477:5496   */\n      tag_154\n        /* \"#utility.yul\":5494:5495   */\n      dup3\n        /* \"#utility.yul\":5477:5496   */\n      tag_77\n      jump\t// in\n    tag_154:\n        /* \"#utility.yul\":5472:5496   */\n      swap2\n      pop\n        /* \"#utility.yul\":5510:5529   */\n      tag_155\n        /* \"#utility.yul\":5527:5528   */\n      dup4\n        /* \"#utility.yul\":5510:5529   */\n      tag_77\n      jump\t// in\n    tag_155:\n        /* \"#utility.yul\":5505:5529   */\n      swap3\n      pop\n        /* \"#utility.yul\":5564:5565   */\n      dup3\n        /* \"#utility.yul\":5561:5562   */\n      dup3\n        /* \"#utility.yul\":5557:5566   */\n      mul\n        /* \"#utility.yul\":5586:5615   */\n      tag_156\n        /* \"#utility.yul\":5603:5614   */\n      dup2\n        /* \"#utility.yul\":5586:5615   */\n      tag_77\n      jump\t// in\n    tag_156:\n        /* \"#utility.yul\":5575:5615   */\n      swap2\n      pop\n        /* \"#utility.yul\":5673:5739   */\n      0x8000000000000000000000000000000000000000000000000000000000000000\n        /* \"#utility.yul\":5670:5671   */\n      dup5\n        /* \"#utility.yul\":5667:5740   */\n      eq\n        /* \"#utility.yul\":5663:5664   */\n      0x00\n        /* \"#utility.yul\":5660:5661   */\n      dup5\n        /* \"#utility.yul\":5656:5665   */\n      slt\n        /* \"#utility.yul\":5652:5741   */\n      and\n        /* \"#utility.yul\":5649:5764   */\n      iszero\n      tag_157\n      jumpi\n        /* \"#utility.yul\":5744:5762   */\n      tag_158\n      tag_72\n      jump\t// in\n    tag_158:\n        /* \"#utility.yul\":5649:5764   */\n    tag_157:\n        /* \"#utility.yul\":5914:5915   */\n      dup3\n        /* \"#utility.yul\":5905:5912   */\n      dup3\n        /* \"#utility.yul\":5900:5916   */\n      sdiv\n        /* \"#utility.yul\":5897:5898   */\n      dup5\n        /* \"#utility.yul\":5894:5917   */\n      eq\n        /* \"#utility.yul\":5874:5875   */\n      dup4\n        /* \"#utility.yul\":5867:5876   */\n      iszero\n        /* \"#utility.yul\":5847:5931   */\n      or\n        /* \"#utility.yul\":5824:5964   */\n      tag_159\n      jumpi\n        /* \"#utility.yul\":5944:5962   */\n      tag_160\n      tag_72\n      jump\t// in\n    tag_160:\n        /* \"#utility.yul\":5824:5964   */\n    tag_159:\n        /* \"#utility.yul\":5462:5971   */\n      pop\n        /* \"#utility.yul\":5415:5971   */\n      swap3\n      swap2\n      pop\n      pop\n      jump\t// out\n        /* \"#utility.yul\":5977:6146   */\n    tag_81:\n        /* \"#utility.yul\":6061:6072   */\n      0x00\n        /* \"#utility.yul\":6095:6101   */\n      dup3\n        /* \"#utility.yul\":6090:6093   */\n      dup3\n        /* \"#utility.yul\":6083:6102   */\n      mstore\n        /* \"#utility.yul\":6135:6139   */\n      0x20\n        /* \"#utility.yul\":6130:6133   */\n      dup3\n        /* \"#utility.yul\":6126:6140   */\n      add\n        /* \"#utility.yul\":6111:6140   */\n      swap1\n      pop\n        /* \"#utility.yul\":5977:6146   */\n      swap3\n      swap2\n      pop\n      pop\n      jump\t// out\n        /* \"#utility.yul\":6152:6324   */\n    tag_82:\n        /* \"#utility.yul\":6292:6316   */\n      0x4469646e27742073656e6420656e6f7567682045544800000000000000000000\n        /* \"#utility.yul\":6288:6289   */\n      0x00\n        /* \"#utility.yul\":6280:6286   */\n      dup3\n        /* \"#utility.yul\":6276:6290   */\n      add\n        /* \"#utility.yul\":6269:6317   */\n      mstore\n        /* \"#utility.yul\":6152:6324   */\n      pop\n      jump\t// out\n        /* \"#utility.yul\":6330:6696   */\n    tag_83:\n        /* \"#utility.yul\":6472:6475   */\n      0x00\n        /* \"#utility.yul\":6493:6560   */\n      tag_164\n        /* \"#utility.yul\":6557:6559   */\n      0x16\n        /* \"#utility.yul\":6552:6555   */\n      dup4\n        /* \"#utility.yul\":6493:6560   */\n      tag_81\n      jump\t// in\n    tag_164:\n        /* \"#utility.yul\":6486:6560   */\n      swap2\n      pop\n        /* \"#utility.yul\":6569:6662   */\n      tag_165\n        /* \"#utility.yul\":6658:6661   */\n      dup3\n        /* \"#utility.yul\":6569:6662   */\n      tag_82\n      jump\t// in\n    tag_165:\n        /* \"#utility.yul\":6687:6689   */\n      0x20\n        /* \"#utility.yul\":6682:6685   */\n      dup3\n        /* \"#utility.yul\":6678:6690   */\n      add\n        /* \"#utility.yul\":6671:6690   */\n      swap1\n      pop\n        /* \"#utility.yul\":6330:6696   */\n      swap2\n      swap1\n      pop\n      jump\t// out\n        /* \"#utility.yul\":6702:7121   */\n    tag_56:\n        /* \"#utility.yul\":6868:6872   */\n      0x00\n        /* \"#utility.yul\":6906:6908   */\n      0x20\n        /* \"#utility.yul\":6895:6904   */\n      dup3\n        /* \"#utility.yul\":6891:6909   */\n      add\n        /* \"#utility.yul\":6883:6909   */\n      swap1\n      pop\n        /* \"#utility.yul\":6955:6964   */\n      dup2\n        /* \"#utility.yul\":6949:6953   */\n      dup2\n        /* \"#utility.yul\":6945:6965   */\n      sub\n        /* \"#utility.yul\":6941:6942   */\n      0x00\n        /* \"#utility.yul\":6930:6939   */\n      dup4\n        /* \"#utility.yul\":6926:6943   */\n      add\n        /* \"#utility.yul\":6919:6966   */\n      mstore\n        /* \"#utility.yul\":6983:7114   */\n      tag_167\n        /* \"#utility.yul\":7109:7113   */\n      dup2\n        /* \"#utility.yul\":6983:7114   */\n      tag_83\n      jump\t// in\n    tag_167:\n        /* \"#utility.yul\":6975:7114   */\n      swap1\n      pop\n        /* \"#utility.yul\":6702:7121   */\n      swap2\n      swap1\n      pop\n      jump\t// out\n        /* \"#utility.yul\":7127:7318   */\n    tag_59:\n        /* \"#utility.yul\":7167:7170   */\n      0x00\n        /* \"#utility.yul\":7186:7206   */\n      tag_169\n        /* \"#utility.yul\":7204:7205   */\n      dup3\n        /* \"#utility.yul\":7186:7206   */\n      tag_63\n      jump\t// in\n    tag_169:\n        /* \"#utility.yul\":7181:7206   */\n      swap2\n      pop\n        /* \"#utility.yul\":7220:7240   */\n      tag_170\n        /* \"#utility.yul\":7238:7239   */\n      dup4\n        /* \"#utility.yul\":7220:7240   */\n      tag_63\n      jump\t// in\n    tag_170:\n        /* \"#utility.yul\":7215:7240   */\n      swap3\n      pop\n        /* \"#utility.yul\":7263:7264   */\n      dup3\n        /* \"#utility.yul\":7260:7261   */\n      dup3\n        /* \"#utility.yul\":7256:7265   */\n      add\n        /* \"#utility.yul\":7249:7265   */\n      swap1\n      pop\n        /* \"#utility.yul\":7284:7287   */\n      dup1\n        /* \"#utility.yul\":7281:7282   */\n      dup3\n        /* \"#utility.yul\":7278:7288   */\n      gt\n        /* \"#utility.yul\":7275:7311   */\n      iszero\n      tag_171\n      jumpi\n        /* \"#utility.yul\":7291:7309   */\n      tag_172\n      tag_72\n      jump\t// in\n    tag_172:\n        /* \"#utility.yul\":7275:7311   */\n    tag_171:\n        /* \"#utility.yul\":7127:7318   */\n      swap3\n      swap2\n      pop\n      pop\n      jump\t// out\n\n    auxdata: 0xa264697066735822122084d24cd8cd738a09695298ab12acee72d46818f793c769bc73444ba71237346764736f6c63430008120033\n}\n",
				"bytecode": {
					"linkReferences": {},
					"object": "6080604052674563918244f4000060005534801561001c57600080fd5b506108388061002c6000396000f3fe6080604052600436106100555760003560e01c8063047abed71461005a5780633e47d6f31461009757806345ba6997146100d45780635bbe8ef11461011157806373cef3911461013c578063b60d428814610167575b600080fd5b34801561006657600080fd5b50610081600480360381019061007c91906103f4565b610171565b60405161008e9190610430565b60405180910390f35b3480156100a357600080fd5b506100be60048036038101906100b991906104a9565b6101ab565b6040516100cb9190610430565b60405180910390f35b3480156100e057600080fd5b506100fb60048036038101906100f691906103f4565b6101c3565b60405161010891906104e5565b60405180910390f35b34801561011d57600080fd5b50610126610202565b6040516101339190610430565b60405180910390f35b34801561014857600080fd5b506101516102ab565b60405161015e9190610430565b60405180910390f35b61016f6102b1565b005b60008061017c610202565b90506000670de0b6b3a76400008285610195919061052f565b61019f91906105a0565b90508092505050919050565b60026020528060005260406000206000915090505481565b600181815481106101d357600080fd5b906000526020600020016000915054906101000a900473ffffffffffffffffffffffffffffffffffffffff1681565b60008073694aa1769357215de4fac081bf1f309adc325306905060008173ffffffffffffffffffffffffffffffffffffffff1663feaf968c6040518163ffffffff1660e01b815260040160a060405180830381865afa158015610269573d6000803e3d6000fd5b505050506040513d601f19601f8201168201806040525081019061028d919061065e565b5050509150506402540be400816102a491906106d9565b9250505090565b60005481565b6000546102bd34610171565b10156102fe576040517f08c379a00000000000000000000000000000000000000000000000000000000081526004016102f5906107ae565b60405180910390fd5b6001339080600181540180825580915050600190039060005260206000200160009091909190916101000a81548173ffffffffffffffffffffffffffffffffffffffff021916908373ffffffffffffffffffffffffffffffffffffffff16021790555034600260003373ffffffffffffffffffffffffffffffffffffffff1673ffffffffffffffffffffffffffffffffffffffff16815260200190815260200160002060008282546103b091906107ce565b92505081905550565b600080fd5b6000819050919050565b6103d1816103be565b81146103dc57600080fd5b50565b6000813590506103ee816103c8565b92915050565b60006020828403121561040a576104096103b9565b5b6000610418848285016103df565b91505092915050565b61042a816103be565b82525050565b60006020820190506104456000830184610421565b92915050565b600073ffffffffffffffffffffffffffffffffffffffff82169050919050565b60006104768261044b565b9050919050565b6104868161046b565b811461049157600080fd5b50565b6000813590506104a38161047d565b92915050565b6000602082840312156104bf576104be6103b9565b5b60006104cd84828501610494565b91505092915050565b6104df8161046b565b82525050565b60006020820190506104fa60008301846104d6565b92915050565b7f4e487b7100000000000000000000000000000000000000000000000000000000600052601160045260246000fd5b600061053a826103be565b9150610545836103be565b9250828202610553816103be565b9150828204841483151761056a57610569610500565b5b5092915050565b7f4e487b7100000000000000000000000000000000000000000000000000000000600052601260045260246000fd5b60006105ab826103be565b91506105b6836103be565b9250826105c6576105c5610571565b5b828204905092915050565b600069ffffffffffffffffffff82169050919050565b6105f0816105d1565b81146105fb57600080fd5b50565b60008151905061060d816105e7565b92915050565b6000819050919050565b61062681610613565b811461063157600080fd5b50565b6000815190506106438161061d565b92915050565b600081519050610658816103c8565b92915050565b600080600080600060a0868803121561067a576106796103b9565b5b6000610688888289016105fe565b955050602061069988828901610634565b94505060406106aa88828901610649565b93505060606106bb88828901610649565b92505060806106cc888289016105fe565b9150509295509295909350565b60006106e482610613565b91506106ef83610613565b92508282026106fd81610613565b91507f8000000000000000000000000000000000000000000000000000000000000000841460008412161561073557610734610500565b5b828205841483151761074a57610749610500565b5b5092915050565b600082825260208201905092915050565b7f4469646e27742073656e6420656e6f7567682045544800000000000000000000600082015250565b6000610798601683610751565b91506107a382610762565b602082019050919050565b600060208201905081810360008301526107c78161078b565b9050919050565b60006107d9826103be565b91506107e4836103be565b92508282019050808211156107fc576107fb610500565b5b9291505056fea264697066735822122084d24cd8cd738a09695298ab12acee72d46818f793c769bc73444ba71237346764736f6c63430008120033",
					"opcodes": "PUSH1 0x80 PUSH1 0x40 MSTORE PUSH8 0x4563918244F40000 PUSH1 0x0 SSTORE CALLVALUE DUP1 ISZERO PUSH2 0x1C JUMPI PUSH1 0x0 DUP1 REVERT JUMPDEST POP PUSH2 0x838 DUP1 PUSH2 0x2C PUSH1 0x0 CODECOPY PUSH1 0x0 RETURN INVALID PUSH1 0x80 PUSH1 0x40 MSTORE PUSH1 0x4 CALLDATASIZE LT PUSH2 0x55 JUMPI PUSH1 0x0 CALLDATALOAD PUSH1 0xE0 SHR DUP1 PUSH4 0x47ABED7 EQ PUSH2 0x5A JUMPI DUP1 PUSH4 0x3E47D6F3 EQ PUSH2 0x97 JUMPI DUP1 PUSH4 0x45BA6997 EQ PUSH2 0xD4 JUMPI DUP1 PUSH4 0x5BBE8EF1 EQ PUSH2 0x111 JUMPI DUP1 PUSH4 0x73CEF391 EQ PUSH2 0x13C JUMPI DUP1 PUSH4 0xB60D4288 EQ PUSH2 0x167 JUMPI JUMPDEST PUSH1 0x0 DUP1 REVERT JUMPDEST CALLVALUE DUP1 ISZERO PUSH2 0x66 JUMPI PUSH1 0x0 DUP1 REVERT JUMPDEST POP PUSH2 0x81 PUSH1 0x4 DUP1 CALLDATASIZE SUB DUP2 ADD SWAP1 PUSH2 0x7C SWAP2 SWAP1 PUSH2 0x3F4 JUMP JUMPDEST PUSH2 0x171 JUMP JUMPDEST PUSH1 0x40 MLOAD PUSH2 0x8E SWAP2 SWAP1 PUSH2 0x430 JUMP JUMPDEST PUSH1 0x40 MLOAD DUP1 SWAP2 SUB SWAP1 RETURN JUMPDEST CALLVALUE DUP1 ISZERO PUSH2 0xA3 JUMPI PUSH1 0x0 DUP1 REVERT JUMPDEST POP PUSH2 0xBE PUSH1 0x4 DUP1 CALLDATASIZE SUB DUP2 ADD SWAP1 PUSH2 0xB9 SWAP2 SWAP1 PUSH2 0x4A9 JUMP JUMPDEST PUSH2 0x1AB JUMP JUMPDEST PUSH1 0x40 MLOAD PUSH2 0xCB SWAP2 SWAP1 PUSH2 0x430 JUMP JUMPDEST PUSH1 0x40 MLOAD DUP1 SWAP2 SUB SWAP1 RETURN JUMPDEST CALLVALUE DUP1 ISZERO PUSH2 0xE0 JUMPI PUSH1 0x0 DUP1 REVERT JUMPDEST POP PUSH2 0xFB PUSH1 0x4 DUP1 CALLDATASIZE SUB DUP2 ADD SWAP1 PUSH2 0xF6 SWAP2 SWAP1 PUSH2 0x3F4 JUMP JUMPDEST PUSH2 0x1C3 JUMP JUMPDEST PUSH1 0x40 MLOAD PUSH2 0x108 SWAP2 SWAP1 PUSH2 0x4E5 JUMP JUMPDEST PUSH1 0x40 MLOAD DUP1 SWAP2 SUB SWAP1 RETURN JUMPDEST CALLVALUE DUP1 ISZERO PUSH2 0x11D JUMPI PUSH1 0x0 DUP1 REVERT JUMPDEST POP PUSH2 0x126 PUSH2 0x202 JUMP JUMPDEST PUSH1 0x40 MLOAD PUSH2 0x133 SWAP2 SWAP1 PUSH2 0x430 JUMP JUMPDEST PUSH1 0x40 MLOAD DUP1 SWAP2 SUB SWAP1 RETURN JUMPDEST CALLVALUE DUP1 ISZERO PUSH2 0x148 JUMPI PUSH1 0x0 DUP1 REVERT JUMPDEST POP PUSH2 0x151 PUSH2 0x2AB JUMP JUMPDEST PUSH1 0x40 MLOAD PUSH2 0x15E SWAP2 SWAP1 PUSH2 0x430 JUMP JUMPDEST PUSH1 0x40 MLOAD DUP1 SWAP2 SUB SWAP1 RETURN JUMPDEST PUSH2 0x16F PUSH2 0x2B1 JUMP JUMPDEST STOP JUMPDEST PUSH1 0x0 DUP1 PUSH2 0x17C PUSH2 0x202 JUMP JUMPDEST SWAP1 POP PUSH1 0x0 PUSH8 0xDE0B6B3A7640000 DUP3 DUP6 PUSH2 0x195 SWAP2 SWAP1 PUSH2 0x52F JUMP JUMPDEST PUSH2 0x19F SWAP2 SWAP1 PUSH2 0x5A0 JUMP JUMPDEST SWAP1 POP DUP1 SWAP3 POP POP POP SWAP2 SWAP1 POP JUMP JUMPDEST PUSH1 0x2 PUSH1 0x20 MSTORE DUP1 PUSH1 0x0 MSTORE PUSH1 0x40 PUSH1 0x0 KECCAK256 PUSH1 0x0 SWAP2 POP SWAP1 POP SLOAD DUP2 JUMP JUMPDEST PUSH1 0x1 DUP2 DUP2 SLOAD DUP2 LT PUSH2 0x1D3 JUMPI PUSH1 0x0 DUP1 REVERT JUMPDEST SWAP1 PUSH1 0x0 MSTORE PUSH1 0x20 PUSH1 0x0 KECCAK256 ADD PUSH1 0x0 SWAP2 POP SLOAD SWAP1 PUSH2 0x100 EXP SWAP1 DIV PUSH20 0xFFFFFFFFFFFFFFFFFFFFFFFFFFFFFFFFFFFFFFFF AND DUP2 JUMP JUMPDEST PUSH1 0x0 DUP1 PUSH20 0x694AA1769357215DE4FAC081BF1F309ADC325306 SWAP1 POP PUSH1 0x0 DUP2 PUSH20 0xFFFFFFFFFFFFFFFFFFFFFFFFFFFFFFFFFFFFFFFF AND PUSH4 0xFEAF968C PUSH1 0x40 MLOAD DUP2 PUSH4 0xFFFFFFFF AND PUSH1 0xE0 SHL DUP2 MSTORE PUSH1 0x4 ADD PUSH1 0xA0 PUSH1 0x40 MLOAD DUP1 DUP4 SUB DUP2 DUP7 GAS STATICCALL ISZERO DUP1 ISZERO PUSH2 0x269 JUMPI RETURNDATASIZE PUSH1 0x0 DUP1 RETURNDATACOPY RETURNDATASIZE PUSH1 0x0 REVERT JUMPDEST POP POP POP POP PUSH1 0x40 MLOAD RETURNDATASIZE PUSH1 0x1F NOT PUSH1 0x1F DUP3 ADD AND DUP3 ADD DUP1 PUSH1 0x40 MSTORE POP DUP2 ADD SWAP1 PUSH2 0x28D SWAP2 SWAP1 PUSH2 0x65E JUMP JUMPDEST POP POP POP SWAP2 POP POP PUSH5 0x2540BE400 DUP2 PUSH2 0x2A4 SWAP2 SWAP1 PUSH2 0x6D9 JUMP JUMPDEST SWAP3 POP POP POP SWAP1 JUMP JUMPDEST PUSH1 0x0 SLOAD DUP2 JUMP JUMPDEST PUSH1 0x0 SLOAD PUSH2 0x2BD CALLVALUE PUSH2 0x171 JUMP JUMPDEST LT ISZERO PUSH2 0x2FE JUMPI PUSH1 0x40 MLOAD PUSH32 0x8C379A000000000000000000000000000000000000000000000000000000000 DUP2 MSTORE PUSH1 0x4 ADD PUSH2 0x2F5 SWAP1 PUSH2 0x7AE JUMP JUMPDEST PUSH1 0x40 MLOAD DUP1 SWAP2 SUB SWAP1 REVERT JUMPDEST PUSH1 0x1 CALLER SWAP1 DUP1 PUSH1 0x1 DUP2 SLOAD ADD DUP1 DUP3 SSTORE DUP1 SWAP2 POP POP PUSH1 0x1 SWAP1 SUB SWAP1 PUSH1 0x0 MSTORE PUSH1 0x20 PUSH1 0x0 KECCAK256 ADD PUSH1 0x0 SWAP1 SWAP2 SWAP1 SWAP2 SWAP1 SWAP2 PUSH2 0x100 EXP DUP2 SLOAD DUP2 PUSH20 0xFFFFFFFFFFFFFFFFFFFFFFFFFFFFFFFFFFFFFFFF MUL NOT AND SWAP1 DUP4 PUSH20 0xFFFFFFFFFFFFFFFFFFFFFFFFFFFFFFFFFFFFFFFF AND MUL OR SWAP1 SSTORE POP CALLVALUE PUSH1 0x2 PUSH1 0x0 CALLER PUSH20 0xFFFFFFFFFFFFFFFFFFFFFFFFFFFFFFFFFFFFFFFF AND PUSH20 0xFFFFFFFFFFFFFFFFFFFFFFFFFFFFFFFFFFFFFFFF AND DUP2 MSTORE PUSH1 0x20 ADD SWAP1 DUP2 MSTORE PUSH1 0x20 ADD PUSH1 0x0 KECCAK256 PUSH1 0x0 DUP3 DUP3 SLOAD PUSH2 0x3B0 SWAP2 SWAP1 PUSH2 0x7CE JUMP JUMPDEST SWAP3 POP POP DUP2 SWAP1 SSTORE POP JUMP JUMPDEST PUSH1 0x0 DUP1 REVERT JUMPDEST PUSH1 0x0 DUP2 SWAP1 POP SWAP2 SWAP1 POP JUMP JUMPDEST PUSH2 0x3D1 DUP2 PUSH2 0x3BE JUMP JUMPDEST DUP2 EQ PUSH2 0x3DC JUMPI PUSH1 0x0 DUP1 REVERT JUMPDEST POP JUMP JUMPDEST PUSH1 0x0 DUP2 CALLDATALOAD SWAP1 POP PUSH2 0x3EE DUP2 PUSH2 0x3C8 JUMP JUMPDEST SWAP3 SWAP2 POP POP JUMP JUMPDEST PUSH1 0x0 PUSH1 0x20 DUP3 DUP5 SUB SLT ISZERO PUSH2 0x40A JUMPI PUSH2 0x409 PUSH2 0x3B9 JUMP JUMPDEST JUMPDEST PUSH1 0x0 PUSH2 0x418 DUP5 DUP3 DUP6 ADD PUSH2 0x3DF JUMP JUMPDEST SWAP2 POP POP SWAP3 SWAP2 POP POP JUMP JUMPDEST PUSH2 0x42A DUP2 PUSH2 0x3BE JUMP JUMPDEST DUP3 MSTORE POP POP JUMP JUMPDEST PUSH1 0x0 PUSH1 0x20 DUP3 ADD SWAP1 POP PUSH2 0x445 PUSH1 0x0 DUP4 ADD DUP5 PUSH2 0x421 JUMP JUMPDEST SWAP3 SWAP2 POP POP JUMP JUMPDEST PUSH1 0x0 PUSH20 0xFFFFFFFFFFFFFFFFFFFFFFFFFFFFFFFFFFFFFFFF DUP3 AND SWAP1 POP SWAP2 SWAP1 POP JUMP JUMPDEST PUSH1 0x0 PUSH2 0x476 DUP3 PUSH2 0x44B JUMP JUMPDEST SWAP1 POP SWAP2 SWAP1 POP JUMP JUMPDEST PUSH2 0x486 DUP2 PUSH2 0x46B JUMP JUMPDEST DUP2 EQ PUSH2 0x491 JUMPI PUSH1 0x0 DUP1 REVERT JUMPDEST POP JUMP JUMPDEST PUSH1 0x0 DUP2 CALLDATALOAD SWAP1 POP PUSH2 0x4A3 DUP2 PUSH2 0x47D JUMP JUMPDEST SWAP3 SWAP2 POP POP JUMP JUMPDEST PUSH1 0x0 PUSH1 0x20 DUP3 DUP5 SUB SLT ISZERO PUSH2 0x4BF JUMPI PUSH2 0x4BE PUSH2 0x3B9 JUMP JUMPDEST JUMPDEST PUSH1 0x0 PUSH2 0x4CD DUP5 DUP3 DUP6 ADD PUSH2 0x494 JUMP JUMPDEST SWAP2 POP POP SWAP3 SWAP2 POP POP JUMP JUMPDEST PUSH2 0x4DF DUP2 PUSH2 0x46B JUMP JUMPDEST DUP3 MSTORE POP POP JUMP JUMPDEST PUSH1 0x0 PUSH1 0x20 DUP3 ADD SWAP1 POP PUSH2 0x4FA PUSH1 0x0 DUP4 ADD DUP5 PUSH2 0x4D6 JUMP JUMPDEST SWAP3 SWAP2 POP POP JUMP JUMPDEST PUSH32 0x4E487B7100000000000000000000000000000000000000000000000000000000 PUSH1 0x0 MSTORE PUSH1 0x11 PUSH1 0x4 MSTORE PUSH1 0x24 PUSH1 0x0 REVERT JUMPDEST PUSH1 0x0 PUSH2 0x53A DUP3 PUSH2 0x3BE JUMP JUMPDEST SWAP2 POP PUSH2 0x545 DUP4 PUSH2 0x3BE JUMP JUMPDEST SWAP3 POP DUP3 DUP3 MUL PUSH2 0x553 DUP2 PUSH2 0x3BE JUMP JUMPDEST SWAP2 POP DUP3 DUP3 DIV DUP5 EQ DUP4 ISZERO OR PUSH2 0x56A JUMPI PUSH2 0x569 PUSH2 0x500 JUMP JUMPDEST JUMPDEST POP SWAP3 SWAP2 POP POP JUMP JUMPDEST PUSH32 0x4E487B7100000000000000000000000000000000000000000000000000000000 PUSH1 0x0 MSTORE PUSH1 0x12 PUSH1 0x4 MSTORE PUSH1 0x24 PUSH1 0x0 REVERT JUMPDEST PUSH1 0x0 PUSH2 0x5AB DUP3 PUSH2 0x3BE JUMP JUMPDEST SWAP2 POP PUSH2 0x5B6 DUP4 PUSH2 0x3BE JUMP JUMPDEST SWAP3 POP DUP3 PUSH2 0x5C6 JUMPI PUSH2 0x5C5 PUSH2 0x571 JUMP JUMPDEST JUMPDEST DUP3 DUP3 DIV SWAP1 POP SWAP3 SWAP2 POP POP JUMP JUMPDEST PUSH1 0x0 PUSH10 0xFFFFFFFFFFFFFFFFFFFF DUP3 AND SWAP1 POP SWAP2 SWAP1 POP JUMP JUMPDEST PUSH2 0x5F0 DUP2 PUSH2 0x5D1 JUMP JUMPDEST DUP2 EQ PUSH2 0x5FB JUMPI PUSH1 0x0 DUP1 REVERT JUMPDEST POP JUMP JUMPDEST PUSH1 0x0 DUP2 MLOAD SWAP1 POP PUSH2 0x60D DUP2 PUSH2 0x5E7 JUMP JUMPDEST SWAP3 SWAP2 POP POP JUMP JUMPDEST PUSH1 0x0 DUP2 SWAP1 POP SWAP2 SWAP1 POP JUMP JUMPDEST PUSH2 0x626 DUP2 PUSH2 0x613 JUMP JUMPDEST DUP2 EQ PUSH2 0x631 JUMPI PUSH1 0x0 DUP1 REVERT JUMPDEST POP JUMP JUMPDEST PUSH1 0x0 DUP2 MLOAD SWAP1 POP PUSH2 0x643 DUP2 PUSH2 0x61D JUMP JUMPDEST SWAP3 SWAP2 POP POP JUMP JUMPDEST PUSH1 0x0 DUP2 MLOAD SWAP1 POP PUSH2 0x658 DUP2 PUSH2 0x3C8 JUMP JUMPDEST SWAP3 SWAP2 POP POP JUMP JUMPDEST PUSH1 0x0 DUP1 PUSH1 0x0 DUP1 PUSH1 0x0 PUSH1 0xA0 DUP7 DUP9 SUB SLT ISZERO PUSH2 0x67A JUMPI PUSH2 0x679 PUSH2 0x3B9 JUMP JUMPDEST JUMPDEST PUSH1 0x0 PUSH2 0x688 DUP9 DUP3 DUP10 ADD PUSH2 0x5FE JUMP JUMPDEST SWAP6 POP POP PUSH1 0x20 PUSH2 0x699 DUP9 DUP3 DUP10 ADD PUSH2 0x634 JUMP JUMPDEST SWAP5 POP POP PUSH1 0x40 PUSH2 0x6AA DUP9 DUP3 DUP10 ADD PUSH2 0x649 JUMP JUMPDEST SWAP4 POP POP PUSH1 0x60 PUSH2 0x6BB DUP9 DUP3 DUP10 ADD PUSH2 0x649 JUMP JUMPDEST SWAP3 POP POP PUSH1 0x80 PUSH2 0x6CC DUP9 DUP3 DUP10 ADD PUSH2 0x5FE JUMP JUMPDEST SWAP2 POP POP SWAP3 SWAP6 POP SWAP3 SWAP6 SWAP1 SWAP4 POP JUMP JUMPDEST PUSH1 0x0 PUSH2 0x6E4 DUP3 PUSH2 0x613 JUMP JUMPDEST SWAP2 POP PUSH2 0x6EF DUP4 PUSH2 0x613 JUMP JUMPDEST SWAP3 POP DUP3 DUP3 MUL PUSH2 0x6FD DUP2 PUSH2 0x613 JUMP JUMPDEST SWAP2 POP PUSH32 0x8000000000000000000000000000000000000000000000000000000000000000 DUP5 EQ PUSH1 0x0 DUP5 SLT AND ISZERO PUSH2 0x735 JUMPI PUSH2 0x734 PUSH2 0x500 JUMP JUMPDEST JUMPDEST DUP3 DUP3 SDIV DUP5 EQ DUP4 ISZERO OR PUSH2 0x74A JUMPI PUSH2 0x749 PUSH2 0x500 JUMP JUMPDEST JUMPDEST POP SWAP3 SWAP2 POP POP JUMP JUMPDEST PUSH1 0x0 DUP3 DUP3 MSTORE PUSH1 0x20 DUP3 ADD SWAP1 POP SWAP3 SWAP2 POP POP JUMP JUMPDEST PUSH32 0x4469646E27742073656E6420656E6F7567682045544800000000000000000000 PUSH1 0x0 DUP3 ADD MSTORE POP JUMP JUMPDEST PUSH1 0x0 PUSH2 0x798 PUSH1 0x16 DUP4 PUSH2 0x751 JUMP JUMPDEST SWAP2 POP PUSH2 0x7A3 DUP3 PUSH2 0x762 JUMP JUMPDEST PUSH1 0x20 DUP3 ADD SWAP1 POP SWAP2 SWAP1 POP JUMP JUMPDEST PUSH1 0x0 PUSH1 0x20 DUP3 ADD SWAP1 POP DUP2 DUP2 SUB PUSH1 0x0 DUP4 ADD MSTORE PUSH2 0x7C7 DUP2 PUSH2 0x78B JUMP JUMPDEST SWAP1 POP SWAP2 SWAP1 POP JUMP JUMPDEST PUSH1 0x0 PUSH2 0x7D9 DUP3 PUSH2 0x3BE JUMP JUMPDEST SWAP2 POP PUSH2 0x7E4 DUP4 PUSH2 0x3BE JUMP JUMPDEST SWAP3 POP DUP3 DUP3 ADD SWAP1 POP DUP1 DUP3 GT ISZERO PUSH2 0x7FC JUMPI PUSH2 0x7FB PUSH2 0x500 JUMP JUMPDEST JUMPDEST SWAP3 SWAP2 POP POP JUMP INVALID LOG2 PUSH5 0x6970667358 0x22 SLT KECCAK256 DUP5 0xD2 0x4C 0xD8 0xCD PUSH20 0x8A09695298AB12ACEE72D46818F793C769BC7344 0x4B 0xA7 SLT CALLDATACOPY CALLVALUE PUSH8 0x64736F6C63430008 SLT STOP CALLER "
				},
				"gasEstimates": {
					"creation": {
						"codeDepositCost": "420800",
						"executionCost": "22561",
						"totalCost": "443361"
					},
					"external": {
						"addressToAmountFunded(address)": "2814",
						"fund()": "infinite",
						"funderAddress(uint256)": "4978",
						"getConversion(uint256)": "infinite",
						"getPriceOfEth()": "infinite",
						"miniUSD()": "2495"
					}
				},
				"methodIdentifiers": {
					"addressToAmountFunded(address)": "3e47d6f3",
					"fund()": "b60d4288",
					"funderAddress(uint256)": "45ba6997",
					"getConversion(uint256)": "047abed7",
					"getPriceOfEth()": "5bbe8ef1",
					"miniUSD()": "73cef391"
				}
			},
			"storageLayout": {
				"storage": [
					{
						"astId": 52,
						"contract": "Contracts/fundMe.sol:fundMe",
						"label": "miniUSD",
						"offset": 0,
						"slot": "0",
						"type": "t_uint256"
					},
					{
						"astId": 55,
						"contract": "Contracts/fundMe.sol:fundMe",
						"label": "funderAddress",
						"offset": 0,
						"slot": "1",
						"type": "t_array(t_address)dyn_storage"
					},
					{
						"astId": 59,
						"contract": "Contracts/fundMe.sol:fundMe",
						"label": "addressToAmountFunded",
						"offset": 0,
						"slot": "2",
						"type": "t_mapping(t_address,t_uint256)"
					}
				],
				"types": {
					"t_address": {
						"encoding": "inplace",
						"label": "address",
						"numberOfBytes": "20"
					},
					"t_array(t_address)dyn_storage": {
						"base": "t_address",
						"encoding": "dynamic_array",
						"label": "address[]",
						"numberOfBytes": "32"
					},
					"t_mapping(t_address,t_uint256)": {
						"encoding": "mapping",
						"key": "t_address",
						"label": "mapping(address => uint256)",
						"numberOfBytes": "32",
						"value": "t_uint256"
					},
					"t_uint256": {
						"encoding": "inplace",
						"label": "uint256",
						"numberOfBytes": "32"
					}
				}
			},
			"userdoc": {
				"kind": "user",
				"methods": {},
				"version": 1
			}
		}
	}
}