{
	"Contracts/PriceConverter.sol": {
		"PriceConverter": {
			"abi": [
				{
					"inputs": [
						{
							"internalType": "uint256",
							"name": "ethAmount",
							"type": "uint256"
						}
					],
					"name": "getConversion",
					"outputs": [
						{
							"internalType": "uint256",
							"name": "",
							"type": "uint256"
						}
					],
					"stateMutability": "view",
					"type": "function"
				},
				{
					"inputs": [],
					"name": "getPriceOfEth",
					"outputs": [
						{
							"internalType": "uint256",
							"name": "",
							"type": "uint256"
						}
					],
					"stateMutability": "view",
					"type": "function"
				}
			],
			"devdoc": {
				"kind": "dev",
				"methods": {},
				"version": 1
			},
			"evm": {
				"assembly": "    /* \"Contracts/PriceConverter.sol\":177:715  library PriceConverter {... */\n  dataSize(sub_0)\n  dataOffset(sub_0)\n  0x0b\n  dup3\n  dup3\n  dup3\n  codecopy\n  dup1\n  mload\n  0x00\n  byte\n  0x73\n  eq\n  tag_1\n  jumpi\n  mstore(0x00, 0x4e487b7100000000000000000000000000000000000000000000000000000000)\n  mstore(0x04, 0x00)\n  revert(0x00, 0x24)\ntag_1:\n  mstore(0x00, address)\n  0x73\n  dup2\n  mstore8\n  dup3\n  dup2\n  return\nstop\n\nsub_0: assembly {\n        /* \"Contracts/PriceConverter.sol\":177:715  library PriceConverter {... */\n      eq(address, deployTimeAddress())\n      mstore(0x40, 0x80)\n      jumpi(tag_1, lt(calldatasize, 0x04))\n      shr(0xe0, calldataload(0x00))\n      dup1\n      0x047abed7\n      eq\n      tag_2\n      jumpi\n      dup1\n      0x5bbe8ef1\n      eq\n      tag_3\n      jumpi\n    tag_1:\n      0x00\n      dup1\n      revert\n        /* \"Contracts/PriceConverter.sol\":489:712  function getConversion (uint256 ethAmount) public view returns(uint256) {... */\n    tag_2:\n      tag_4\n      0x04\n      dup1\n      calldatasize\n      sub\n      dup2\n      add\n      swap1\n      tag_5\n      swap2\n      swap1\n      tag_6\n      jump\t// in\n    tag_5:\n      tag_7\n      jump\t// in\n    tag_4:\n      mload(0x40)\n      tag_8\n      swap2\n      swap1\n      tag_9\n      jump\t// in\n    tag_8:\n      mload(0x40)\n      dup1\n      swap2\n      sub\n      swap1\n      return\n        /* \"Contracts/PriceConverter.sol\":209:481  function getPriceOfEth () public view returns(uint256) {... */\n    tag_3:\n      tag_10\n      tag_11\n      jump\t// in\n    tag_10:\n      mload(0x40)\n      tag_12\n      swap2\n      swap1\n      tag_9\n      jump\t// in\n    tag_12:\n      mload(0x40)\n      dup1\n      swap2\n      sub\n      swap1\n      return\n        /* \"Contracts/PriceConverter.sol\":489:712  function getConversion (uint256 ethAmount) public view returns(uint256) {... */\n    tag_7:\n        /* \"Contracts/PriceConverter.sol\":552:559  uint256 */\n      0x00\n        /* \"Contracts/PriceConverter.sol\":572:588  uint256 ethPrice */\n      dup1\n        /* \"Contracts/PriceConverter.sol\":591:606  getPriceOfEth() */\n      tag_14\n        /* \"Contracts/PriceConverter.sol\":591:604  getPriceOfEth */\n      tag_11\n        /* \"Contracts/PriceConverter.sol\":591:606  getPriceOfEth() */\n      jump\t// in\n    tag_14:\n        /* \"Contracts/PriceConverter.sol\":572:606  uint256 ethPrice = getPriceOfEth() */\n      swap1\n      pop\n        /* \"Contracts/PriceConverter.sol\":617:639  uint256 ethAmountInUSD */\n      0x00\n        /* \"Contracts/PriceConverter.sol\":667:671  1e18 */\n      0x0de0b6b3a7640000\n        /* \"Contracts/PriceConverter.sol\":655:663  ethPrice */\n      dup3\n        /* \"Contracts/PriceConverter.sol\":643:652  ethAmount */\n      dup6\n        /* \"Contracts/PriceConverter.sol\":643:663  ethAmount * ethPrice */\n      tag_15\n      swap2\n      swap1\n      tag_16\n      jump\t// in\n    tag_15:\n        /* \"Contracts/PriceConverter.sol\":642:671  (ethAmount * ethPrice) / 1e18 */\n      tag_17\n      swap2\n      swap1\n      tag_18\n      jump\t// in\n    tag_17:\n        /* \"Contracts/PriceConverter.sol\":617:671  uint256 ethAmountInUSD = (ethAmount * ethPrice) / 1e18 */\n      swap1\n      pop\n        /* \"Contracts/PriceConverter.sol\":690:704  ethAmountInUSD */\n      dup1\n        /* \"Contracts/PriceConverter.sol\":682:704  return  ethAmountInUSD */\n      swap3\n      pop\n      pop\n      pop\n        /* \"Contracts/PriceConverter.sol\":489:712  function getConversion (uint256 ethAmount) public view returns(uint256) {... */\n      swap2\n      swap1\n      pop\n      jump\t// out\n        /* \"Contracts/PriceConverter.sol\":209:481  function getPriceOfEth () public view returns(uint256) {... */\n    tag_11:\n        /* \"Contracts/PriceConverter.sol\":255:262  uint256 */\n      0x00\n        /* \"Contracts/PriceConverter.sol\":274:305  AggregatorV3Interface priceFeed */\n      dup1\n        /* \"Contracts/PriceConverter.sol\":330:372  0x694AA1769357215DE4FAC081bf1f309aDC325306 */\n      0x694aa1769357215de4fac081bf1f309adc325306\n        /* \"Contracts/PriceConverter.sol\":274:373  AggregatorV3Interface priceFeed = AggregatorV3Interface(0x694AA1769357215DE4FAC081bf1f309aDC325306) */\n      swap1\n      pop\n        /* \"Contracts/PriceConverter.sol\":386:398  int256 price */\n      0x00\n        /* \"Contracts/PriceConverter.sol\":405:414  priceFeed */\n      dup2\n        /* \"Contracts/PriceConverter.sol\":405:430  priceFeed.latestRoundData */\n      0xffffffffffffffffffffffffffffffffffffffff\n      and\n      0xfeaf968c\n        /* \"Contracts/PriceConverter.sol\":405:432  priceFeed.latestRoundData() */\n      mload(0x40)\n      dup2\n      0xffffffff\n      and\n      0xe0\n      shl\n      dup2\n      mstore\n      0x04\n      add\n      0xa0\n      mload(0x40)\n      dup1\n      dup4\n      sub\n      dup2\n      dup7\n      gas\n      staticcall\n      iszero\n      dup1\n      iszero\n      tag_21\n      jumpi\n      returndatasize\n      0x00\n      dup1\n      returndatacopy\n      revert(0x00, returndatasize)\n    tag_21:\n      pop\n      pop\n      pop\n      pop\n      mload(0x40)\n      returndatasize\n      not(0x1f)\n      0x1f\n      dup3\n      add\n      and\n      dup3\n      add\n      dup1\n      0x40\n      mstore\n      pop\n      dup2\n      add\n      swap1\n      tag_22\n      swap2\n      swap1\n      tag_23\n      jump\t// in\n    tag_22:\n        /* \"Contracts/PriceConverter.sol\":384:432  (,int256 price,,,) = priceFeed.latestRoundData() */\n      pop\n      pop\n      pop\n      swap2\n      pop\n      pop\n        /* \"Contracts/PriceConverter.sol\":468:472  1e10 */\n      0x02540be400\n        /* \"Contracts/PriceConverter.sol\":460:465  price */\n      dup2\n        /* \"Contracts/PriceConverter.sol\":460:472  price * 1e10 */\n      tag_24\n      swap2\n      swap1\n      tag_25\n      jump\t// in\n    tag_24:\n        /* \"Contracts/PriceConverter.sol\":445:473  return uint256(price * 1e10) */\n      swap3\n      pop\n      pop\n      pop\n        /* \"Contracts/PriceConverter.sol\":209:481  function getPriceOfEth () public view returns(uint256) {... */\n      swap1\n      jump\t// out\n        /* \"#utility.yul\":88:205   */\n    tag_27:\n        /* \"#utility.yul\":197:198   */\n      0x00\n        /* \"#utility.yul\":194:195   */\n      dup1\n        /* \"#utility.yul\":187:199   */\n      revert\n        /* \"#utility.yul\":334:411   */\n    tag_29:\n        /* \"#utility.yul\":371:378   */\n      0x00\n        /* \"#utility.yul\":400:405   */\n      dup2\n        /* \"#utility.yul\":389:405   */\n      swap1\n      pop\n        /* \"#utility.yul\":334:411   */\n      swap2\n      swap1\n      pop\n      jump\t// out\n        /* \"#utility.yul\":417:539   */\n    tag_30:\n        /* \"#utility.yul\":490:514   */\n      tag_48\n        /* \"#utility.yul\":508:513   */\n      dup2\n        /* \"#utility.yul\":490:514   */\n      tag_29\n      jump\t// in\n    tag_48:\n        /* \"#utility.yul\":483:488   */\n      dup2\n        /* \"#utility.yul\":480:515   */\n      eq\n        /* \"#utility.yul\":470:533   */\n      tag_49\n      jumpi\n        /* \"#utility.yul\":529:530   */\n      0x00\n        /* \"#utility.yul\":526:527   */\n      dup1\n        /* \"#utility.yul\":519:531   */\n      revert\n        /* \"#utility.yul\":470:533   */\n    tag_49:\n        /* \"#utility.yul\":417:539   */\n      pop\n      jump\t// out\n        /* \"#utility.yul\":545:684   */\n    tag_31:\n        /* \"#utility.yul\":591:596   */\n      0x00\n        /* \"#utility.yul\":629:635   */\n      dup2\n        /* \"#utility.yul\":616:636   */\n      calldataload\n        /* \"#utility.yul\":607:636   */\n      swap1\n      pop\n        /* \"#utility.yul\":645:678   */\n      tag_51\n        /* \"#utility.yul\":672:677   */\n      dup2\n        /* \"#utility.yul\":645:678   */\n      tag_30\n      jump\t// in\n    tag_51:\n        /* \"#utility.yul\":545:684   */\n      swap3\n      swap2\n      pop\n      pop\n      jump\t// out\n        /* \"#utility.yul\":690:1019   */\n    tag_6:\n        /* \"#utility.yul\":749:755   */\n      0x00\n        /* \"#utility.yul\":798:800   */\n      0x20\n        /* \"#utility.yul\":786:795   */\n      dup3\n        /* \"#utility.yul\":777:784   */\n      dup5\n        /* \"#utility.yul\":773:796   */\n      sub\n        /* \"#utility.yul\":769:801   */\n      slt\n        /* \"#utility.yul\":766:885   */\n      iszero\n      tag_53\n      jumpi\n        /* \"#utility.yul\":804:883   */\n      tag_54\n      tag_27\n      jump\t// in\n    tag_54:\n        /* \"#utility.yul\":766:885   */\n    tag_53:\n        /* \"#utility.yul\":924:925   */\n      0x00\n        /* \"#utility.yul\":949:1002   */\n      tag_55\n        /* \"#utility.yul\":994:1001   */\n      dup5\n        /* \"#utility.yul\":985:991   */\n      dup3\n        /* \"#utility.yul\":974:983   */\n      dup6\n        /* \"#utility.yul\":970:992   */\n      add\n        /* \"#utility.yul\":949:1002   */\n      tag_31\n      jump\t// in\n    tag_55:\n        /* \"#utility.yul\":939:1002   */\n      swap2\n      pop\n        /* \"#utility.yul\":895:1012   */\n      pop\n        /* \"#utility.yul\":690:1019   */\n      swap3\n      swap2\n      pop\n      pop\n      jump\t// out\n        /* \"#utility.yul\":1025:1151   */\n    tag_32:\n        /* \"#utility.yul\":1120:1144   */\n      tag_57\n        /* \"#utility.yul\":1138:1143   */\n      dup2\n        /* \"#utility.yul\":1120:1144   */\n      tag_29\n      jump\t// in\n    tag_57:\n        /* \"#utility.yul\":1115:1118   */\n      dup3\n        /* \"#utility.yul\":1108:1145   */\n      mstore\n        /* \"#utility.yul\":1025:1151   */\n      pop\n      pop\n      jump\t// out\n        /* \"#utility.yul\":1157:1395   */\n    tag_9:\n        /* \"#utility.yul\":1258:1262   */\n      0x00\n        /* \"#utility.yul\":1296:1298   */\n      0x20\n        /* \"#utility.yul\":1285:1294   */\n      dup3\n        /* \"#utility.yul\":1281:1299   */\n      add\n        /* \"#utility.yul\":1273:1299   */\n      swap1\n      pop\n        /* \"#utility.yul\":1309:1388   */\n      tag_59\n        /* \"#utility.yul\":1385:1386   */\n      0x00\n        /* \"#utility.yul\":1374:1383   */\n      dup4\n        /* \"#utility.yul\":1370:1387   */\n      add\n        /* \"#utility.yul\":1361:1367   */\n      dup5\n        /* \"#utility.yul\":1309:1388   */\n      tag_32\n      jump\t// in\n    tag_59:\n        /* \"#utility.yul\":1157:1395   */\n      swap3\n      swap2\n      pop\n      pop\n      jump\t// out\n        /* \"#utility.yul\":1401:1581   */\n    tag_33:\n        /* \"#utility.yul\":1449:1526   */\n      0x4e487b7100000000000000000000000000000000000000000000000000000000\n        /* \"#utility.yul\":1446:1447   */\n      0x00\n        /* \"#utility.yul\":1439:1527   */\n      mstore\n        /* \"#utility.yul\":1546:1550   */\n      0x11\n        /* \"#utility.yul\":1543:1544   */\n      0x04\n        /* \"#utility.yul\":1536:1551   */\n      mstore\n        /* \"#utility.yul\":1570:1574   */\n      0x24\n        /* \"#utility.yul\":1567:1568   */\n      0x00\n        /* \"#utility.yul\":1560:1575   */\n      revert\n        /* \"#utility.yul\":1587:1997   */\n    tag_16:\n        /* \"#utility.yul\":1627:1634   */\n      0x00\n        /* \"#utility.yul\":1650:1670   */\n      tag_62\n        /* \"#utility.yul\":1668:1669   */\n      dup3\n        /* \"#utility.yul\":1650:1670   */\n      tag_29\n      jump\t// in\n    tag_62:\n        /* \"#utility.yul\":1645:1670   */\n      swap2\n      pop\n        /* \"#utility.yul\":1684:1704   */\n      tag_63\n        /* \"#utility.yul\":1702:1703   */\n      dup4\n        /* \"#utility.yul\":1684:1704   */\n      tag_29\n      jump\t// in\n    tag_63:\n        /* \"#utility.yul\":1679:1704   */\n      swap3\n      pop\n        /* \"#utility.yul\":1739:1740   */\n      dup3\n        /* \"#utility.yul\":1736:1737   */\n      dup3\n        /* \"#utility.yul\":1732:1741   */\n      mul\n        /* \"#utility.yul\":1761:1791   */\n      tag_64\n        /* \"#utility.yul\":1779:1790   */\n      dup2\n        /* \"#utility.yul\":1761:1791   */\n      tag_29\n      jump\t// in\n    tag_64:\n        /* \"#utility.yul\":1750:1791   */\n      swap2\n      pop\n        /* \"#utility.yul\":1940:1941   */\n      dup3\n        /* \"#utility.yul\":1931:1938   */\n      dup3\n        /* \"#utility.yul\":1927:1942   */\n      div\n        /* \"#utility.yul\":1924:1925   */\n      dup5\n        /* \"#utility.yul\":1921:1943   */\n      eq\n        /* \"#utility.yul\":1901:1902   */\n      dup4\n        /* \"#utility.yul\":1894:1903   */\n      iszero\n        /* \"#utility.yul\":1874:1957   */\n      or\n        /* \"#utility.yul\":1851:1990   */\n      tag_65\n      jumpi\n        /* \"#utility.yul\":1970:1988   */\n      tag_66\n      tag_33\n      jump\t// in\n    tag_66:\n        /* \"#utility.yul\":1851:1990   */\n    tag_65:\n        /* \"#utility.yul\":1635:1997   */\n      pop\n        /* \"#utility.yul\":1587:1997   */\n      swap3\n      swap2\n      pop\n      pop\n      jump\t// out\n        /* \"#utility.yul\":2003:2183   */\n    tag_34:\n        /* \"#utility.yul\":2051:2128   */\n      0x4e487b7100000000000000000000000000000000000000000000000000000000\n        /* \"#utility.yul\":2048:2049   */\n      0x00\n        /* \"#utility.yul\":2041:2129   */\n      mstore\n        /* \"#utility.yul\":2148:2152   */\n      0x12\n        /* \"#utility.yul\":2145:2146   */\n      0x04\n        /* \"#utility.yul\":2138:2153   */\n      mstore\n        /* \"#utility.yul\":2172:2176   */\n      0x24\n        /* \"#utility.yul\":2169:2170   */\n      0x00\n        /* \"#utility.yul\":2162:2177   */\n      revert\n        /* \"#utility.yul\":2189:2374   */\n    tag_18:\n        /* \"#utility.yul\":2229:2230   */\n      0x00\n        /* \"#utility.yul\":2246:2266   */\n      tag_69\n        /* \"#utility.yul\":2264:2265   */\n      dup3\n        /* \"#utility.yul\":2246:2266   */\n      tag_29\n      jump\t// in\n    tag_69:\n        /* \"#utility.yul\":2241:2266   */\n      swap2\n      pop\n        /* \"#utility.yul\":2280:2300   */\n      tag_70\n        /* \"#utility.yul\":2298:2299   */\n      dup4\n        /* \"#utility.yul\":2280:2300   */\n      tag_29\n      jump\t// in\n    tag_70:\n        /* \"#utility.yul\":2275:2300   */\n      swap3\n      pop\n        /* \"#utility.yul\":2319:2320   */\n      dup3\n        /* \"#utility.yul\":2309:2344   */\n      tag_71\n      jumpi\n        /* \"#utility.yul\":2324:2342   */\n      tag_72\n      tag_34\n      jump\t// in\n    tag_72:\n        /* \"#utility.yul\":2309:2344   */\n    tag_71:\n        /* \"#utility.yul\":2366:2367   */\n      dup3\n        /* \"#utility.yul\":2363:2364   */\n      dup3\n        /* \"#utility.yul\":2359:2368   */\n      div\n        /* \"#utility.yul\":2354:2368   */\n      swap1\n      pop\n        /* \"#utility.yul\":2189:2374   */\n      swap3\n      swap2\n      pop\n      pop\n      jump\t// out\n        /* \"#utility.yul\":2380:2485   */\n    tag_35:\n        /* \"#utility.yul\":2416:2423   */\n      0x00\n        /* \"#utility.yul\":2456:2478   */\n      0xffffffffffffffffffff\n        /* \"#utility.yul\":2449:2454   */\n      dup3\n        /* \"#utility.yul\":2445:2479   */\n      and\n        /* \"#utility.yul\":2434:2479   */\n      swap1\n      pop\n        /* \"#utility.yul\":2380:2485   */\n      swap2\n      swap1\n      pop\n      jump\t// out\n        /* \"#utility.yul\":2491:2611   */\n    tag_36:\n        /* \"#utility.yul\":2563:2586   */\n      tag_75\n        /* \"#utility.yul\":2580:2585   */\n      dup2\n        /* \"#utility.yul\":2563:2586   */\n      tag_35\n      jump\t// in\n    tag_75:\n        /* \"#utility.yul\":2556:2561   */\n      dup2\n        /* \"#utility.yul\":2553:2587   */\n      eq\n        /* \"#utility.yul\":2543:2605   */\n      tag_76\n      jumpi\n        /* \"#utility.yul\":2601:2602   */\n      0x00\n        /* \"#utility.yul\":2598:2599   */\n      dup1\n        /* \"#utility.yul\":2591:2603   */\n      revert\n        /* \"#utility.yul\":2543:2605   */\n    tag_76:\n        /* \"#utility.yul\":2491:2611   */\n      pop\n      jump\t// out\n        /* \"#utility.yul\":2617:2758   */\n    tag_37:\n        /* \"#utility.yul\":2673:2678   */\n      0x00\n        /* \"#utility.yul\":2704:2710   */\n      dup2\n        /* \"#utility.yul\":2698:2711   */\n      mload\n        /* \"#utility.yul\":2689:2711   */\n      swap1\n      pop\n        /* \"#utility.yul\":2720:2752   */\n      tag_78\n        /* \"#utility.yul\":2746:2751   */\n      dup2\n        /* \"#utility.yul\":2720:2752   */\n      tag_36\n      jump\t// in\n    tag_78:\n        /* \"#utility.yul\":2617:2758   */\n      swap3\n      swap2\n      pop\n      pop\n      jump\t// out\n        /* \"#utility.yul\":2764:2840   */\n    tag_38:\n        /* \"#utility.yul\":2800:2807   */\n      0x00\n        /* \"#utility.yul\":2829:2834   */\n      dup2\n        /* \"#utility.yul\":2818:2834   */\n      swap1\n      pop\n        /* \"#utility.yul\":2764:2840   */\n      swap2\n      swap1\n      pop\n      jump\t// out\n        /* \"#utility.yul\":2846:2966   */\n    tag_39:\n        /* \"#utility.yul\":2918:2941   */\n      tag_81\n        /* \"#utility.yul\":2935:2940   */\n      dup2\n        /* \"#utility.yul\":2918:2941   */\n      tag_38\n      jump\t// in\n    tag_81:\n        /* \"#utility.yul\":2911:2916   */\n      dup2\n        /* \"#utility.yul\":2908:2942   */\n      eq\n        /* \"#utility.yul\":2898:2960   */\n      tag_82\n      jumpi\n        /* \"#utility.yul\":2956:2957   */\n      0x00\n        /* \"#utility.yul\":2953:2954   */\n      dup1\n        /* \"#utility.yul\":2946:2958   */\n      revert\n        /* \"#utility.yul\":2898:2960   */\n    tag_82:\n        /* \"#utility.yul\":2846:2966   */\n      pop\n      jump\t// out\n        /* \"#utility.yul\":2972:3113   */\n    tag_40:\n        /* \"#utility.yul\":3028:3033   */\n      0x00\n        /* \"#utility.yul\":3059:3065   */\n      dup2\n        /* \"#utility.yul\":3053:3066   */\n      mload\n        /* \"#utility.yul\":3044:3066   */\n      swap1\n      pop\n        /* \"#utility.yul\":3075:3107   */\n      tag_84\n        /* \"#utility.yul\":3101:3106   */\n      dup2\n        /* \"#utility.yul\":3075:3107   */\n      tag_39\n      jump\t// in\n    tag_84:\n        /* \"#utility.yul\":2972:3113   */\n      swap3\n      swap2\n      pop\n      pop\n      jump\t// out\n        /* \"#utility.yul\":3119:3262   */\n    tag_41:\n        /* \"#utility.yul\":3176:3181   */\n      0x00\n        /* \"#utility.yul\":3207:3213   */\n      dup2\n        /* \"#utility.yul\":3201:3214   */\n      mload\n        /* \"#utility.yul\":3192:3214   */\n      swap1\n      pop\n        /* \"#utility.yul\":3223:3256   */\n      tag_86\n        /* \"#utility.yul\":3250:3255   */\n      dup2\n        /* \"#utility.yul\":3223:3256   */\n      tag_30\n      jump\t// in\n    tag_86:\n        /* \"#utility.yul\":3119:3262   */\n      swap3\n      swap2\n      pop\n      pop\n      jump\t// out\n        /* \"#utility.yul\":3268:4239   */\n    tag_23:\n        /* \"#utility.yul\":3371:3377   */\n      0x00\n        /* \"#utility.yul\":3379:3385   */\n      dup1\n        /* \"#utility.yul\":3387:3393   */\n      0x00\n        /* \"#utility.yul\":3395:3401   */\n      dup1\n        /* \"#utility.yul\":3403:3409   */\n      0x00\n        /* \"#utility.yul\":3452:3455   */\n      0xa0\n        /* \"#utility.yul\":3440:3449   */\n      dup7\n        /* \"#utility.yul\":3431:3438   */\n      dup9\n        /* \"#utility.yul\":3427:3450   */\n      sub\n        /* \"#utility.yul\":3423:3456   */\n      slt\n        /* \"#utility.yul\":3420:3540   */\n      iszero\n      tag_88\n      jumpi\n        /* \"#utility.yul\":3459:3538   */\n      tag_89\n      tag_27\n      jump\t// in\n    tag_89:\n        /* \"#utility.yul\":3420:3540   */\n    tag_88:\n        /* \"#utility.yul\":3579:3580   */\n      0x00\n        /* \"#utility.yul\":3604:3667   */\n      tag_90\n        /* \"#utility.yul\":3659:3666   */\n      dup9\n        /* \"#utility.yul\":3650:3656   */\n      dup3\n        /* \"#utility.yul\":3639:3648   */\n      dup10\n        /* \"#utility.yul\":3635:3657   */\n      add\n        /* \"#utility.yul\":3604:3667   */\n      tag_37\n      jump\t// in\n    tag_90:\n        /* \"#utility.yul\":3594:3667   */\n      swap6\n      pop\n        /* \"#utility.yul\":3550:3677   */\n      pop\n        /* \"#utility.yul\":3716:3718   */\n      0x20\n        /* \"#utility.yul\":3742:3805   */\n      tag_91\n        /* \"#utility.yul\":3797:3804   */\n      dup9\n        /* \"#utility.yul\":3788:3794   */\n      dup3\n        /* \"#utility.yul\":3777:3786   */\n      dup10\n        /* \"#utility.yul\":3773:3795   */\n      add\n        /* \"#utility.yul\":3742:3805   */\n      tag_40\n      jump\t// in\n    tag_91:\n        /* \"#utility.yul\":3732:3805   */\n      swap5\n      pop\n        /* \"#utility.yul\":3687:3815   */\n      pop\n        /* \"#utility.yul\":3854:3856   */\n      0x40\n        /* \"#utility.yul\":3880:3944   */\n      tag_92\n        /* \"#utility.yul\":3936:3943   */\n      dup9\n        /* \"#utility.yul\":3927:3933   */\n      dup3\n        /* \"#utility.yul\":3916:3925   */\n      dup10\n        /* \"#utility.yul\":3912:3934   */\n      add\n        /* \"#utility.yul\":3880:3944   */\n      tag_41\n      jump\t// in\n    tag_92:\n        /* \"#utility.yul\":3870:3944   */\n      swap4\n      pop\n        /* \"#utility.yul\":3825:3954   */\n      pop\n        /* \"#utility.yul\":3993:3995   */\n      0x60\n        /* \"#utility.yul\":4019:4083   */\n      tag_93\n        /* \"#utility.yul\":4075:4082   */\n      dup9\n        /* \"#utility.yul\":4066:4072   */\n      dup3\n        /* \"#utility.yul\":4055:4064   */\n      dup10\n        /* \"#utility.yul\":4051:4073   */\n      add\n        /* \"#utility.yul\":4019:4083   */\n      tag_41\n      jump\t// in\n    tag_93:\n        /* \"#utility.yul\":4009:4083   */\n      swap3\n      pop\n        /* \"#utility.yul\":3964:4093   */\n      pop\n        /* \"#utility.yul\":4132:4135   */\n      0x80\n        /* \"#utility.yul\":4159:4222   */\n      tag_94\n        /* \"#utility.yul\":4214:4221   */\n      dup9\n        /* \"#utility.yul\":4205:4211   */\n      dup3\n        /* \"#utility.yul\":4194:4203   */\n      dup10\n        /* \"#utility.yul\":4190:4212   */\n      add\n        /* \"#utility.yul\":4159:4222   */\n      tag_37\n      jump\t// in\n    tag_94:\n        /* \"#utility.yul\":4149:4222   */\n      swap2\n      pop\n        /* \"#utility.yul\":4103:4232   */\n      pop\n        /* \"#utility.yul\":3268:4239   */\n      swap3\n      swap6\n      pop\n      swap3\n      swap6\n      swap1\n      swap4\n      pop\n      jump\t// out\n        /* \"#utility.yul\":4245:4801   */\n    tag_25:\n        /* \"#utility.yul\":4284:4291   */\n      0x00\n        /* \"#utility.yul\":4307:4326   */\n      tag_96\n        /* \"#utility.yul\":4324:4325   */\n      dup3\n        /* \"#utility.yul\":4307:4326   */\n      tag_38\n      jump\t// in\n    tag_96:\n        /* \"#utility.yul\":4302:4326   */\n      swap2\n      pop\n        /* \"#utility.yul\":4340:4359   */\n      tag_97\n        /* \"#utility.yul\":4357:4358   */\n      dup4\n        /* \"#utility.yul\":4340:4359   */\n      tag_38\n      jump\t// in\n    tag_97:\n        /* \"#utility.yul\":4335:4359   */\n      swap3\n      pop\n        /* \"#utility.yul\":4394:4395   */\n      dup3\n        /* \"#utility.yul\":4391:4392   */\n      dup3\n        /* \"#utility.yul\":4387:4396   */\n      mul\n        /* \"#utility.yul\":4416:4445   */\n      tag_98\n        /* \"#utility.yul\":4433:4444   */\n      dup2\n        /* \"#utility.yul\":4416:4445   */\n      tag_38\n      jump\t// in\n    tag_98:\n        /* \"#utility.yul\":4405:4445   */\n      swap2\n      pop\n        /* \"#utility.yul\":4503:4569   */\n      0x8000000000000000000000000000000000000000000000000000000000000000\n        /* \"#utility.yul\":4500:4501   */\n      dup5\n        /* \"#utility.yul\":4497:4570   */\n      eq\n        /* \"#utility.yul\":4493:4494   */\n      0x00\n        /* \"#utility.yul\":4490:4491   */\n      dup5\n        /* \"#utility.yul\":4486:4495   */\n      slt\n        /* \"#utility.yul\":4482:4571   */\n      and\n        /* \"#utility.yul\":4479:4594   */\n      iszero\n      tag_99\n      jumpi\n        /* \"#utility.yul\":4574:4592   */\n      tag_100\n      tag_33\n      jump\t// in\n    tag_100:\n        /* \"#utility.yul\":4479:4594   */\n    tag_99:\n        /* \"#utility.yul\":4744:4745   */\n      dup3\n        /* \"#utility.yul\":4735:4742   */\n      dup3\n        /* \"#utility.yul\":4730:4746   */\n      sdiv\n        /* \"#utility.yul\":4727:4728   */\n      dup5\n        /* \"#utility.yul\":4724:4747   */\n      eq\n        /* \"#utility.yul\":4704:4705   */\n      dup4\n        /* \"#utility.yul\":4697:4706   */\n      iszero\n        /* \"#utility.yul\":4677:4761   */\n      or\n        /* \"#utility.yul\":4654:4794   */\n      tag_101\n      jumpi\n        /* \"#utility.yul\":4774:4792   */\n      tag_102\n      tag_33\n      jump\t// in\n    tag_102:\n        /* \"#utility.yul\":4654:4794   */\n    tag_101:\n        /* \"#utility.yul\":4292:4801   */\n      pop\n        /* \"#utility.yul\":4245:4801   */\n      swap3\n      swap2\n      pop\n      pop\n      jump\t// out\n\n    auxdata: 0xa2646970667358221220d991e6c91a6cdc223530e7e5d6ea6ca8d602372dc860949f59008ba4698a6c2664736f6c63430008120033\n}\n",
				"bytecode": {
					"linkReferences": {},
					"object": "61048f610053600b82828239805160001a607314610046577f4e487b7100000000000000000000000000000000000000000000000000000000600052600060045260246000fd5b30600052607381538281f3fe73000000000000000000000000000000000000000030146080604052600436106100405760003560e01c8063047abed7146100455780635bbe8ef114610075575b600080fd5b61005f600480360381019061005a91906101b1565b610093565b60405161006c91906101ed565b60405180910390f35b61007d6100cd565b60405161008a91906101ed565b60405180910390f35b60008061009e6100cd565b90506000670de0b6b3a764000082856100b79190610237565b6100c191906102a8565b90508092505050919050565b60008073694aa1769357215de4fac081bf1f309adc325306905060008173ffffffffffffffffffffffffffffffffffffffff1663feaf968c6040518163ffffffff1660e01b815260040160a060405180830381865afa158015610134573d6000803e3d6000fd5b505050506040513d601f19601f820116820180604052508101906101589190610366565b5050509150506402540be4008161016f91906103e1565b9250505090565b600080fd5b6000819050919050565b61018e8161017b565b811461019957600080fd5b50565b6000813590506101ab81610185565b92915050565b6000602082840312156101c7576101c6610176565b5b60006101d58482850161019c565b91505092915050565b6101e78161017b565b82525050565b600060208201905061020260008301846101de565b92915050565b7f4e487b7100000000000000000000000000000000000000000000000000000000600052601160045260246000fd5b60006102428261017b565b915061024d8361017b565b925082820261025b8161017b565b9150828204841483151761027257610271610208565b5b5092915050565b7f4e487b7100000000000000000000000000000000000000000000000000000000600052601260045260246000fd5b60006102b38261017b565b91506102be8361017b565b9250826102ce576102cd610279565b5b828204905092915050565b600069ffffffffffffffffffff82169050919050565b6102f8816102d9565b811461030357600080fd5b50565b600081519050610315816102ef565b92915050565b6000819050919050565b61032e8161031b565b811461033957600080fd5b50565b60008151905061034b81610325565b92915050565b60008151905061036081610185565b92915050565b600080600080600060a0868803121561038257610381610176565b5b600061039088828901610306565b95505060206103a18882890161033c565b94505060406103b288828901610351565b93505060606103c388828901610351565b92505060806103d488828901610306565b9150509295509295909350565b60006103ec8261031b565b91506103f78361031b565b92508282026104058161031b565b91507f8000000000000000000000000000000000000000000000000000000000000000841460008412161561043d5761043c610208565b5b828205841483151761045257610451610208565b5b509291505056fea2646970667358221220d991e6c91a6cdc223530e7e5d6ea6ca8d602372dc860949f59008ba4698a6c2664736f6c63430008120033",
					"opcodes": "PUSH2 0x48F PUSH2 0x53 PUSH1 0xB DUP3 DUP3 DUP3 CODECOPY DUP1 MLOAD PUSH1 0x0 BYTE PUSH1 0x73 EQ PUSH2 0x46 JUMPI PUSH32 0x4E487B7100000000000000000000000000000000000000000000000000000000 PUSH1 0x0 MSTORE PUSH1 0x0 PUSH1 0x4 MSTORE PUSH1 0x24 PUSH1 0x0 REVERT JUMPDEST ADDRESS PUSH1 0x0 MSTORE PUSH1 0x73 DUP2 MSTORE8 DUP3 DUP2 RETURN INVALID PUSH20 0x0 ADDRESS EQ PUSH1 0x80 PUSH1 0x40 MSTORE PUSH1 0x4 CALLDATASIZE LT PUSH2 0x40 JUMPI PUSH1 0x0 CALLDATALOAD PUSH1 0xE0 SHR DUP1 PUSH4 0x47ABED7 EQ PUSH2 0x45 JUMPI DUP1 PUSH4 0x5BBE8EF1 EQ PUSH2 0x75 JUMPI JUMPDEST PUSH1 0x0 DUP1 REVERT JUMPDEST PUSH2 0x5F PUSH1 0x4 DUP1 CALLDATASIZE SUB DUP2 ADD SWAP1 PUSH2 0x5A SWAP2 SWAP1 PUSH2 0x1B1 JUMP JUMPDEST PUSH2 0x93 JUMP JUMPDEST PUSH1 0x40 MLOAD PUSH2 0x6C SWAP2 SWAP1 PUSH2 0x1ED JUMP JUMPDEST PUSH1 0x40 MLOAD DUP1 SWAP2 SUB SWAP1 RETURN JUMPDEST PUSH2 0x7D PUSH2 0xCD JUMP JUMPDEST PUSH1 0x40 MLOAD PUSH2 0x8A SWAP2 SWAP1 PUSH2 0x1ED JUMP JUMPDEST PUSH1 0x40 MLOAD DUP1 SWAP2 SUB SWAP1 RETURN JUMPDEST PUSH1 0x0 DUP1 PUSH2 0x9E PUSH2 0xCD JUMP JUMPDEST SWAP1 POP PUSH1 0x0 PUSH8 0xDE0B6B3A7640000 DUP3 DUP6 PUSH2 0xB7 SWAP2 SWAP1 PUSH2 0x237 JUMP JUMPDEST PUSH2 0xC1 SWAP2 SWAP1 PUSH2 0x2A8 JUMP JUMPDEST SWAP1 POP DUP1 SWAP3 POP POP POP SWAP2 SWAP1 POP JUMP JUMPDEST PUSH1 0x0 DUP1 PUSH20 0x694AA1769357215DE4FAC081BF1F309ADC325306 SWAP1 POP PUSH1 0x0 DUP2 PUSH20 0xFFFFFFFFFFFFFFFFFFFFFFFFFFFFFFFFFFFFFFFF AND PUSH4 0xFEAF968C PUSH1 0x40 MLOAD DUP2 PUSH4 0xFFFFFFFF AND PUSH1 0xE0 SHL DUP2 MSTORE PUSH1 0x4 ADD PUSH1 0xA0 PUSH1 0x40 MLOAD DUP1 DUP4 SUB DUP2 DUP7 GAS STATICCALL ISZERO DUP1 ISZERO PUSH2 0x134 JUMPI RETURNDATASIZE PUSH1 0x0 DUP1 RETURNDATACOPY RETURNDATASIZE PUSH1 0x0 REVERT JUMPDEST POP POP POP POP PUSH1 0x40 MLOAD RETURNDATASIZE PUSH1 0x1F NOT PUSH1 0x1F DUP3 ADD AND DUP3 ADD DUP1 PUSH1 0x40 MSTORE POP DUP2 ADD SWAP1 PUSH2 0x158 SWAP2 SWAP1 PUSH2 0x366 JUMP JUMPDEST POP POP POP SWAP2 POP POP PUSH5 0x2540BE400 DUP2 PUSH2 0x16F SWAP2 SWAP1 PUSH2 0x3E1 JUMP JUMPDEST SWAP3 POP POP POP SWAP1 JUMP JUMPDEST PUSH1 0x0 DUP1 REVERT JUMPDEST PUSH1 0x0 DUP2 SWAP1 POP SWAP2 SWAP1 POP JUMP JUMPDEST PUSH2 0x18E DUP2 PUSH2 0x17B JUMP JUMPDEST DUP2 EQ PUSH2 0x199 JUMPI PUSH1 0x0 DUP1 REVERT JUMPDEST POP JUMP JUMPDEST PUSH1 0x0 DUP2 CALLDATALOAD SWAP1 POP PUSH2 0x1AB DUP2 PUSH2 0x185 JUMP JUMPDEST SWAP3 SWAP2 POP POP JUMP JUMPDEST PUSH1 0x0 PUSH1 0x20 DUP3 DUP5 SUB SLT ISZERO PUSH2 0x1C7 JUMPI PUSH2 0x1C6 PUSH2 0x176 JUMP JUMPDEST JUMPDEST PUSH1 0x0 PUSH2 0x1D5 DUP5 DUP3 DUP6 ADD PUSH2 0x19C JUMP JUMPDEST SWAP2 POP POP SWAP3 SWAP2 POP POP JUMP JUMPDEST PUSH2 0x1E7 DUP2 PUSH2 0x17B JUMP JUMPDEST DUP3 MSTORE POP POP JUMP JUMPDEST PUSH1 0x0 PUSH1 0x20 DUP3 ADD SWAP1 POP PUSH2 0x202 PUSH1 0x0 DUP4 ADD DUP5 PUSH2 0x1DE JUMP JUMPDEST SWAP3 SWAP2 POP POP JUMP JUMPDEST PUSH32 0x4E487B7100000000000000000000000000000000000000000000000000000000 PUSH1 0x0 MSTORE PUSH1 0x11 PUSH1 0x4 MSTORE PUSH1 0x24 PUSH1 0x0 REVERT JUMPDEST PUSH1 0x0 PUSH2 0x242 DUP3 PUSH2 0x17B JUMP JUMPDEST SWAP2 POP PUSH2 0x24D DUP4 PUSH2 0x17B JUMP JUMPDEST SWAP3 POP DUP3 DUP3 MUL PUSH2 0x25B DUP2 PUSH2 0x17B JUMP JUMPDEST SWAP2 POP DUP3 DUP3 DIV DUP5 EQ DUP4 ISZERO OR PUSH2 0x272 JUMPI PUSH2 0x271 PUSH2 0x208 JUMP JUMPDEST JUMPDEST POP SWAP3 SWAP2 POP POP JUMP JUMPDEST PUSH32 0x4E487B7100000000000000000000000000000000000000000000000000000000 PUSH1 0x0 MSTORE PUSH1 0x12 PUSH1 0x4 MSTORE PUSH1 0x24 PUSH1 0x0 REVERT JUMPDEST PUSH1 0x0 PUSH2 0x2B3 DUP3 PUSH2 0x17B JUMP JUMPDEST SWAP2 POP PUSH2 0x2BE DUP4 PUSH2 0x17B JUMP JUMPDEST SWAP3 POP DUP3 PUSH2 0x2CE JUMPI PUSH2 0x2CD PUSH2 0x279 JUMP JUMPDEST JUMPDEST DUP3 DUP3 DIV SWAP1 POP SWAP3 SWAP2 POP POP JUMP JUMPDEST PUSH1 0x0 PUSH10 0xFFFFFFFFFFFFFFFFFFFF DUP3 AND SWAP1 POP SWAP2 SWAP1 POP JUMP JUMPDEST PUSH2 0x2F8 DUP2 PUSH2 0x2D9 JUMP JUMPDEST DUP2 EQ PUSH2 0x303 JUMPI PUSH1 0x0 DUP1 REVERT JUMPDEST POP JUMP JUMPDEST PUSH1 0x0 DUP2 MLOAD SWAP1 POP PUSH2 0x315 DUP2 PUSH2 0x2EF JUMP JUMPDEST SWAP3 SWAP2 POP POP JUMP JUMPDEST PUSH1 0x0 DUP2 SWAP1 POP SWAP2 SWAP1 POP JUMP JUMPDEST PUSH2 0x32E DUP2 PUSH2 0x31B JUMP JUMPDEST DUP2 EQ PUSH2 0x339 JUMPI PUSH1 0x0 DUP1 REVERT JUMPDEST POP JUMP JUMPDEST PUSH1 0x0 DUP2 MLOAD SWAP1 POP PUSH2 0x34B DUP2 PUSH2 0x325 JUMP JUMPDEST SWAP3 SWAP2 POP POP JUMP JUMPDEST PUSH1 0x0 DUP2 MLOAD SWAP1 POP PUSH2 0x360 DUP2 PUSH2 0x185 JUMP JUMPDEST SWAP3 SWAP2 POP POP JUMP JUMPDEST PUSH1 0x0 DUP1 PUSH1 0x0 DUP1 PUSH1 0x0 PUSH1 0xA0 DUP7 DUP9 SUB SLT ISZERO PUSH2 0x382 JUMPI PUSH2 0x381 PUSH2 0x176 JUMP JUMPDEST JUMPDEST PUSH1 0x0 PUSH2 0x390 DUP9 DUP3 DUP10 ADD PUSH2 0x306 JUMP JUMPDEST SWAP6 POP POP PUSH1 0x20 PUSH2 0x3A1 DUP9 DUP3 DUP10 ADD PUSH2 0x33C JUMP JUMPDEST SWAP5 POP POP PUSH1 0x40 PUSH2 0x3B2 DUP9 DUP3 DUP10 ADD PUSH2 0x351 JUMP JUMPDEST SWAP4 POP POP PUSH1 0x60 PUSH2 0x3C3 DUP9 DUP3 DUP10 ADD PUSH2 0x351 JUMP JUMPDEST SWAP3 POP POP PUSH1 0x80 PUSH2 0x3D4 DUP9 DUP3 DUP10 ADD PUSH2 0x306 JUMP JUMPDEST SWAP2 POP POP SWAP3 SWAP6 POP SWAP3 SWAP6 SWAP1 SWAP4 POP JUMP JUMPDEST PUSH1 0x0 PUSH2 0x3EC DUP3 PUSH2 0x31B JUMP JUMPDEST SWAP2 POP PUSH2 0x3F7 DUP4 PUSH2 0x31B JUMP JUMPDEST SWAP3 POP DUP3 DUP3 MUL PUSH2 0x405 DUP2 PUSH2 0x31B JUMP JUMPDEST SWAP2 POP PUSH32 0x8000000000000000000000000000000000000000000000000000000000000000 DUP5 EQ PUSH1 0x0 DUP5 SLT AND ISZERO PUSH2 0x43D JUMPI PUSH2 0x43C PUSH2 0x208 JUMP JUMPDEST JUMPDEST DUP3 DUP3 SDIV DUP5 EQ DUP4 ISZERO OR PUSH2 0x452 JUMPI PUSH2 0x451 PUSH2 0x208 JUMP JUMPDEST JUMPDEST POP SWAP3 SWAP2 POP POP JUMP INVALID LOG2 PUSH5 0x6970667358 0x22 SLT KECCAK256 0xD9 SWAP2 0xE6 0xC9 BYTE PUSH13 0xDC223530E7E5D6EA6CA8D60237 0x2D 0xC8 PUSH1 0x94 SWAP16 MSIZE STOP DUP12 LOG4 PUSH10 0x8A6C2664736F6C634300 ADDMOD SLT STOP CALLER "
				},
				"gasEstimates": {
					"creation": {
						"codeDepositCost": "233400",
						"executionCost": "300",
						"totalCost": "233700"
					},
					"external": {
						"getConversion(uint256)": "infinite",
						"getPriceOfEth()": "infinite"
					}
				},
				"methodIdentifiers": {
					"getConversion(uint256)": "047abed7",
					"getPriceOfEth()": "5bbe8ef1"
				}
			},
			"storageLayout": {
				"storage": [],
				"types": null
			},
			"userdoc": {
				"kind": "user",
				"methods": {},
				"version": 1
			}
		}
	}
}